:020000040800F2
:1000000000500020E16B0008AD1D0008B91D00087C
:10001000BF1D0008C51D0008CB1D00080000000022
:10002000000000000000000000000000D11D0008DA
:10003000DD1D000800000000E91D0008F51D000896
:10004000256C0008256C0008256C0008256C00084C
:10005000256C0008256C0008256C0008256C00083C
:10006000256C0008256C0008256C0008256C00082C
:10007000256C0008256C0008256C0008256C00081C
:10008000256C0008256C0008256C0008256C00080C
:10009000256C0008256C0008256C0008256C0008FC
:1000A000256C0008256C0008256C0008256C0008EC
:1000B0003138000845380008256C0008256C000818
:1000C000256C0008256C0008256C0008256C0008CC
:1000D000256C0008054E0008354E0008414E00080A
:1000E000256C0008256C0008256C00080000000045
:1000F0000000000000000000000000000000000000
:0C01000000000000000000005FF808F1A3
:10010C0010B5054C237833B9044B13B10448AFF345
:10011C0000800123237010BD10020020000000009D
:10012C00A06E000808B5034B1BB103490348AFF39D
:10013C00008008BD0000000014020020A06E000822
:10014C00034613F8012B002AFBD1181A013870470B
:10015C0081F0004102E000BF83F0004330B54FEA6C
:10016C0041044FEA430594EA050F08BF90EA020FD9
:10017C001FBF54EA000C55EA020C7FEA645C7FEA6C
:10018C00655C00F0E2804FEA5454D4EB5555B8BF8F
:10019C006D420CDD2C4480EA020281EA030382EA00
:1001AC00000083EA010180EA020281EA0303362D92
:1001BC0088BF30BD11F0004F4FEA01314FF4801C65
:1001CC004CEA113102D0404261EB410113F0004F77
:1001DC004FEA03334CEA133302D0524263EB43032E
:1001EC0094EA050F00F0A780A4F10104D5F1200ECC
:1001FC000DDB02FA0EFC22FA05F2801841F1000127
:10020C0003FA0EF2801843FA05F359410EE0A5F1FA
:10021C0020050EF1200E012A03FA0EFC28BF4CF02B
:10022C00020C43FA05F3C01851EBE37101F00045E1
:10023C0007D54FF0000EDCF1000C7EEB00006EEBEE
:10024C000101B1F5801F1BD3B1F5001F0CD3490878
:10025C005FEA30004FEA3C0C04F101044FEA4452CF
:10026C0012F5800F80F09A80BCF1004F08BF5FEA56
:10027C00500C50F1000041EB045141EA050130BD36
:10028C005FEA4C0C404141EB0101013C28BFB1F548
:10029C00801FE9D291F0000F04BF01460020B1FA93
:1002AC0081F308BF2033A3F10B03B3F120020CDA66
:1002BC000C3208DD02F1140CC2F10C0201FA0CF044
:1002CC0021FA02F10CE002F11402D8BFC2F1200CA9
:1002DC0001FA02F120FA0CFCDCBF41EA0C0190405F
:1002EC00E41AA2BF01EB0451294330BD6FEA0404A8
:1002FC001F3C1CDA0C340EDC04F11404C4F1200293
:10030C0020FA04F001FA02F340EA030021FA04F3A4
:10031C0045EA030130BDC4F10C04C4F1200220FAFB
:10032C0002F001FA04F340EA0300294630BD21FA39
:10033C0004F0294630BD94F0000F83F4801306BFFF
:10034C0081F480110134013D4EE77FEA645C18BFF3
:10035C007FEA655C29D094EA050F08BF90EA020F8A
:10036C0005D054EA000C04BF1946104630BD91EA82
:10037C00030F1EBF0021002030BD5FEA545C05D185
:10038C004000494128BF41F0004130BD14F58004C4
:10039C003CBF01F5801130BD01F0004545F0FE4138
:1003AC0041F470014FF0000030BD7FEA645C1ABF6D
:1003BC00194610467FEA655C1CBF0B46024650EAA4
:1003CC00013406BF52EA033591EA030F41F40021D0
:1003DC0030BD00BF90F0000F04BF0021704730B556
:1003EC004FF4806404F132044FF000054FF000012B
:1003FC0050E700BF90F0000F04BF0021704730B5EC
:10040C004FF4806404F1320410F0004548BF4042C0
:10041C004FF000013EE700BF42004FEAE2014FEA15
:10042C0031014FEA02701FBF12F07F4393F07F4FF0
:10043C0081F06051704732F07F4208BF704793F0F3
:10044C007F4F04BF41F40021704730B54FF4607406
:10045C0001F0004521F000411CE700BF50EA010209
:10046C0008BF704730B54FF000050AE050EA0102B2
:10047C0008BF704730B511F0004502D5404261EB22
:10048C0041014FF4806404F132045FEA915C3FF463
:10049C00D8AE4FF003025FEADC0C18BF03325FEA00
:1004AC00DC0C18BF033202EBDC02C2F1200300FAB1
:1004BC0003FC20FA02F001FA03FE40EA0E0021FAD6
:1004CC0002F11444BDE600BF70B54FF0FF0C4CF4C4
:1004DC00E06C1CEA11541DBF1CEA135594EA0C0F76
:1004EC0095EA0C0F00F0DEF82C4481EA030621EAB1
:1004FC004C5123EA4C5350EA013518BF52EA0335EC
:10050C0041F4801143F4801338D0A0FB02CE4FF09D
:10051C000005E1FB02E506F00042E0FB03E54FF0CD
:10052C000006E1FB03569CF0000F18BF4EF0010EC5
:10053C00A4F1FF04B6F5007F64F5407404D25FEAC1
:10054C004E0E6D4146EB060642EAC62141EA555174
:10055C004FEAC52040EA5E504FEACE2EB4F1FD0CB6
:10056C0088BFBCF5E06F1ED8BEF1004F08BF5FEA34
:10057C00500E50F1000041EB045170BD06F00046E6
:10058C0046EA010140EA020081EA0301B4EB5C0493
:10059C00C2BFD4EB0C0541EA045170BD41F480118B
:1005AC004FF0000E013C00F3AB8014F1360FDEBFB0
:1005BC00002001F0004170BDC4F10004203C35DA8C
:1005CC000C341BDC04F11404C4F1200500FA05F30F
:1005DC0020FA04F001FA05F240EA020001F00042B0
:1005EC0021F0004110EBD37021FA04F642EB060126
:1005FC005EEA430E08BF20EAD37070BDC4F10C0450
:10060C00C4F1200500FA04F320FA05F001FA04F213
:10061C0040EA020001F0004110EBD37041F10001FF
:10062C005EEA430E08BF20EAD37070BDC4F120050A
:10063C0000FA05F24EEA020E20FA04F301FA05F272
:10064C0043EA020321FA04F001F0004121FA04F21A
:10065C0020EA020000EBD3705EEA430E08BF20EAEA
:10066C00D37070BD94F0000F0FD101F00046400024
:10067C0041EB010111F4801F08BF013CF7D041EAA6
:10068C00060195F0000F18BF704703F000465200AA
:10069C0043EB030313F4801F08BF013DF7D043EA7B
:1006AC000603704794EA0C0F0CEA135518BF95EA31
:1006BC000C0F0CD050EA410618BF52EA4306D1D1B8
:1006CC0081EA030101F000414FF0000070BD50EAD7
:1006DC00410606BF1046194652EA430619D094EA61
:1006EC000C0F02D150EA013613D195EA0C0F05D14B
:1006FC0052EA03361CBF104619460AD181EA03019F
:10070C0001F0004141F0FE4141F470014FF0000056
:10071C0070BD41F0FE4141F4780170BD70B54FF0F1
:10072C00FF0C4CF4E06C1CEA11541DBF1CEA135571
:10073C0094EA0C0F95EA0C0F00F0A7F8A4EB050453
:10074C0081EA030E52EA03354FEA013100F088804A
:10075C004FEA03334FF0805545EA131343EA126313
:10076C004FEA022245EA111545EA10654FEA0026C8
:10077C000EF000419D4208BF964244F1FD0404F581
:10078C00407402D25B084FEA3202B61A65EB0305DD
:10079C005B084FEA32024FF480104FF4002CB6EB9A
:1007AC00020E75EB030E22BFB61A754640EA0C001A
:1007BC005B084FEA3202B6EB020E75EB030E22BF5A
:1007CC00B61A754640EA5C005B084FEA3202B6EB9B
:1007DC00020E75EB030E22BFB61A754640EA9C005A
:1007EC005B084FEA3202B6EB020E75EB030E22BF2A
:1007FC00B61A754640EADC0055EA060E18D04FEAE8
:10080C00051545EA16754FEA06164FEAC30343EA87
:10081C0052734FEAC2025FEA1C1CC0D111F4801F54
:10082C000BD141EA00014FF000004FF0004CB6E74D
:10083C0011F4801F04BF01430020B4F1FD0C88BFEC
:10084C00BCF5E06F3FF6AFAEB5EB030C04BFB6EBF7
:10085C00020C5FEA500C50F1000041EB045170BDEA
:10086C000EF0004E4EEA113114EB5C04C2BFD4EB17
:10087C000C0541EA045170BD41F480114FF0000E9B
:10088C00013C90E645EA060E8DE60CEA135594EA17
:10089C000C0F08BF95EA0C0F3FF43BAF94EA0C0F1A
:1008AC000AD150EA01347FF434AF95EA0C0F7FF48F
:1008BC0025AF104619462CE795EA0C0F06D152EAE3
:1008CC0003353FF4FDAE1046194622E750EA4106C7
:1008DC0018BF52EA43067FF4C5AE50EA41047FF4D8
:1008EC000DAF52EA43057FF4EBAE12E74FEA41023B
:1008FC00B2F1E04324BFB3F5001CDCF1FE5C0DD972
:10090C0001F0004C4FEAC0024CEA5070B2F1004FBB
:10091C0040EB830008BF20F00100704711F0804FBE
:10092C0021D113F13872BCBF01F00040704741F483
:10093C0080114FEA5252C2F11802C2F1200C10FA87
:10094C000CF320FA02F018BF40F001004FEAC1236B
:10095C004FEAD32303FA0CFC40EA0C0023FA02F30F
:10096C004FEA4303CCE77FEA625307D150EA0133E5
:10097C001EBF4FF0FE4040F44000704701F00040B5
:10098C0040F0FE4040F40000704700BF80F0004093
:10099C0002E000BF81F0004142001FBF5FEA41034B
:1009AC0092EA030F7FEA226C7FEA236C6AD04FEA4B
:1009BC001262D2EB1363C1BFD21841404840414090
:1009CC00B8BF5B42192B88BF704710F0004F40F442
:1009DC00000020F07F4018BF404211F0004F41F45E
:1009EC00000121F07F4118BF494292EA030F3FD02A
:1009FC00A2F1010241FA03FC10EB0C00C3F120033D
:100A0C0001FA03F100F0004302D5494260EB4000CB
:100A1C00B0F5000F13D3B0F1807F06D340084FEA36
:100A2C00310102F10102FE2A51D2B1F1004F40EB2B
:100A3C00C25008BF20F0010040EA03007047490093
:100A4C0040EB0000013A28BFB0F5000FEDD2B0FA30
:100A5C0080FCACF1080CB2EB0C0200FA0CF0AABF53
:100A6C0000EBC25052421843BCBFD04018437047F1
:100A7C0092F0000F81F4000106BF80F400000132F7
:100A8C00013BB5E74FEA41037FEA226C18BF7FEACE
:100A9C00236C21D092EA030F04D092F0000F08BF10
:100AAC000846704790EA010F1CBF0020704712F0F7
:100ABC007F4F04D1400028BF40F00040704712F136
:100ACC0000723CBF00F50000704700F0004343F09B
:100ADC00FE4040F4000070477FEA226216BF0846D1
:100AEC007FEA23630146420206BF5FEA412390EA94
:100AFC00010F40F4800070474FF0000304E000BF8A
:100B0C0010F0004348BF40425FEA000C08BF70473A
:100B1C0043F0964301464FF000001CE050EA0102FE
:100B2C0008BF70474FF000030AE000BF50EA010213
:100B3C0008BF704711F0004302D5404261EB410100
:100B4C005FEA010C02BF84460146002043F0B64325
:100B5C0008BFA3F18053A3F50003BCFA8CF2083A4A
:100B6C00A3EBC25310DB01FA02FC634400FA02FC53
:100B7C00C2F12002BCF1004F20FA02F243EB02005A
:100B8C0008BF20F00100704702F1200201FA02FCBC
:100B9C00C2F1200250EA4C0021FA02F243EB0200AF
:100BAC0008BF20EADC7070474FF0FF0C1CEAD052F3
:100BBC001EBF1CEAD15392EA0C0F93EA0C0F6FD0B4
:100BCC001A4480EA010C400218BF5FEA41211ED092
:100BDC004FF0006343EA501043EA5111A0FB01317E
:100BEC000CF00040B1F5000F3EBF490041EAD37153
:100BFC005B0040EA010062F17F02FD2A1DD8B3F1CF
:100C0C00004F40EBC25008BF20F00100704790F03D
:100C1C00000F0CF0004C08BF49024CEA502040EA8F
:100C2C0051207F3AC2BFD2F1FF0340EAC250704755
:100C3C0040F400004FF00003013A5DDC12F1190F93
:100C4C00DCBF00F000407047C2F10002410021FA05
:100C5C0002F1C2F1200200FA02FC5FEA310040F11D
:100C6C00000053EA4C0308BF20EADC70704792F096
:100C7C00000F00F0004C02BF400010F4000F013ACE
:100C8C00F9D040EA0C0093F0000F01F0004C02BFC9
:100C9C00490011F4000F013BF9D041EA0C018FE738
:100CAC000CEAD15392EA0C0F18BF93EA0C0F0AD03E
:100CBC0030F0004C18BF31F0004CD8D180EA010064
:100CCC0000F00040704790F0000F17BF90F0004FFD
:100CDC00084691F0000F91F0004F14D092EA0C0FDF
:100CEC0001D142020FD193EA0C0F03D14B0218BF72
:100CFC00084608D180EA010000F0004040F0FE40B8
:100D0C0040F40000704740F0FE4040F44000704753
:100D1C004FF0FF0C1CEAD0521EBF1CEAD15392EAD2
:100D2C000C0F93EA0C0F69D0A2EB030280EA010CC2
:100D3C0049024FEA402037D04FF0805343EA11115B
:100D4C0043EA10130CF000408B4238BF5B0042F1B9
:100D5C007D024FF4000C8B4224BF5B1A40EA0C005E
:100D6C00B3EB510F24BFA3EB510340EA5C00B3EB90
:100D7C00910F24BFA3EB910340EA9C00B3EBD10F7E
:100D8C0024BFA3EBD10340EADC001B0118BF5FEAD0
:100D9C001C1CE0D1FD2A3FF650AF8B4240EBC250F9
:100DAC0008BF20F0010070470CF0004C4CEA5020BA
:100DBC007F32C2BFD2F1FF0340EAC250704740F409
:100DCC0000004FF00003013A37E792F0000F00F0FB
:100DDC00004C02BF400010F4000F013AF9D040EA79
:100DEC000C0093F0000F01F0004C02BF490011F40D
:100DFC00000F013BF9D041EA0C0195E70CEAD15305
:100E0C0092EA0C0F08D142027FF47DAF93EA0C0FEB
:100E1C007FF470AF084676E793EA0C0F04D14B02CF
:100E2C003FF44CAF08466EE730F0004C18BF31F081
:100E3C00004CCAD130F000427FF45CAF31F000437B
:100E4C007FF43CAF5FE700BF4FF0FF3C06E000BF14
:100E5C004FF0010C02E000BF4FF0010C4DF804CD37
:100E6C004FEA40024FEA41037FEA226C18BF7FEA47
:100E7C00236C11D001B052EA530C18BF90EA010F49
:100E8C0058BFB2EB030088BFC81738BF6FEAE170D8
:100E9C0018BF40F0010070477FEA226C02D15FEA74
:100EAC00402C05D17FEA236CE4D15FEA412CE1D0E0
:100EBC005DF8040B704700BF844608466146FFE7A7
:100ECC000FB5FFF7C9FF002848BF10F1000F0FBD89
:100EDC004DF808EDFFF7F4FF0CBF012000205DF882
:100EEC0008FB00BF4DF808EDFFF7EAFF34BF012007
:100EFC0000205DF808FB00BF4DF808EDFFF7E0FFA0
:100F0C0094BF012000205DF808FB00BF4DF808EDF0
:100F1C00FFF7D2FF94BF012000205DF808FB00BF53
:100F2C004DF808EDFFF7C8FF34BF012000205DF835
:100F3C0008FB00BF42000ED2B2F1FE4F0BD34FF0B4
:100F4C009E03B3EB126209D44FEA002343F0004333
:100F5C0023FA02F070474FF00000704712F1610F56
:100F6C0001D1420202D14FF0FF3070474FF0000028
:100F7C00704700BF53B94AB9002908BF00281CBFED
:100F8C004FF0FF314FF0FF3000F076B9ADF1080CA7
:100F9C006DE904CE00F006F8DDF804E0DDE902238B
:100FAC0004B070472DE9F047089E0D46044688466C
:100FBC00002B4DD18A42944668D9B2FA82F252B1D2
:100FCC0001FA02F3C2F1200120FA01F10CFA02FC41
:100FDC0041EA030894404FEA1C41B8FBF1F71FFAB1
:100FEC008CFE01FB178807FB0EF0230C43EA084329
:100FFC0098420AD91CEB030307F1FF3580F01E81E0
:10100C00984240F21B81023F63441B1AB3FBF1F080
:10101C0001FB103300FB0EFEA4B244EA0344A645C8
:10102C000AD91CEB040400F1FF3380F00981A645BA
:10103C0040F20681644402380021A4EB0E0440EA1D
:10104C0007401EB10023D440C6E90043BDE8F08739
:10105C008B4208D9002E00F0EE800021C6E9000575
:10106C000846BDE8F087B3FA83F100294AD1AB42B8
:10107C0002D3824200F2FC80841A65EB0303012048
:10108C009846002EE2D0C6E90048DFE702B9FFDE41
:10109C00B2FA82F2002A40F09180A1EB0C000121FF
:1010AC004FEA1C471FFA8CFEB0FBF7F307FB13004B
:1010BC00250C45EA00450EFB03F0A84208D91CEBB1
:1010CC00050503F1FF3802D2A84200F2CE80434658
:1010DC002D1AB5FBF7F007FB10550EFB00FEA4B262
:1010EC0044EA0544A64508D91CEB040400F1FF357D
:1010FC0002D2A64500F2B6802846A4EB0E0440EAC4
:10110C0003409EE7C1F120078B4022FA07FC4CEA12
:10111C00030C25FA07FA4FEA1C49BAFBF9F820FA36
:10112C0007F309FB18AA8D401FFA8CFE1D4300FA29
:10113C0001F308FB0EF02C0C44EA0A44A04202FA1C
:10114C0001F20BD91CEB040408F1FF3A80F0888003
:10115C00A04240F28580A8F102086444241AB4FB32
:10116C00F9F009FB104400FB0EFEADB245EA044455
:10117C00A64508D91CEB040400F1FF356CD2A6453A
:10118C006AD90238644440EA0840A0FB0295A4EBFB
:10119C000E04AC42C846AE4656D353D0002E69D08E
:1011AC00B3EB080264EB0E0422FA01F304FA07F71E
:1011BC001F43CC40C6E90074002147E70CFA02FC3F
:1011CC00C2F1200125FA01F34FEA1C4720FA01F184
:1011DC0095400D43B3FBF7F107FB11331FFA8CFE5F
:1011EC00280C40EA034001FB0EF3834204FA02F49C
:1011FC0008D91CEB000001F1FF382FD283422DD906
:10120C0002396044C01AB0FBF7F307FB1300ADB210
:10121C0045EA004503FB0EF0A84208D91CEB050576
:10122C0003F1FF3816D2A84214D9023B6544281AA0
:10123C0043EA014138E73146304607E72F46E4E6FA
:10124C001846F9E64B45A9D2B9EB020865EB0C0E32
:10125C000138A3E74346EAE7284694E74146D1E73D
:10126C00D0467BE76444023847E7023B65442FE7EE
:10127C00084606E73146E9E6704700BF80B500AF87
:10128C0002F068F902F0F2F9FCE7000080B483B0D8
:10129C0000AF7860054A7B6843F0BF6343F40033CA
:1012AC00D36000BF0C37BD4680BC704700ED00E03A
:1012BC0080B487B000AF786000237B6100233B6172
:1012CC000F23FB607B68DB78002B3AD0274BDB6865
:1012DC00DB431B0A03F007037B617B69C3F1040347
:1012EC003B61FA687B6922FA03F3FB607B685B78ED
:1012FC001A463B6902FA03F37B617B689B781A46BA
:10130C00FB6813407A6913437B617B691B017B612A
:10131C00174A7B681B787969C9B213440A4683F86B
:10132C0000237B681B7803F01F0311497A6812783D
:10133C005209D2B21046012202FA03F341F82030CE
:10134C000FE07B681B7803F01F0309497A68127859
:10135C005209D2B2104601229A4000F1200341F802
:10136C00232000BF1C37BD4680BC704700ED00E059
:10137C0000E100E080B489B000AF786039600023F0
:10138C00FB6100233B610023BB610023FB60002356
:10139C007B610023BB603B68DB7803F00F03FB61D0
:1013AC003B68DB7803F01003002B05D03B689B787F
:1013BC001A46FB691343FB613B681B88DBB2002BAD
:1013CC0044D07B681B687B610023BB6138E0012241
:1013DC00BB6902FA03F3FB603B681B881A46FB6887
:1013EC0013403B613A69FB689A4226D1BB699B006A
:1013FC00FB600F22FB6802FA03F3BB60BB68DB43A4
:10140C007A6913407B61FA69FB6802FA03F37A6923
:10141C0013437B613B68DB78282B05D10122BB6928
:10142C009A407B685A6108E03B68DB78482B04D112
:10143C000122BB699A407B681A61BB690133BB61AD
:10144C00BB69072BC3D97B687A691A603B681B8818
:10145C00FF2B46D97B685B687B610023BB613AE05C
:10146C00BB690833012202FA03F3FB603B681B885B
:10147C001A46FB6813403B613A69FB689A4227D1D4
:10148C00BB699B00FB600F22FB6802FA03F3BB6095
:10149C00BB68DB437A6913407B61FA69FB6802FA2B
:1014AC0003F37A6913437B613B68DB78282B05D106
:1014BC00BB69083301229A407B685A613B68DB7830
:1014CC00482B05D1BB69083301229A407B681A610D
:1014DC00BB690133BB61BB69072BC1D97B687A69D6
:1014EC005A6000BF2437BD4680BC704780B483B0BF
:1014FC0000AF78607B684FF6FF721A807B6802221F
:10150C009A707B680422DA7000BF0C37BD4680BC31
:10151C00704780B485B000AF78600B467B800023A9
:10152C00FB737B689A687B881340002B02D00123E5
:10153C00FB7301E00023FB73FB7B18461437BD469D
:10154C0080BC704780B483B000AF78607B689B68C8
:10155C009BB218460C37BD4680BC704780B485B032
:10156C0000AF78600B467B800023FB737B68DA68E6
:10157C007B881340002B02D00123FB7301E0002376
:10158C00FB73FB7B18461437BD4680BC704780B498
:10159C0083B000AF78607B68DB689BB218460C3771
:1015AC00BD4680BC704780B483B000AF78600B46FA
:1015BC007B807A887B681A6100BF0C37BD4680BC83
:1015CC00704780B483B000AF78600B467B801346C5
:1015DC007B707B78002B03D07A887B681A6102E0E1
:1015EC007A887B685A6100BF0C37BD4680BC704757
:1015FC0080B58AB000AF786039600023FB8400238B
:10160C007B840423BB84574BFB617B689B88FB84E6
:10161C00FB8C23F03F03FB8407F10803184600F012
:10162C00C7F83B69FB61FB694F4AA2FB03239B0C88
:10163C007B84FA8C7B8C1343FB847B68FA8C9A80BA
:10164C007B681B889BB223F001039AB27B681A80DB
:10165C000023FB843B681B68444A934215D83B68C3
:10166C001B685B00FA69B2FBF3F3BB84BB8C032BE6
:10167C0001D80423BB84FA8CBB8C1343FB847B8C76
:10168C0001339AB27B681A8440E03B68DB884BF6E6
:10169C00FF72934209D13B681A6813465B001344EE
:1016AC00FA69B2FBF3F3BB840EE03B681A6813468D
:1016BC009B0013449A001344FA69B2FBF3F3BB8406
:1016CC00BB8C43F48043BB84BB8CC3F30B03002B58
:1016DC0003D1BB8C43F00103BB84BA8CFB8C13434A
:1016EC009BB26FEA43436FEA5343FB847B8C4FF40A
:1016FC00967202FB03F31E4A82FB03129211DB1754
:10170C00D31A9BB201339AB27B681A847B68FA8C29
:10171C009A837B681B889BB243F001039AB27B6867
:10172C001A807B681B88FB84FB8C23F4816323F079
:10173C000203FB843B689A883B685B8913439AB22B
:10174C00FB8C1343FB847B68FA8C1A803B689A8968
:10175C003B681B8913439AB27B681A8100BF2837F8
:10176C00BD4680BD00127A0083DE1B43A0860100BB
:10177C00D34D621080B483B000AF78607B6841F2C7
:10178C0088321A607B6800229A807B684BF6FF7265
:10179C00DA807B6800221A817B6800225A817B6880
:1017AC004FF480429A8100BF0C37BD4680BC704715
:1017BC0080B487B000AF786000237B6100233B616D
:1017CC000023FB600023BB604F4B5B6803F00C03F2
:1017DC007B617B69082B11D07B69082B3AD87B691C
:1017EC00002B03D07B69042B04D033E07B68474A81
:1017FC001A6033E07B68454A1A602FE0424B5B6805
:10180C0003F470133B61404B5B6803F48033FB6063
:10181C003B699B0C02333B61FB68002B06D13B6997
:10182C003B4A03FB02F27B681A6017E0364B5B689D
:10183C0003F40033002B06D03B69354A03FB02F25C
:10184C007B681A600AE03B69304A03FB02F27B6852
:10185C001A6003E07B682D4A1A6000BF2A4B5B6854
:10186C0003F0F0037B617B691B097B61294A7B696F
:10187C0013441B78DBB2BB607B681A68BB68DA4028
:10188C007B685A60204B5B6803F4E0637B617B6987
:10189C001B0A7B611F4A7B6913441B78DBB2BB605C
:1018AC007B685A68BB68DA407B689A60164B5B6849
:1018BC0003F460537B617B69DB0A7B61154A7B69AE
:1018CC0013441B78DBB2BB607B685A68BB68DA4098
:1018DC007B68DA600C4B5B6803F440437B617B698B
:1018EC009B0B7B610C4A7B6913441B78DBB2BB609E
:1018FC007B68DA68BB68B2FBF3F27B681A6100BFE5
:10190C001C37BD4680BC70470010024000127A00A4
:10191C0000093D00000000201000002080B483B0BE
:10192C0000AF78600B46FB70FB78002B06D0094BA0
:10193C009A6908497B6813438B6106E0054B9A69E9
:10194C007B68DB43034913408B6100BF0C37BD46FA
:10195C0080BC70470010024080B483B000AF786048
:10196C000B46FB70FB78002B06D0094BDA69084953
:10197C007B681343CB6106E0054BDA697B68DB437C
:10198C0003491340CB6100BF0C37BD4680BC704788
:10199C000010024080B483B000AF78600B46FB703F
:1019AC00FB78002B06D0094B1A6908497B68134356
:1019BC000B6106E0054B1A697B68DB430349134056
:1019CC000B6100BF0C37BD4680BC70470010024055
:1019DC0080B485B000AF786039600023FB817B68F0
:1019EC001B88FB817B682E4A934213D07B682D4A5F
:1019FC0093420FD07B68B3F1804F0BD07B682A4A9F
:101A0C00934207D07B68294A934203D07B68284ACB
:101A1C00934208D1FB8923F07003FB813B685A8801
:101A2C00FB891343FB817B68224A93420CD07B6871
:101A3C00214A934208D0FB8923F44073FB813B6815
:101A4C00DA88FB891343FB817B68FA891A803B682F
:101A5C009A887B689A853B681A887B681A857B68AC
:101A6C000F4A93420FD07B680E4A93420BD07B688F
:101A7C00124A934207D07B68114A934203D07B6889
:101A8C00104A934204D13B681B7A9AB27B681A863F
:101A9C007B6801229A8200BF1437BD4680BC704718
:101AAC00002C0140003401400004004000080040BC
:101ABC00000C0040001000400014004000400140A9
:101ACC00004401400048014080B483B000AF78600E
:101ADC000B46FB70FB78002B08D07B681B889BB2F5
:101AEC0043F001039AB27B681A8007E07B681B887D
:101AFC009BB223F001039AB27B681A8000BF0C37AB
:101B0C00BD4680BC704780B483B000AF78600B4694
:101B1C007B807B88DB439AB27B681A8200BF0C37D0
:101B2C00BD4680BC7047000080B58CB000AF7860BB
:101B3C0039600023FB620023BB6200237B6200231D
:101B4C003B620023FB617B68FB617B681B8A9BB259
:101B5C00FB62FA6A4CF6FF731340FB623B68DB884E
:101B6C001A46FB6A1343FB62FB6A9AB27B681A82C1
:101B7C007B689B899BB2FB62FA6A4EF6F3131340A7
:101B8C00FB623B689A883B681B8913439AB23B689B
:101B9C005B8913439BB21A46FB6A1343FB62FB6AD5
:101BAC009AB27B689A817B689B8A9BB2FB62FA6AC9
:101BBC004FF6FF431340FB623B689B891A46FB6A56
:101BCC001343FB62FB6A9AB27B689A8207F10803A3
:101BDC001846FFF7EDFDFB692E4A934202D17B6953
:101BEC00BB6201E03B69BB627B689B899BB21BB209
:101BFC00002B0CDABA6A13469B0013449A001A4461
:101C0C003B681B685B00B2FBF3F37B620BE0BA6AC8
:101C1C0013469B0013449A001A443B681B689B00B4
:101C2C00B2FBF3F37B627B6A1B4AA2FB03235B09C7
:101C3C001B01FB62FB6A1B09642202FB03F37A6A39
:101C4C00D31A3B627B689B899BB21BB2002B0CDACC
:101C5C003B6ADB003233104AA2FB03235B0903F01F
:101C6C000703FA6A1343FB620BE03B6A1B01323336
:101C7C00094AA2FB03235B0903F00F03FA6A13431F
:101C8C00FB62FB6A9AB27B681A8100BF3037BD4693
:101C9C0080BD00BF003801401F85EB5180B483B07C
:101CAC0000AF78607B684FF416521A607B68002294
:101CBC009A807B680022DA807B6800221A817B681C
:101CCC000C225A817B6800229A8100BF0C37BD46DA
:101CDC0080BC704780B483B000AF78600B46FB705B
:101CEC00FB78002B08D07B689B899BB243F4005394
:101CFC009AB27B689A8107E07B689B899BB223F43C
:101D0C0000539AB27B689A8100BF0C37BD4680BCE9
:101D1C00704780B487B000AF78600B467B80134669
:101D2C007B7000233B610023FB600023BB6000231E
:101D3C007B617B687B617B88DBB25B09DBB23B61DF
:101D4C007B8803F01F03FB600122FB6802FA03F39C
:101D5C00BB603B69012B03D17B690C337B6109E0D0
:101D6C003B69022B03D17B6910337B6102E07B69F9
:101D7C0014337B617B78002B06D07B6919687B69F7
:101D8C00BA680A431A6006E07B691968BB68DA43D3
:101D9C007B690A401A6000BF1C37BD4680BC704787
:101DAC0080B400AF00BFBD4680BC704780B400AFAC
:101DBC00FEE780B400AFFEE780B400AFFEE780B46E
:101DCC0000AFFEE780B400AF00BFBD4680BC7047DB
:101DDC0080B400AF00BFBD4680BC704780B400AF7C
:101DEC0000BFBD4680BC704780B500AF0C4B1B6874
:101DFC00002B04D00A4B1B68013B094A1360094BAA
:101E0C001B68002B04D0074B1B68013B054A136071
:101E1C00054B1B78002B01D001F03CFC00BF80BDB2
:101E2C002C020020A40100207402002080B500AF19
:101E3C00154B1B68144A43F001031360124B5A688C
:101E4C001149124B13404B600F4B1B680E4A23F089
:101E5C00847323F4803313600B4B1B680A4A23F4FE
:101E6C0080231360084B5B68074A23F4FE0353601E
:101E7C00054B4FF41F029A6000F00CF8044B4FF026
:101E8C0000629A6000BF80BD001002400000FFF8A5
:101E9C0000ED00E080B500AF00F002F800BF80BD9F
:101EAC0080B483B000AF00237B6000233B603A4BCF
:101EBC001B68394A43F480331360374B1B6803F4B7
:101ECC0000333B607B6801337B603B68002B03D1A4
:101EDC007B68B3F5A06FF0D12F4B1B6803F4003374
:101EEC00002B02D001233B6001E000233B603B68E8
:101EFC00012B4BD1294B1B68284A43F0100313606C
:101F0C00264B1B68254A23F007031360234B1B68E1
:101F1C00224A43F0020313601F4B1F4A5B68536055
:101F2C001D4B1D4A5B6853601B4B5B681A4A43F49C
:101F3C0080635360184B5B68174A23F47C1353601F
:101F4C00154B5B68144A43F4E8135360124B1B683F
:101F5C00114A43F08073136000BF0F4B1B6803F0F2
:101F6C000073002BF9D00C4B5B680B4A23F0030376
:101F7C005360094B5B68084A43F00203536000BF8F
:101F8C00054B5B6803F00C03082BF9D100BF0C3731
:101F9C00BD4680BC704700BF0010024000200240CC
:101FAC0080B586B000AFF860B9607A603B603A6883
:101FBC00BB689A4202D34FF0FF3311E0FA683B68DA
:101FCC001344BA687968184604F045FE78617B6959
:101FDC00002B02D14FF0FF3302E07A69FB68D31A71
:101FEC0018461837BD4680BD80B588B000AFF86084
:101FFC00B9607A603B600023FB610023BB61002366
:10200C00FB750023BB7500237B752BE0FB697A689D
:10201C00B968F868FFF7C4FFF861FB69B3F1FF3FDB
:10202C0020D0FB7D002B0DD0FB69D9B2BB69DAB295
:10203C00FB7D03F10053013BDB00386803448A1A33
:10204C00D2B21A71FA69FB7DDB0039680B44F9686E
:10205C000A441A60FB69BB61FB690133FB61FB7DC0
:10206C000133FB75FB69B3F1FF3FCFD1FB7D002B37
:10207C0032D0FB7D03F10053013BDB003A68134483
:10208C0000221A71FB7D03F10053013BDB003A681F
:10209C0013441A68FB68D31ABB75BB7D2022B96840
:1020AC00F868FFF77DFF03467B757B7D01332022AB
:1020BC00B968F868FFF774FF03467B757A7DBB7DC2
:1020CC00D31ABB60FB7D03F10053013BDB003A6884
:1020DC001344BA68D2B21A71FB7D18462037BD463C
:1020EC0080BD80B586B000AFF860B9607A603B60A7
:1020FC0000237B6100233B613B6804337A68B96839
:10210C00F868FFF771FF0346DAB23B685A703B6818
:10211C0000225A633B68002283F838203B685B78C6
:10212C00002B15D03B685B78013B3A68DB0013440D
:10213C005A68FB68D31A7B613B685B78013B3A6851
:10214C00DB0013441B7A1A467B69134401337B6111
:10215C007B692022B968F868FFF722FF03463B61D0
:10216C003B69B3F1FF3F0DD03B69DAB27B69DBB25F
:10217C00D31ADAB23B6883F83820FA687B691A44C0
:10218C003B685A633B685B7818461837BD4680BD80
:10219C0080B58AB000AF07F1080383E803007A60CA
:1021AC0000233B620023FB610023BB61002387F803
:1021BC0027300023FB757B6800221A607B680022A5
:1021CC001A717B6800229A607B6800221A73B868C7
:1021DC003B7B194600232D22FFF7E2FE3862B868DC
:1021EC003B7B194600232022FFF7DAFEF8613B6A9D
:1021FC00B3F1FF3F28D0FB69B3F1FF3F24D0FB695B
:10220C00DAB23B6ADBB2D31A87F82730BA683B6A7A
:10221C001A447B681A607B6897F827201A713B7BFD
:10222C001A46FB6993420FDA3A7BFB69DBB2D31A8D
:10223C00DBB2013BFB75BA68FB6901331A447B685E
:10224C009A607B68FA7D1A7397F8273018462837FE
:10225C00BD4680BD80B584B000AF7860084611469D
:10226C001A4603467B800B467B7013463B7007F186
:10227C000C031846FFF73AF97B78FB733B78BB737A
:10228C007B88012202FA03F39BB2BB8107F10C039A
:10229C0019467868FFF76EF800BF1037BD4680BD51
:1022AC0090B587B000AF07F1080484E8030011462D
:1022BC001A460B46FB711346BB7107F11403184603
:1022CC00FFF714F9FB79FB75BB79BB75BB891A4613
:1022DC00012393409BB2BB82BB6807F114021146E9
:1022EC001846FFF747F800BF1C37BD4690BD80B4B9
:1022FC0089B000AF07F1080383E803001346FB71B4
:10230C000023FB610023BB610023FB82BB89072BED
:10231C0001D8BB8902E0BB89083B9BB2FB82FB8ADC
:10232C009B00FB82FB7903F00F03FB61BB89072B3E
:10233C0013D8BB681B68FA8A0F2101FA02F2D24348
:10234C001340BB61FB8AFA6902FA03F3BA691343BF
:10235C00BB61BB68BA691A6012E0BB685B68FA8A39
:10236C000F2101FA02F2D2431340BB61FB8AFA69D6
:10237C0002FA03F3BA691343BB61BB68BA695A60CA
:10238C0000BF2437BD4680BC704780B483B000AF1B
:10239C003B4683E803003B681A69BB881946012356
:1023AC008B409BB219463B680A431A6100BF0C373D
:1023BC00BD4680BC704780B483B000AF3B4683E819
:1023CC0003003B685A69BB88194601238B409BB2BA
:1023DC0019463B680A435A6100BF0C37BD4680BCA6
:1023EC00704780B483B000AF3B4683E803003B6882
:1023FC00DB68BA88114601228A401340002B0AD0B0
:10240C003B685A69BB88194601238B4019463B68C7
:10241C000A435A6109E03B681A69BB8819460123D3
:10242C008B4019463B680A431A6100BF0C37BD4606
:10243C0080BC704780B582B000AF3B4683E8030098
:10244C0008223B4693E80300FFF751FF3B681969EC
:10245C00BB881A46012303FA02F23B680A431A614D
:10246C0000BF0837BD4680BD80B483B000AF3B468B
:10247C0083E803003B689B68BA88114601228A40B6
:10248C001340002B01D0012300E0002318460C3729
:10249C00BD4680BC704780B588B000AFF860B960AD
:1024AC007A603B60FB68BB617B687B61BB68002B1F
:1024BC0002D03B68002B01D1002332E0BA683B68A4
:1024CC009A4201D200232CE03B68012B08D17B6996
:1024DC001B78BA681946F86804F0BDFB034620E087
:1024EC00BA683B68D31ABA6913443B61BB69FB6198
:1024FC0012E0FB691A787B691B789A4209D13A6819
:10250C007969F86904F0B5FB0346002B01D1FB692E
:10251C0007E0FB690133FB61FA693B699A42E8D930
:10252C00002318462037BD4680BD0000B0B58CB0E6
:10253C0000AFF860B9601346FB7100237B614FF06C
:10254C000001B868FEF7CEFC0346002B05D0012332
:10255C003B76BB6883F00043BB604FF00002334B0B
:10256C00C7E90A23002387F827300FE04FF0000259
:10257C002F4BD7E90A01FEF7D1F802460B46C7E903
:10258C000A2397F82730013387F8273097F827204C
:10259C00FB799A42EAD3B868FDF73EFFD7E90A23E4
:1025AC00FDF7DCFD02460B4610461946FEF79EF978
:1025BC000346BB60B868FEF7BDFC0346FB61B86818
:1025CC00FDF72AFF04460D46F869FDF703FF0246A6
:1025DC000B4620462946FDF7BFFD02460B4610462A
:1025EC001946FEF783F903463B6205E01149386A48
:1025FC00FEF7DAFA03463B62FB795A1EFA71002B9E
:10260C00F4D1FB699BB2FB82386AFEF793FC03465C
:10261C00DBB23B75FB681A4607F1140393E8030021
:10262C0082E80300F8683037BD46B0BD0000E03FDB
:10263C00000024400000204180B582B000AF002390
:10264C00FB710BE0FB790C490222DB000B4493E895
:10265C000300FFF74CFEFB790133FB71FB79072B71
:10266C00F0D9064B022293E80300FFF740FE00BFAF
:10267C000837BD4680BD00BF280000202000002088
:10268C0080B582B000AF0023FB710BE0FB790949E8
:10269C000222DB000B4493E80300FFF728FEFB79D2
:1026AC000133FB71FB79052BF0D900BF00BF083754
:1026BC00BD4680BD6800002080B584B000AF0346E5
:1026CC00FB711C4B93E80300FFF75FFE0023FB73C9
:1026DC001BE0FA79FB7B42FA03F303F00103002BB6
:1026EC0008D0FB7B144ADB00134493E80300FFF78C
:1026FC004CFE07E0FB7B104ADB00134493E803001D
:10270C00FFF759FEFB7B0133FB73FB7B072BE0D9F7
:10271C00084B93E80300FFF74EFE00BF00BF00BF5D
:10272C0000BF044B93E80300FFF72FFE00BF1037E8
:10273C00BD4680BD200000202800002080B584B05C
:10274C0000AF0346FB710023FB731BE0FA79FB7BA4
:10275C0042FA03F303F00103002B08D0FB7B0D4A74
:10276C00DB00134493E80300FFF70FFE07E0FB7B4D
:10277C00084ADB00134493E80300FFF71CFEFB7BC5
:10278C000133FB73FB7B052BE0D900BF00BF103777
:10279C00BD4680BD6800002080B584B000AF3B1DF5
:1027AC001846FEF7A3FE0223BB714FF40053BB8007
:1027BC003B1D19463A48FEF7DDFD4FF400513848F1
:1027CC00FEF7F1FE0023FB730023BB730023BB81D8
:1027DC0000237B814FF400513148FEF79AFE0346EB
:1027EC00FB734FF400512E48FEF7B8FE0346BB7343
:1027FC002B48FEF7A7FE0346BB812948FEF7C7FE10
:10280C0003467B81274B1868264B9988022310229C
:10281C00FFF720FD234B1B68224A928811460122A8
:10282C008A4092B211461846FEF7BDFE1D4B1B683E
:10283C001C4A9288114601228A4091B20022184605
:10284C00FEF7BFFE17490223102203C9FFF728FD2C
:10285C00144B1B68134A9288114601228A4092B28B
:10286C0011461846FEF79FFE0E4B1B680D4A9288C8
:10287C00114601228A4091B200221846FEF7A1FEB1
:10288C00084B022293E80300FFF731FD054B93E858
:10289C000300FFF790FD00BF1037BD4680BD00BFA1
:1028AC00001001401800002080B500AF124B02222E
:1028BC0093E80300FFF71BFD0F4B93E80300FFF7B2
:1028CC0064FD0E4B022293E80300FFF710FD0B4B47
:1028DC0093E80300FFF759FD094B022293E803002C
:1028EC00FFF705FD064B93E80300FFF74EFD00F0E4
:1028FC00B5FA00BF80BD00BF20000020E000002022
:10290C00E800002080B483B000AF7860064A7B6892
:10291C00136000BF044B1B68002BFBD100BF00BF32
:10292C000C37BD4680BC70472C02002080B483B0AD
:10293C0000AF78607B684FF47A7202FB03F3064AAF
:10294C00136000BF044B1B68002BFBD100BF00BF02
:10295C000C37BD4680BC70472C02002080B582B07D
:10296C0000AF0023FB710BE0FB7909490222DB006D
:10297C000B4493E80300FFF7BAFCFB790133FB71BE
:10298C00FB79072BF0D900BF00BF0837BD4680BDCF
:10299C009800002080B584B000AF0346FB71002383
:1029AC00FB731BE0FA79FB7B42FA03F303F00103A0
:1029BC00002B08D0FB7B0D4ADB00134493E803008B
:1029CC00FFF7E3FC07E0FB7B084ADB00134493E8CA
:1029DC000300FFF7F0FCFB7B0133FB73FB7B072B46
:1029EC00E0D900BF00BF1037BD4680BD9800002065
:1029FC0080B500AF034B022293E80300FFF777FC8E
:102A0C0000BF80BDD800002080B500AF034B93E819
:102A1C000300FFF7D0FC00BF80BD00BFD800002032
:102A2C0080B500AF034B93E80300FFF7AEFC00BF8B
:102A3C0080BD00BFD800002080B500AF034B022240
:102A4C0093E80300FFF753FC00BF80BDE0000020BB
:102A5C0080B500AF034B93E80300FFF7ACFC00BF5D
:102A6C0080BD00BFE000002080B500AF034B93E8B1
:102A7C000300FFF78AFC00BF80BD00BFE000002010
:102A8C0080B582B000AF0346FB71FFF7BDFFFB7949
:102A9C00184600F02FF86420FFF734FF00BF08370A
:102AAC00BD4680BD80B582B000AF0346FB71FFF719
:102ABC00B7FFFB79184600F01DF86420FFF722FFE2
:102ACC000A4B1B780133DAB2084B1A70074B1B7890
:102ADC00074A1278B3FBF2F101FB02F29B1ADAB24D
:102AEC00024B1A7000BF0837BD4680BD3C02002067
:102AFC003A02002080B582B000AF0346FB71FFF7AD
:102B0C002DFFFB791846FFF745FFFFF7ADFF0120BE
:102B1C00FFF7F8FE00BF00BF00BF00BFFFF798FF34
:102B2C0000BF0837BD4680BD80B500AF0120FFF760
:102B3C00A7FF0320FFF7FAFE00BF80BD80B500AFF2
:102B4C000A4B00221A70094B00225A70084B0222C1
:102B5C001A70084B10221A7000F00EF8FFF7E4FF01
:102B6C000021002000F020F800BF80BD3C020020B6
:102B7C00390200203A02002080B500AFFFF738FF81
:102B8C00FFF75AFF3C20FFF77BFF3C20FFF778FF55
:102B9C000C20FFF775FF0620FFF772FF3C20FFF7B4
:102BAC006FFF00BF80BD000080B584B000AF03464E
:102BBC000A46FB711346BB710023FB731E4B1A783C
:102BCC00BB79B3FBF2F101FB02F29B1ADAB21B4B9D
:102BDC005A701A4B5B78032B16D801A252F823F0CB
:102BEC00FD2B0008032C0008092C00080F2C0008F2
:102BFC008023FB7308E0C023FB7305E09423FB7375
:102C0C0002E0D423FB7300BF0D4B1A78FB79B3FBA6
:102C1C00F2F101FB02F29B1ADAB2084B1A70074B65
:102C2C001A78FB7B1344FB73FB7B1846FFF728FFDA
:102C3C0000BF1037BD4680BD390200203C02002089
:102C4C003A02002080B582B000AF0346FB71FB79DD
:102C5C000D2B19D00D2B1EDC092B0AD00A2B1AD1E7
:102C6C00124B5B780133DBB219460020FFF79CFF57
:102C7C0016E00E4B1B780233DBB20C4A527811462D
:102C8C001846FFF791FF0BE0084B5B7819460020C4
:102C9C00FFF78AFF04E0FB791846FFF703FF00BF3C
:102CAC00012318460837BD4680BD00BF3C020020FA
:102CBC0080B584B000AF786039600023FB600CE015
:102CCC007B685A1C7A601B781846FFF7BBFF0346DB
:102CDC00002B08D0FB680133FB603B685A1E3A603E
:102CEC00002BEDD100E000BFFB6818461037BD4645
:102CFC0080BD80B582B000AF78607B68002B01D1BD
:102D0C00002308E07868FDF71BFA0346194678683B
:102D1C00FFF7CEFF034618460837BD4680BD2DE9A8
:102D2C00B04396B000AFC7E902011346FB7107F13F
:102D3C00100340337B657B6D00221A70FB79012BED
:102D4C0001D80A23FB71FB7900221C461546D7E9F2
:102D5C00020122462B46FEF70DF9134687F8533035
:102D6C00FB7900229846914642464B46D7E9020130
:102D7C00FEF700F902460B46C7E9022397F85330D9
:102D8C00092B04D897F853303033DBB203E097F8B3
:102D9C0053303733DBB27A6D013A7A657A6D137042
:102DAC00D7E902231343CED1786DFFF7A2FF034678
:102DBC0018465837BD46BDE8B08380B582B000AF29
:102DCC0078607868FFF795FF034618460837BD46CC
:102DDC0080BD80B582B000AF03463A60FB710B46F4
:102DEC00BB71BA79FB7911461846FFF7DDFE3868DE
:102DFC00FFF7E3FF034618460837BD4680BDB0B564
:102E0C0082B000AF03463960FB71FB7900221C468F
:102E1C0015463A682046294600F005F80346184640
:102E2C000837BD46B0BD80B584B000AFC7E902011C
:102E3C007A607B68002B05D13B7A1846FFF702FFBE
:102E4C00034607E07B68DBB21A46D7E90201FFF7BD
:102E5C0066FF034618461037BD4680BD80B582B06C
:102E6C0000AF0023FB710AE0FB79094ADB00134435
:102E7C0093E80300FFF7DEFAFB790133FB71FB7972
:102E8C00072BF1D900BF00BF0837BD4680BD00BF7E
:102E9C00F000002080B582B000AFFF23FB7100234F
:102EAC00BB7119E0BB79104ADB00134493E80300B3
:102EBC00FFF7DAFA0346002B0BD1BB79012202FA99
:102ECC0003F35BB2DB435AB297F9073013405BB2A2
:102EDC00FB71BB790133BB71BB79072BE2D9FB7951
:102EEC0018460837BD4680BDF000002080B582B082
:102EFC0000AFFF23FB71FFF7B1FF134B022293E8E6
:102F0C000300FFF7F4F9104B93E80300FFF73DFAC9
:102F1C000D4B93E80300FFF74EFA0A20FFF7F2FC83
:102F2C0000BF00BF00BF00BF00BF00BFFFF7B2FF74
:102F3C000346FB71044B93E80300FFF726FAFB7979
:102F4C0018460837BD4680BDE800002080B500AFAC
:102F5C00114B1B78F42B1AD0F42B1BDCEC2B13D05D
:102F6C00EC2B17DCDC2B0CD0DC2B13DC7C2B02D0F9
:102F7C00BC2B03D00EE000F05DF80BE000F07CF809
:102F8C0008E000F09BF805E000F0BAF802E000F071
:102F9C00D9F800BF00BF80BD4002002080B582B0D0
:102FAC0000AF0346FB710A4AFB791370FFF756FF1B
:102FBC00084B022293E80300FFF799F9054B93E8BD
:102FCC000300FFF7E2F900BF0837BD4680BD00BF24
:102FDC0041020020E800002080B500AFFFF764FC40
:102FEC00FFF784FF03461A46044B1B781340DAB2F2
:102FFC00034B1A70024B1B78184680BD410200200F
:10300C004002002080B500AF074B1A78074B1B78A5
:10301C009A4207D0064B05221A70054B00225A70B3
:10302C00FFF794FF00BF80BD40020020410200204A
:10303C007802002080B500AF0D4A01210020FFF777
:10304C00C8FE0C4B1B78C3F3C013DBB2DB43DBB203
:10305C0003F00103D9B2074A137861F3C713137055
:10306C0000214FF08040FEF72FFD00BF80BD00BF58
:10307C00B86E00083402002080B500AF0D4A012163
:10308C000020FFF7A6FE0C4B1B78C3F38013DBB2BA
:10309C00DB43DBB203F00103D9B2074A137861F3C7
:1030AC008613137001214FF08040FEF70DFD00BF19
:1030BC0080BD00BFCC6E00083402002080B500AF8C
:1030CC000C4A01210020FFF784FE0B4B1B78C3F345
:1030DC004013DBB2DB43DBB203F00103D9B2064A87
:1030EC00137861F34513137000210448FEF7ECFCD0
:1030FC0000BF80BDE06E00083402002000040040D8
:10310C0080B500AF0C4A01210020FFF762FE0B4B8B
:10311C001B78C3F30013DBB2DB43DBB203F0010318
:10312C00D9B2064A137861F30413137001210448D1
:10313C00FEF7CAFC00BF80BDF46E0008340200200C
:10314C000004004080B500AF0A4A01210020FFF7BF
:10315C0040FE094B1B78C3F3C003DBB2DB43DBB28D
:10316C0003F00103D9B2044A137861F3C30313705B
:10317C0000BF80BD086F00083402002080B584B009
:10318C0000AF00233B603B1D00221A605A609A601E
:10319C001D4B1B78DBB2002B02D0012B09D02FE08A
:1031AC0001F01EFC0346002B29D0174B01221A708C
:1031BC0025E01649164801F0D7FC164B1B78DBB2FC
:1031CC0018463B460A22194603F05CFE3B4619465C
:1031DC000F4801F0DCFC10490D4801F0C5FC0F490B
:1031EC000B4801F0D4FC0A4800F04EFB01F06EFBDA
:1031FC000B4B00221A60044B00221A7000E000BF37
:10320C0000BF1037BD4680BD7A020020306F000829
:10321C0000380140C0020020406F000880020020EE
:10322C007C02002080B500AF474B1B78042B00F2CA
:10323C00888001A252F823F0593200087D32000830
:10324C0007330008C1320008F93200083F4B1A68F6
:10325C003F4B1B689A426FD33E4B1B78002B03D01D
:10326C00394B03221A7067E0374B01221A7063E066
:10327C0020223949394803F01FFA364B5B78354A1E
:10328C0092781946364801F0DBFD03461A46354B59
:10329C001A70304B00221A702B4B02221A70314BD1
:1032AC001B78002B4AD12B4B01221A70264B032280
:1032BC001A7043E0274B5B791946294802F0B4FB9E
:1032CC0003461A46274B1A701F4B02221A70254BC5
:1032DC001B78002B34D11F4B5B791A4620492248AE
:1032EC0002F0CAFB184B04221A7029E0174B00227B
:1032FC001A60154B00221A7023E01C491A4801F081
:10330C0033FC184B1B780A221946174801F05AFC5B
:10331C001749154801F028FC134803F03FFB1048EF
:10332C0002F004FE0B4B00221A70084B00221A60AC
:10333C00054B00221A7004E000BF02E000BF00E061
:10334C0000BF00BF80BD00BF6402002068020020E7
:10335C00300100209C010020801A0600005400401F
:10336C00440100206C02002000380140486F000826
:10337C00546F000880B500AF1E4B1B78042B36D859
:10338C0001A252F823F000BFA9330008FB33000858
:10339C00BD330008D7330008E3330008164B1B6815
:1033AC0047F22F5293421FD9124B02221A701BE084
:1033BC00124B1B6840F6AB52934217D90F4B0022AD
:1033CC001A600C4B03221A7010E0FFF705FE094B34
:1033DC0004221A700BE0FFF715FE074B00221A604F
:1033EC00044B00221A7002E000BF00E000BF00BFD7
:1033FC0080BD00BF42020020440200204802002091
:10340C0080B500AF0D4B1B78002B15D00B4B002259
:10341C001A700B4A00210020FFF7DBFC094A01213E
:10342C000020FFF7D6FC084B1B780A211846FFF743
:10343C00E6FC0648FFF7C1FC00BF80BD300200204F
:10344C00586F0008646F000838020020706F000885
:10345C0080B500AF144B1B78002B02D0012B0CD085
:10346C001FE0124B1B68124A934219D90E4B0122D2
:10347C001A700E4B00221A6012E000F081F90D4B0D
:10348C0093E80300FEF7ADFF0B4B1B6801330A4AB0
:10349C001360064B00221A60034B00221A7000E0E6
:1034AC0000BF00BF80BD00BF5C0200206002002096
:1034BC00A0860100180000207002002080B483B0A8
:1034CC0000AF03463960FB7197F90730002B0BDA1C
:1034DC003B68DAB20C49FB7903F00F03043B120191
:1034EC00D2B20B441A7609E03B68DAB2074997F975
:1034FC0007301201D2B20B4483F8002300BF0C3703
:10350C00BD4680BC704700BF00ED00E000E100E06C
:10351C0080B582B000AF78607B68B3F1807F01D357
:10352C00012311E07B6823F07F43094A013B536080
:10353C000F214FF0FF30FFF7C1FF054B00229A60BF
:10354C00034B07221A60002318460837BD4680BD7E
:10355C0010E000E080B500AF4FF4E060FDF796FEA0
:10356C00344B1B685B09344AA2FB0323DB09184666
:10357C00FFF7CEFF0346002B00D0FEE72F4B0022B7
:10358C001A602F4B00221A702E4B05221A702D4BED
:10359C0000225A7001210420FEF7C0F901210820F5
:1035AC00FEF7BCF901211020FEF7B8F9012120200B
:1035BC00FEF7B4F901210120FEF7B0F9224B0022ED
:1035CC001A60FFF7E9F8FFF737F8FFF759F81F4BC8
:1035DC00FF221A701E4B00221A701C4B1B781846C7
:1035EC00FFF76AF81A4B1B781846FFF7A7F8194B28
:1035FC0000221A70FC20FFF7D1FCFFF79FFAFFF7AF
:10360C00BBFA154A00210020FFF7E3FB134B002205
:10361C001A7000F0C1F8124801F09AF920221149F1
:10362C00114803F049F800F06DF8054B01221A70AF
:10363C0000BF80BD14000020C55A7C0A7002002017
:10364C0074020020780200202C020020340200209A
:10365C003802002031020020786F00083002002070
:10366C0000380140801A06000054004080B500AFBD
:10367C00FFF780FE064B9B79002B01D0FFF7D2FDA4
:10368C00FFF77CFDFFF7BCFEFFF7E2FE00BF80BD3D
:10369C009C01002080B400AF134B1B78002B04D18D
:1036AC00124B1B680133114A1360114B1B78002B12
:1036BC0004D1104B1B6801330E4A13600A4B1B7864
:1036CC00022B04D10C4B1B6801330B4A13600B4BC0
:1036DC001B78002B04D10A4B1B680133084A13607A
:1036EC0000BFBD4680BC704742020020440200204F
:1036FC006402002068020020480200205C020020C6
:10370C006002002080B400AF124B00221A70124BE2
:10371C0000221A60114B00221A60114B00221A7001
:10372C00104B00221A60104B00221A700F4B002213
:10373C001A600F4B00221A700E4B00221A600E4BAF
:10374C0000221A700D4B00221A6000BFBD4680BCCF
:10375C00704700BF420200204402002048020020B3
:10376C0064020020680200204C020020500200205D
:10377C0054020020580200205C020020600200204D
:10378C0080B500AF034B1B781846FEF795FF00BFC2
:10379C0080BD00BF3402002080B584B000AF1D4B4B
:1037AC00DB691C4A43F00203D3611D233B730023E6
:1037BC007B730B23BB730123FB7307F10C031846BC
:1037CC00FDF776FD144B1B68144AA2FB03235B0B1D
:1037DC009BB2013B9BB23B8042F21073BB80002337
:1037EC007B803B4619460E48FEF7F2F80C4B9B8942
:1037FC009BB20B4A43F001039BB29381084B1B888D
:10380C009BB2074A43F001039BB2138000BF1037F1
:10381C00BD4680BD00100240140000205917B7D1DE
:10382C000004004080B500AF01214FF08040FEF74E
:10383C006AF900BF80BD000080B582B000AF0023E4
:10384C00FB8001210D48FEF75EF90D4B1B783E2BDA
:10385C0004D80B4B1B780133DBB200E00023084A81
:10386C001370074B1B781846FEF768FF054B0122B7
:10387C001A7000BF0837BD4680BD00BF0004004071
:10388C00380200203002002080B598B002AF78607A
:10389C00002387F85730002387F856300023BB628B
:1038AC0007F12C0300221A605A609A60DA601A61E0
:1038BC005A619A610023BB6107F11C0300221A6054
:1038CC005A609A600023BB6007F10C0300221A6057
:1038DC005A609A60554B1B78DBB2194600232322A1
:1038EC005348FEF75DFB3865504B1B78DBB219462D
:1038FC00002320224E48FEF753FBF8644B4B1B78F9
:10390C00DBB2194600233B224948FEF749FBB86459
:10391C003B6DB3F1FF3F4DD0FB6CB3F1FF3F49D092
:10392C00BB6CB3F1FF3F45D0FB6CDAB23B6DDBB245
:10393C00D31ADBB2013B87F85730BB6CDAB2FB6CA5
:10394C00DBB2D31ADBB2013B87F8563097F856300E
:10395C00002B04D097F85630013BDBB200E000237B
:10396C0087F856303B6D0133314A991897F8572038
:10397C0007F11803184603F08CF9FB6C01332C4A41
:10398C00991897F8562007F12803184603F081F987
:10399C0097F8572097F8563007F1280007F11801CF
:1039AC0000930346786800F04FF82249786801F0DC
:1039BC00EEF837E02049786801F0E9F81F4978689B
:1039CC0001F0D2F83B6D07F108010A22184603F00A
:1039DC0059FA07F108031946786801F0D8F8184924
:1039EC00786801F0C1F8FB6C07F108010A2218464F
:1039FC0003F048FA07F108031946786801F0C7F894
:103A0C001049786801F0B0F8BB6C07F108010A2284
:103A1C00184603F037FA07F108031946786801F0E5
:103A2C00B6F800BF00BF5837BD4680BDC0020020AD
:103A3C0080020020D46F0008D86F0008EC6F0008DB
:103A4C00F86F00080470000880B584B000AFF8600F
:103A5C00B9607A603B605F49B86803F031F903469E
:103A6C00002B03D1F86800F0D5F8AFE05A49B868DC
:103A7C0003F026F90346002B03D1F86800F0DEF8BA
:103A8C00A4E05649B86803F01BF90346002B03D198
:103A9C00F86800F0E7F899E05149B86803F010F9BC
:103AAC000346002B03D1F86800F048F98EE04D492D
:103ABC00B86803F005F90346002B05D1BA693968DB
:103ACC00F86800F087F981E04749B86803F0F8F826
:103ADC000346002B05D1BA693968F86800F04AFA38
:103AEC0074E04249B86803F0EBF80346002B03D1AD
:103AFC00F86800F02DF969E03D49B86803F0E0F88A
:103B0C000346002B05D1BA693968F86800F008FB48
:103B1C005CE03849B86803F0D3F80346002B05D1B4
:103B2C00BA693968F86800F037FB4FE03249B86879
:103B3C0003F0C6F80346002B05D1BA693968F8685A
:103B4C0000F036FB42E02D49B86803F0B9F80346A3
:103B5C00002B05D1BA693968F86800F065FB35E0CF
:103B6C002749B86803F0ACF80346002B05D1BA69B5
:103B7C003968F86800F094FB28E02249B86803F033
:103B8C009FF80346002B03D1F86800F0A3F81DE062
:103B9C001D49B86803F094F80346002B05D1BA69A7
:103BAC003968F86800F087FB10E01849B86803F032
:103BBC0087F80346002B05D1BA693968F86800F01C
:103BCC0085FB03E01249F86800F0E1FF00BF1037F5
:103BDC00BD4680BD107000081470000818700008F5
:103BEC002070000828700008307000083870000839
:103BFC003C70000844700008487000084C700008C5
:103C0C005070000854700008587000085C70000870
:103C1C006070000880B582B000AF786005497868A4
:103C2C0000F0B5FF044B01229A7100BF0837BD4666
:103C3C0080BD00BF847000089C01002080B582B05C
:103C4C0000AF78600549786800F0A1FF044B0022B2
:103C5C009A7100BF0837BD4680BD00BFAC7000082C
:103C6C009C01002080B584B000AF78600023FB730A
:103C7C001249786800F08BFF20221149114802F09C
:103C8C001BFD01220021104801F0DAF80346FB73FA
:103C9C00FB7B002B0AD00D49786800F065FFFB7B9D
:103CAC000A221946786800F08DFF03E0084978680D
:103CBC0000F06DFF1037BD4680BD00BFD47000080A
:103CCC00801A06000054004044010020F8700008DF
:103CDC002071000880B584B000AF78600023FB73BE
:103CEC001149786800F053FF104801F089F9034638
:103CFC00FB73FB7B002B04D10D49786800F034FF7B
:103D0C000DE00C49786800F02FFFFB7B1022194660
:103D1C00786800F057FF0849786800F025FF00BF6D
:103D2C001037BD4680BD00BF44710008440100201F
:103D3C005C710008787100088471000880B483B04D
:103D4C0000AF786000BF0C37BD4680BC70470000E8
:103D5C0080B584B000AF78600023BB730023FB7385
:103D6C001649786800F000FF154B197807F10E031F
:103D7C007522144802F088FD0346FB73FB7B002B75
:103D8C0006D1BB7B10221946786800F01BFF0DE0B2
:103D9C000D49786800F0E8FEFB7B10221946786824
:103DAC0000F010FF0949786800F0DEFE08497868D9
:103DBC0000F0DAFE00BF1037BD4680BDA0710008D0
:103DCC00440100200054004078710008B4710008D0
:103DDC00D071000880B5A0B002AFF860B9607A600D
:103DEC0000233B67002387F86F30002387F8773078
:103DFC00002387F86E3007F1200300221A605A6006
:103E0C009A60DA60002387F8303000233B6107F1B9
:103E1C00140300221A605A609A604F49F86800F047
:103E2C00B6FE07F130032D227968B868FEF759F910
:103E3C00034687F86F304949F86800F095FE97F80B
:103E4C006F300A221946F86800F0BCFE4449F86845
:103E5C0000F08AFE97F86F30002B78D0002387F89B
:103E6C0077306EE097F8773007F12002DB0078337B
:103E7C003B44443B93E80300FEF78AF9386797F814
:103E8C002430002B19D007F1100310220021184602
:103E9C0002F00DFF396A97F824301A4607F1100327
:103EAC00184602F0F6FE2F49F86800F05DFE07F1A7
:103EBC0010031946F86800F06AFE97F82C30002BB6
:103ECC0019D007F1100310220021184602F0EFFE62
:103EDC00B96A97F82C301A4607F11003184602F00D
:103EEC00D8FE2149F86800F03FFE07F1100319468F
:103EFC00F86800F04CFE3B6F002B1DDDFB6A009355
:103F0C0007F120030ECBF86800F0E0FA034687F8BF
:103F1C006E3097F86E30002B0ED01449F86800F014
:103F2C0036FE1349F86800F01FFE97F86E30102229
:103F3C001946F86800F046FE97F87730013387F899
:103F4C00773097F8313097F877209A428AD300BFB0
:103F5C007837BD4680BD00BFD4710008E8710008F9
:103F6C00D0710008047200080C720008147200086A
:103F7C003C72000880B5A2B004AFF860B9607A60FA
:103F8C0000233B67002387F86F30002387F87730D6
:103F9C00002387F86E30002387F86D30002387F8F4
:103FAC006C3007F1200300221A605A609A60DA60C4
:103FBC00002387F8303000233B6107F11403002203
:103FCC001A605A609A6007F130032D227968B8683C
:103FDC00FEF787F8034687F86F3097F86F30002BA1
:103FEC0000F08F80002387F877305EE097F8773009
:103FFC0007F12002DB0078333B44443B93E8030099
:10400C00FEF7C6F8386797F82430002B19D007F163
:10401C00100310220021184602F049FE396A97F865
:10402C0024301A4607F11003184602F032FE3749C5
:10403C00F86800F099FD07F110031946F86800F0D4
:10404C00A6FD97F82C30002B19D007F11003102285
:10405C000021184602F02BFEB96A97F82C301A464C
:10406C0007F11003184602F014FE2949F86800F015
:10407C007BFD07F110031946F86800F088FD3B6FD3
:10408C00002B0DDD07F16C03029307F16D03019317
:10409C00FB6A009307F120030ECBF86800F064F97B
:1040AC0097F87730013387F8773097F8313097F8F5
:1040BC0077209A429AD397F86D300C2B21D997F828
:1040CC006D30752B1DD897F86D2097F86C30114911
:1040DC00F86800F0C1F9034687F86E3097F86E3037
:1040EC00002B0ED00C49F86800F051FD0B49F86814
:1040FC0000F03AFD97F86E3010221946F86800F07F
:10410C0061FD00BF7837BD4680BD00BF047200085A
:10411C000C72000844010020447200083C72000834
:10412C0080B58AB000AFF860B9607A60002387F878
:10413C00273000237B6107F1180300221A605A60B4
:10414C009A60B86802F069FD034687F827300023AF
:10415C0087F8263097F8273019460D4801F040F8BB
:10416C00034687F8263097F82630002B0AD10949E8
:10417C00F86800F0F9FC97F8273010221946F86817
:10418C0000F020FD97F8263018462837BD4680BD34
:10419C00440100206C72000880B485B000AFF86058
:1041AC00B9607A6000BF1437BD4680BC7047000010
:1041BC0080B58AB000AFF860B9607A60002387F8E8
:1041CC00273000237B6107F1180300221A605A6024
:1041DC009A60B86802F021FD034687F82730002367
:1041EC0087F8263097F8273019460D4801F020F84B
:1041FC00034687F8263097F82630002B0AD1094958
:10420C00F86800F0B1FC97F8273010221946F868CE
:10421C0000F0D8FC97F8263018462837BD4680BDEC
:10422C00440100208C72000880B58AB000AFF860A1
:10423C00B9607A60002387F8273000237B6107F18F
:10424C00180300221A605A609A60B86802F0E5FC04
:10425C00034687F82730002387F8263097F8273055
:10426C0019460D4800F0E4FF034687F8263097F80E
:10427C002630002B0AD10949F86800F075FC97F834
:10428C00273010221946F86800F09CFC97F826306D
:10429C0018462837BD4680BD44010020A472000892
:1042AC0080B485B000AFF860B9607A6000BF143795
:1042BC00BD4680BC704780B485B000AFF860B96073
:1042CC007A6000BF1437BD4680BC704780B58AB099
:1042DC0000AFF860B9607A6000237B6200237B61D9
:1042EC0007F1180300221A605A609A60B86802F04D
:1042FC0094FC03467B627B6A092B0FD97B6AB3F56E
:10430C007A7F0BD27B6A42F2107202FB03F3124AE1
:10431C0013601249F86800F03AFC07E00E4B4CF2BF
:10432C0050321A600E49F86800F031FC0D49F868FB
:10433C0000F01AFC084B1B6807F114010A221846FE
:10434C0002F0A0FD07F114031946F86800F01FFCF9
:10435C0000BF2837BD4680BD30010020BC7200086C
:10436C00D47200081073000884B080B588B000AF18
:10437C00786007F12C0080E80E000023FB6007F149
:10438C00100300221A605A609A604FF0FF33FB61F1
:10439C0097F83830002B15D007F10C0310220021B0
:1043AC00184602F084FC796B97F838301A4607F1FE
:1043BC000C03184602F06DFC07F10C03184602F0D2
:1043CC002CFCF86107F10C0310220021184602F0B6
:1043DC006EFCF96A97F830301A4607F10C03184650
:1043EC0002F057FC07F10C031849184602F068FC60
:1043FC000346002B0AD1FB690C2B1FDDFB69752BC7
:10440C001CDCFB69DAB2FB6B1A7017E007F10C03CA
:10441C000F49184602F054FC0346002B04D1FB69EB
:10442C00DAB23B6C1A7009E00A49786800F09CFB20
:10443C0007F10C031946786800F0A9FB00BF203780
:10444C00BD46BDE8804004B0704700BF287300082B
:10445C002C7300083073000880B586B000AFF8608C
:10446C00B96011461A460B46FB711346BB7100230B
:10447C00FB750023BB75BB681978BB79FA791048BA
:10448C0002F0ACF90346FB75FB7D002B13D10D49F3
:10449C00F86800F069FBFB7910221946F86800F007
:1044AC0091FB0949F86800F05FFBBB7910221946B3
:1044BC00F86800F087FBFB7D18461837BD4680BDB9
:1044CC0000540040447300084C73000884B080B55D
:1044DC0088B000AF786007F12C0080E80E00002354
:1044EC00BB6007F10C0300221A605A609A604FF00F
:1044FC00FF33FB610023FB7697F83830002B15D087
:10450C0007F1080310220021184602F0D0FB796B4A
:10451C0097F838301A4607F10803184602F0B9FB31
:10452C0007F10803184602F078FBF86107F108035D
:10453C0010220021184602F0BAFBF96A97F83030C5
:10454C001A4607F10803184602F0A3FB3A497868AB
:10455C0000F00AFB07F108031946786800F017FB16
:10456C0007F108033549184602F0AAFB0346002B55
:10457C000FD1FB690C2B56DDFB69752B53DCFB69EA
:10458C00DBB21A462E49786800F066F80346FB76D3
:10459C0049E007F108032B49184602F091FB03464A
:1045AC00002B06D12649786800F08EF80346FB767E
:1045BC0039E007F108032449184602F081FB034651
:1045CC00002B06D11E49786800F0BAF80346FB763A
:1045DC0029E007F108031D49184602F071FB034658
:1045EC00002B06D11649786800F0DCF80346FB7600
:1045FC0019E007F108031649184602F061FB03465F
:10460C00002B06D10E49786800F0FEF80346FB76C5
:10461C0009E01049786800F0A7FA07F10803194679
:10462C00786800F0B4FAFB7E18462037BD46BDE82A
:10463C00804004B0704700BF6873000828730008FE
:10464C004401002070730008787300087C73000824
:10465C00807300083073000880B586B000AFF86036
:10466C00B9601346FB710023FB750023BB75BB6857
:10467C00197807F11603FA79104802F005F9034688
:10468C00FB75FB7D002B13D10D49F86800F06CFA1B
:10469C00FB7910221946F86800F094FA0949F86879
:1046AC0000F062FABB7D10221946F86800F08AFA15
:1046BC00FB7D18461837BD4680BD00BF0054004036
:1046CC00447300088473000880B584B000AF786030
:1046DC0039600023FB73386801F07CF80346FB73E8
:1046EC00FB7B002B1FD11249786800F050FA11495E
:1046FC00786800F04CFA3968786801F013FA0E49C2
:10470C00786800F044FA3968786801F005FB0B49C9
:10471C00786800F03CFA3968786801F0C7FB044906
:10472C00786800F034FAFB7B18461037BD4680BD24
:10473C008C7300089C730008B8730008D0730008D1
:10474C0080B584B000AF786039600023FB733868A3
:10475C0000F09AFE0346FB73FB7B002B17D10E492E
:10476C00786800F014FA0D49786800F010FA39688E
:10477C00786801F0EDF90A49786800F008FA3968B0
:10478C00786801F0DFFA0449786800F000FAFB7BE6
:10479C0018461037BD4680BD8C730008E8730008BE
:1047AC000874000880B584B000AF786039600023CD
:1047BC00FB73386800F00EFF0346FB73FB7B002B8A
:1047CC0017D10E49786800F0E2F90D49786800F0CD
:1047DC00DEF93968786801F01FFA0A49786800F048
:1047EC00D6F93968786801F0F5FA0449786800F070
:1047FC00CEF9FB7B18461037BD4680BD8C73000884
:10480C002C7400084874000880B584B000AF786040
:10481C0039600023FB73386800F084FF0346FB7398
:10482C00FB7B002B17D10E49786800F0B0F90D49CD
:10483C00786800F0ACF93968786801F051FA0A49E7
:10484C00786800F0A4F93968786801F00BFB04492A
:10485C00786800F09CF9FB7B18461037BD4680BD8C
:10486C008C730008687400088874000880B483B0E6
:10487C0000AF78600B46FB70FB78002B10D07B6888
:10488C009B899BB243F004039AB27B689A817B6844
:10489C009B899BB243F020039AB27B689A810FE00C
:1048AC007B689B899BB223F004039AB27B689A8144
:1048BC007B689B899BB223F020039AB27B689A8118
:1048CC0000BF0C37BD4680BC7047000080B483B07D
:1048DC0000AF0B4B00221A700023FB7106E0FB7932
:1048EC00084A0021D154FB790133FB71FB793F2B32
:1048FC00F5D900BF00BF0C37BD4680BC704700BF68
:10490C00C00200208002002080B483B000AF0346B8
:10491C00FB710D4B1B78DBB2402B0FD80A4B1B786D
:10492C00DBB20133DAB2084B1A70074B1B78DBB2DF
:10493C00013B0649FA79CA54012300E000231846CA
:10494C000C37BD4680BC7047C0020020800200209E
:10495C0080B582B000AF78607B68094A934202D17F
:10496C0000F096F905E07B68064A934201D100F00D
:10497C00DFF9FFF7ABFF00BF0837BD4680BD00BFB6
:10498C00003801400044004080B584B000AF78602E
:10499C000023FB730023BB817B681B889BB2BB810C
:1049AC007B689B889BB2DBB2FB73BB899BB203F029
:1049BC000F03002B0CD1FB7BDBB21846FFF7A4FFD7
:1049CC000346002B04D1FFF781FF044B01221A7020
:1049DC00FB7BDBB218461037BD4680BDC102002000
:1049EC0080B582B000AF0D4B7B600D4B1B78DBB2FA
:1049FC00002B0ED00A4B1B78DBB2194604237A68C5
:104A0C000848FDF748FD38603B68002B01D00123B6
:104A1C0000E0002318460837BD4680BDAC74000882
:104A2C00C00200208002002080B483B000AF786008
:104A3C000B46FB7000BF7B681B889BB203F08003A6
:104A4C00002BF8D0FB789AB27B689A8000BF0C37A9
:104A5C00BD4680BC704780B586B000AFF860B960C9
:104A6C001346FB800023FB820023FB820AE0FB8AB7
:104A7C00BA6813441B781946F868FFF7D5FFFB8A10
:104A8C000133FB82FA8AFB889A42F0D300BF00BF45
:104A9C001837BD4680BD000080B582B000AF78608D
:104AAC000B46FB70144B0B2293E80300FDF71FFC25
:104ABC00124B042293E80300FDF719FC00217868DF
:104ACC00FFF7D4FE7B6800221A807B689B899BB21F
:104ADC0043F008039AB27B689A81FB781946786890
:104AEC00FFF7A2FF01217868FFF7C0FE01231846EB
:104AFC000837BD4680BD00BF340100203C010020BA
:104B0C0080B584B000AFF860B9601346FB80144BDD
:104B1C000B2293E80300FDF7EAFB124B042293E807
:104B2C000300FDF7E4FB0021F868FFF79FFEFB682C
:104B3C0000221A80FB689B899BB243F008039AB24F
:104B4C00FB689A81FB881A46B968F868FFF783FFFF
:104B5C000121F868FFF78AFE00BF1037BD4680BD03
:104B6C00340100203C01002080B582B000AF786099
:104B7C0039603868FBF7E4FA03469BB21A46396889
:104B8C007868FFF7BDFF00BF0837BD4680BD80B514
:104B9C0082B000AF786039603868FBF7D1FA034611
:104BAC009BB21A4639687868FFF7AAFF0D2178681E
:104BBC00FFF772FF0A217868FFF76EFF00BF083716
:104BCC00BD4680BD80B588B000AFF860B9601346B3
:104BDC00FB7100233B6107F1140300221A605A6039
:104BEC009A60BB68FA7907F11001184602F031F8A7
:104BFC0007F110031946F868FFF7B6FF00BF20371E
:104C0C00BD4680BD80B58AB000AFF860B960134670
:104C1C00FB710023BB6107F11C0300221A605A6070
:104C2C009A6007F11003FA79B9681846FDF77EFC13
:104C3C003B7D012B03D11449F868FFF795FF7B8A64
:104C4C00184607F118030A22194602F002F807F178
:104C5C0018031946F868FFF787FF0C49F868FFF747
:104C6C0083FF3B7C184607F118030A22194601F012
:104C7C00F0FF07F118031946F868FFF775FF00BF3E
:104C8C002837BD4680BD00BFB4740008B874000856
:104C9C0080B586B000AF224B9B69214A43F4804318
:104CAC0043F0050393611F4B0B2293E80300FDF7C0
:104CBC001EFB1D4B042293E80300FDF718FB252374
:104CCC003B7500237B750823BB750123FB7507F12E
:104CDC0014031846FCF7ECFA3B1D1846FCF7DEFFF4
:104CEC004FF4E1337B600C23FB810023BB81002359
:104CFC007B8100233B8100233B823B1D19460B48E3
:104D0C00FCF712FF012240F225510848FDF701F88B
:104D1C0001210648FCF7DEFF00BF1837BD4680BDF9
:104D2C0000100240340100203C01002000380140FA
:104D3C0080B586B000AF2D4BDB692C4A43F40033B1
:104D4C00D3612A4B9B69294A43F00503936107F110
:104D5C0014031846FCF7CAFB0423BB820323BB7560
:104D6C001823FB7507F1140319462148FCF702FBC5
:104D7C000823BB820323BB750423FB7507F11403C3
:104D8C0019461B48FCF7F6FA26233B7400237B7468
:104D9C000823BB740123FB7407F110031846FCF7BE
:104DAC0087FA3B461846FCF779FF4FF4E1333B603A
:104DBC000C237B8100233B810023FB800023BB80E1
:104DCC000023BB813B4619460A48FCF7ADFE012285
:104DDC0040F227710748FCF79CFF01210548FCF7BE
:104DEC0079FF00BF1837BD4680BD00BF00100240E0
:104DFC00000801400044004080B500AF094B1B88FF
:104E0C009BB203F02003002B02D00648FFF7BCFD39
:104E1C00044B1B889BB2034A23F020039BB21380E4
:104E2C0000BF80BD0038014080B400AF00BFBD465C
:104E3C0080BC704780B400AF00BFBD4680BC7047DB
:104E4C0080B584B000AF78600B46FB701346BB7026
:104E5C000023BB730023FB737B68197807F10E03E7
:104E6C0075225E4801F010FD0346FB73FB7B002BA3
:104E7C0001D0FB7BAEE0BB7B682B01D06323A9E0A8
:104E8C0057495848FFF770FE786800F0B9F80346A8
:104E9C00FB73FB7B0A2219465248FFF793FE5249DB
:104EAC005048FFF761FE4F4801F078FDFB7B002B6B
:104EBC0001D0FB7B8EE04D494A48FFF755FE072198
:104ECC00786800F0A1F90346FB73FB7B0A221946B4
:104EDC004448FFF777FE44494248FFF745FE4148F6
:104EEC0001F05CFDFB7B002B01D0FB7B72E04049A9
:104EFC003C48FFF739FE0021786800F099F9034629
:104F0C00FB73FB7B0A2219463648FFF75BFE3649DA
:104F1C003448FFF729FE334801F040FDFB7B002BA2
:104F2C0001D0FB7B56E033492E48FFF71DFE0221D2
:104F3C00786800F0B7F90346FB73FB7B0A2219462D
:104F4C002848FFF73FFE28492648FFF70DFE254865
:104F5C0001F024FDFB7B002B01D0FB7B3AE02649C2
:104F6C002048FFF701FEFB781946786800F0DAF864
:104F7C000346FB73FB7B0A2219461A48FFF722FEF5
:104F8C0019491848FFF7F0FD164801F007FDFB7BA7
:104F9C00002B01D0FB7B1DE018491248FFF7E4FD04
:104FAC00BB781946786800F05BF80346FB73FB7B13
:104FBC000A2219460B48FFF705FE0B490948FFF773
:104FCC00D3FD084801F0EAFCFB7B002B01D0FB7BF6
:104FDC0000E0002318461037BD4680BD0054004049
:104FEC00C874000800380140D4740008D874000854
:104FFC00E4740008F0740008FC7400080C750008D8
:10500C0080B584B000AF78600023FB737B6819789F
:10501C0000236B22114801F0E1FB0346FB73FB7B81
:10502C00002B01D0FB7B14E06420FDF77FFC7B6838
:10503C00197807236822094801F0D0FB0346FB735B
:10504C00FB7B002B01D0FB7B03E06420FDF76EFCA7
:10505C00002318461037BD4680BD00BF00540040E9
:10506C0080B584B000AF78600B46FB700023BB7337
:10507C000023FB737B68197807F10E031B2224486D
:10508C0001F002FC0346FB73FB7B002B01D0FB7B86
:10509C003AE0BB7B5BB223F018035AB2FB78DB001F
:1050AC005BB213435BB2DBB2BB737B681978BB7B1F
:1050BC001B22174801F092FB0346FB73FB7B002B72
:1050CC0001D0FB7B20E0FB78032B1BD801A252F80C
:1050DC0023F000BFF1500008F950000801510008FE
:1050EC00095100087B680B4A1A620CE07B680A4A7B
:1050FC001A6208E07B68094A1A6204E07B68084A75
:10510C001A6200E000BF002318461037BD4680BD70
:10511C00005400402D23FA3B2D237A3C90C1F93CDE
:10512C0090C1793D80B584B000AF78600B46FB70C0
:10513C000023BB730023FB737B68197807F10E0304
:10514C001C22264801F0A0FB0346FB73FB7B002BC3
:10515C0001D0FB7B3EE0BB7B5BB223F018035AB261
:10516C00FB78DB005BB213435BB2DBB2BB737B68D7
:10517C001978BB7B1C22194801F030FB0346FB73EA
:10518C00FB7B002B01D0FB7B24E0FB78032B1FD88F
:10519C0001A252F823F000BFB5510008BF5100081E
:1051AC00C9510008D35100087B684FF06252DA6194
:1051BC000FE07B684FF06452DA610AE07B684FF0D5
:1051CC006652DA6105E07B684FF06852DA6100E004
:1051DC0000BF002318461037BD4680BD0054004068
:1051EC0080B582B000AF78600B46FB707B68197895
:1051FC00FB781922034801F0F1FA034618460837E8
:10520C00BD4680BD0054004080B582B000AF7860D0
:10521C000B46FB707B681978FB781922034801F068
:10522C00DDFA034618460837BD4680BD00540040E1
:10523C0080B584B000AF78600B46FB700023FB7325
:10524C000023BB737B68197807F10E031A221448EC
:10525C0001F01AFB0346FB73FB7B002B01D0FB7B9D
:10526C0019E0BB7B5BB223F007035AB297F903300A
:10527C0013435BB2DBB2BB737B681978BB7B1A221E
:10528C00074801F0ABFA0346FB73FB7B002B01D004
:10529C00FB7B00E0002318461037BD4680BD00BFE5
:1052AC000054004080B584B000AF78600B46FB70B2
:1052BC000023FB730023BB737B68197807F10E0383
:1052CC001C22144801F0E0FA0346FB73FB7B002B15
:1052DC0001D0FB7B19E0BB7B5BB223F007035AB216
:1052EC0097F9033013435BB2DBB2BB737B6819785D
:1052FC00BB7B1C22074801F071FA0346FB73FB7B56
:10530C00002B01D0FB7B00E0002318461037BD4674
:10531C0080BD00BF0054004080B485B000AF786001
:10532C000023FB730023FB7307E0FB7B7A681344B9
:10533C0000225A70FB7B0133FB73FB7B0D2BF4D9E2
:10534C007B6800221A827B6800225A827B680022CA
:10535C001A827B680022DA827B6800221A837B68BF
:10536C0000225A837B684FF000025A627B684FF030
:10537C0000029A627B684FF00002DA627B684FF0A1
:10538C0000021A637B684FF000025A637B684FF08F
:10539C0000029A637B684FF000025A6500BF143715
:1053AC00BD4680BC704780B485B000AF78600023E8
:1053BC00FB730023FB7307E0FB7B7A68134400222A
:1053CC005A70FB7B0133FB73FB7B052BF4D97B6899
:1053DC0000221A827B6800225A827B6800221A8281
:1053EC007B684FF000025A627B684FF000029A62B1
:1053FC007B684FF00002DA6200BF1437BD4680BCF8
:10540C00704780B485B000AF78600023FB73002335
:10541C00FB7308E0FB7B08337A68134400225A7054
:10542C00FB7B0133FB73FB7B052BF3D97B680022E1
:10543C00DA827B6800221A837B6800225A837B689D
:10544C004FF000021A637B684FF000025A637B68CE
:10545C004FF000029A6300BF1437BD4680BC704702
:10546C0080B483B000AF78607B680022DA717B680F
:10547C0000221A727B684FF000025A6500BF0C378D
:10548C00BD4680BC7047000080B586B002AF786026
:10549C000023BB600023BB810023BB737868FFF73C
:1054AC0082FF7B68197807F10803062200923B22E1
:1054BC00464801F008FA0346BB73BB7B002B01D0B6
:1054CC00BB7B7FE03B7A1B021AB27B7A1BB2134385
:1054DC001AB27B681A82BB7A1B021AB2FB7A1BB215
:1054EC0013431AB27B685A823B7B1B021AB27B7B3A
:1054FC001BB213431AB27B689A827B68B3F91030E3
:10550C001846FBF7FDFA02467B68DB691946104624
:10551C00FBF74AFB03461A467B685A627B68B3F971
:10552C0012301846FBF7ECFA02467B68DB69194629
:10553C001046FBF739FB03461A467B689A627B6878
:10554C00B3F914301846FBF7DBFA02467B68DB69CB
:10555C0019461046FBF728FB03461A467B68DA62AD
:10556C007B685B6A1A491846FBF71EFB03461A4612
:10557C007B68DA637B689B6A15491846FBF714FB5A
:10558C0003461A467B681A647B68DB6A1049184626
:10559C00FBF70AFB03461A467B685A640023FB732D
:1055AC000CE0FA7BFB7B10323A4412F8081C7A6848
:1055BC0013440A465A70FB7B0133FB73FB7B052BB0
:1055CC00EFD9002318461037BD4680BD005400406B
:1055DC000AE81C4180B586B002AF78600023BB603E
:1055EC000023BB810023BB737868FFF70AFF7B683D
:1055FC00197807F10803062200924322474801F06C
:10560C0062F90346BB73BB7B002B01D0BB7B80E0F4
:10561C003B7A1B021AB27B7A1BB213431AB27B6819
:10562C00DA82BB7A1B021AB2FB7A1BB213431AB290
:10563C007B681A833B7B1B021AB27B7B1BB2134326
:10564C001AB27B685A837B68B3F916301846FBF79D
:10565C0057FA02467B681B6A19461046FBF7A4FAF8
:10566C0003461A467B681A637B68B3F918301846F0
:10567C00FBF746FA02467B681B6A19461046FBF795
:10568C0093FA03461A467B685A637B68B3F91A305F
:10569C001846FBF735FA02467B681B6A194610461A
:1056AC00FBF782FA03461A467B689A637B681B6B8E
:1056BC001B491846FBF778FA03461A467B689A642E
:1056CC007B685B6B16491846FBF76EFA03461A4665
:1056DC007B68DA647B689B6B11491846FBF764FAAC
:1056EC0003461A467B681A650023FB730DE0FA7BB0
:1056FC00FB7B083310323A4412F8081C7A681344C6
:10570C000A465A70FB7B0133FB73FB7B052BEED9EE
:10571C00002318461037BD4680BD00BF0054004022
:10572C0035FA8E3C80B586B002AF786000233B81A1
:10573C000023BB730023BB817868FFF791FE7B6865
:10574C00197807F108030222009241221E4801F049
:10575C00BAF80346BB73BB7B002B01D0BB7B2EE09E
:10576C003B7A1B021AB27B7A1BB21343BB81B7F98B
:10577C000C301846FBF7C4F9034614491846FBF7DE
:10578C00C7FA034612491846FBF706F903461A46B0
:10579C007B685A650023FB730DE0FA7BFB7B0633B9
:1057AC0010323A4412F8081C7A6813440A465A70AC
:1057BC00FB7B0133FB73FB7B012BEED900231846DB
:1057CC001037BD4680BD00BF005400400000AA4306
:1057DC00B81E124280B586B002AF78600023FB730E
:1057EC007868FFF799FD7B6819787B6801330E2286
:1057FC0000923B22874801F066F80346FB73FB7B63
:10580C00002B01D0FB7B00E17B685B781B021AB29A
:10581C007B689B781BB213431AB27B681A827B6835
:10582C00DB781B021AB27B681B791BB213431AB2CA
:10583C007B685A827B685B791B021AB27B689B7906
:10584C001BB213431AB27B689A827B68B3F910308F
:10585C001846FBF755F902467B68DB69194610467A
:10586C00FBF7A2F903461A467B685A627B68B3F9C8
:10587C0012301846FBF744F902467B68DB6919467F
:10588C001046FBF791F903461A467B689A627B68CF
:10589C00B3F914301846FBF733F902467B68DB6921
:1058AC0019461046FBF780F903461A467B68DA6204
:1058BC007B685B6A58491846FBF776F903461A462B
:1058CC007B68DA637B689B6A53491846FBF76CF973
:1058DC0003461A467B681A647B68DB6A4E49184695
:1058EC00FBF762F903461A467B685A647B685B7A5D
:1058FC001B021AB27B689B7A1BB213431AB27B68E9
:10590C00DA827B68DB7A1B021AB27B681B7B1BB2C8
:10591C0013431AB27B681A837B685B7B1B021AB237
:10592C007B689B7B1BB213431AB27B685A837B68E0
:10593C00B3F916301846FBF7E3F802467B681B6A8E
:10594C0019461046FBF730F903461A467B681A6372
:10595C007B68B3F918301846FBF7D2F802467B681F
:10596C001B6A19461046FBF71FF903461A467B685B
:10597C005A637B68B3F91A301846FBF7C1F8024634
:10598C007B681B6A19461046FBF70EF903461A464C
:10599C007B689A637B681B6B20491846FBF704F9FC
:1059AC0003461A467B689A647B685B6B1B491846F6
:1059BC00FBF7FAF803461A467B68DA647B689B6B44
:1059CC0016491846FBF7F0F803461A467B681A6529
:1059DC007B68DB791B021AB27B681B7A1BB2134300
:1059EC00BB81B7F90C301846FBF78AF803460C4913
:1059FC001846FBF78DF903460A491846FAF7CCFF0F
:105A0C0003461A467B685A65002318461037BD4674
:105A1C0080BD00BF005400400AE81C4135FA8E3CA2
:105A2C000000AA43B81E124280B582B000AF786065
:105A3C000B46FB70FB78032B10D0032B13DC012BD4
:105A4C0002D0022B05D00EE07868FFF71DFD03464F
:105A5C000DE07868FFF7BEFD034608E07868FFF7B5
:105A6C0061FE034603E07868FFF7B4FE0346184670
:105A7C000837BD4680BD000080B584B000AFF8602B
:105A8C00B9601346FB712649F868FFF780F8FB797B
:105A9C00013B052B38D801A252F823F0C15A00085B
:105AAC00CB5A0008D55A0008DF5A0008F15A0008F2
:105ABC00035B0008B968F86800F04AF828E0B96898
:105ACC00F86800F0A9F823E0B968F86800F008F964
