:020000040800F2
:1000000000500020192500083B0E0008470E00088C
:100010004D0E0008530E0008590E000800000000A5
:100020000000000000000000000000005F0E00085B
:100030006B0E000800000000770E0008850E000817
:100040005D2500085D2500085D2500085D25000888
:100050005D2500085D2500085D2500085D25000878
:100060005D2500085D2500085D2500085D25000868
:100070005D2500085D2500085D2500085D25000858
:100080005D2500085D2500085D2500085D25000848
:100090005D2500085D2500085D2500085D25000838
:1000A0005D2500085D2500085D2500085D25000828
:1000B0006D220008812200085D2500085D250008EA
:1000C0005D2500085D2500085D2500085D25000808
:1000D0005D250008A1240008D1240008DD240008C3
:1000E0005D2500085D2500085D2500080000000072
:1000F0000000000000000000000000000000000000
:0C01000000000000000000005FF808F1A3
:10010C0010B5054C237833B9044B13B10448AFF345
:10011C0000800123237010BD30010020000000007E
:10012C006025000808B5034B1BB103490348AFF326
:10013C00008008BD0000000034010020602500088C
:10014C00034613F8012B002AFBD1181A013870470B
:10015C0053B94AB9002908BF00281CBF4FF0FF3122
:10016C004FF0FF3000F076B9ADF1080C6DE904CE1C
:10017C0000F006F8DDF804E0DDE9022304B0704776
:10018C002DE9F047089E0D4604468846002B4DD1BC
:10019C008A42944668D9B2FA82F252B101FA02F359
:1001AC00C2F1200120FA01F10CFA02FC41EA030829
:1001BC0094404FEA1C41B8FBF1F71FFA8CFE01FB8F
:1001CC00178807FB0EF0230C43EA084398420AD920
:1001DC001CEB030307F1FF3580F01E81984240F2BF
:1001EC001B81023F63441B1AB3FBF1F001FB10337C
:1001FC0000FB0EFEA4B244EA0344A6450AD91CEB4C
:10020C00040400F1FF3380F00981A64540F2068119
:10021C00644402380021A4EB0E0440EA07401EB1EE
:10022C000023D440C6E90043BDE8F0878B4208D9CF
:10023C00002E00F0EE800021C6E900050846BDE85E
:10024C00F087B3FA83F100294AD1AB4202D3824240
:10025C0000F2FC80841A65EB030301209846002E03
:10026C00E2D0C6E90048DFE702B9FFDEB2FA82F25B
:10027C00002A40F09180A1EB0C0001214FEA1C47B1
:10028C001FFA8CFEB0FBF7F307FB1300250C45EAB5
:10029C0000450EFB03F0A84208D91CEB050503F141
:1002AC00FF3802D2A84200F2CE8043462D1AB5FB8D
:1002BC00F7F007FB10550EFB00FEA4B244EA054410
:1002CC00A64508D91CEB040400F1FF3502D2A64563
:1002DC0000F2B6802846A4EB0E0440EA03409EE7E9
:1002EC00C1F120078B4022FA07FC4CEA030C25FADB
:1002FC0007FA4FEA1C49BAFBF9F820FA07F309FB95
:10030C0018AA8D401FFA8CFE1D4300FA01F308FB5E
:10031C000EF02C0C44EA0A44A04202FA01F20BD96A
:10032C001CEB040408F1FF3A80F08880A04240F2F4
:10033C008580A8F102086444241AB4FBF9F009FB87
:10034C00104400FB0EFEADB245EA0444A64508D9A4
:10035C001CEB040400F1FF356CD2A6456AD90238B7
:10036C00644440EA0840A0FB0295A4EB0E04AC42A6
:10037C00C846AE4656D353D0002E69D0B3EB080214
:10038C0064EB0E0422FA01F304FA07F71F43CC4086
:10039C00C6E90074002147E70CFA02FCC2F1200107
:1003AC0025FA01F34FEA1C4720FA01F195400D4361
:1003BC00B3FBF7F107FB11331FFA8CFE280C40EA54
:1003CC00034001FB0EF3834204FA02F408D91CEB40
:1003DC00000001F1FF382FD283422DD9023960443D
:1003EC00C01AB0FBF7F307FB1300ADB245EA0045AA
:1003FC0003FB0EF0A84208D91CEB050503F1FF38EE
:10040C0016D2A84214D9023B6544281A43EA01418A
:10041C0038E73146304607E72F46E4E61846F9E65A
:10042C004B45A9D2B9EB020865EB0C0E0138A3E7DA
:10043C004346EAE7284694E74146D1E7D0467BE7B6
:10044C006444023847E7023B65442FE7084606E759
:10045C003146E9E6704700BF80B500AF01F0D4FD2E
:10046C0001F076FEFCE7000080B483B000AF78604A
:10047C00054A7B6843F0BF6343F40033D36000BF8D
:10048C000C37BD4680BC704700ED00E080B487B0EF
:10049C0000AF786000237B6100233B610F23FB607E
:1004AC007B68DB78002B3AD0274BDB68DB431B0ADD
:1004BC0003F007037B617B69C3F104033B61FA68BA
:1004CC007B6922FA03F3FB607B685B781A463B6915
:1004DC0002FA03F37B617B689B781A46FB68134036
:1004EC007A6913437B617B691B017B61174A7B68CB
:1004FC001B787969C9B213440A4683F800237B68D8
:10050C001B7803F01F0311497A6812785209D2B292
:10051C001046012202FA03F341F820300FE07B6809
:10052C001B7803F01F0309497A6812785209D2B27A
:10053C00104601229A4000F1200341F8232000BF0D
:10054C001C37BD4680BC704700ED00E000E100E0C8
:10055C0080B489B000AF786039600023FB61002360
:10056C003B610023BB610023FB6000237B61002304
:10057C00BB603B68DB7803F00F03FB613B68DB7807
:10058C0003F01003002B05D03B689B781A46FB69DF
:10059C001343FB613B681B88DBB2002B44D07B68A8
:1005AC001B687B610023BB6138E00122BB6902FA46
:1005BC0003F3FB603B681B881A46FB6813403B61E6
:1005CC003A69FB689A4226D1BB699B00FB600F22FB
:1005DC00FB6802FA03F3BB60BB68DB437A69134028
:1005EC007B61FA69FB6802FA03F37A6913437B6156
:1005FC003B68DB78282B05D10122BB699A407B68CC
:10060C005A6108E03B68DB78482B04D10122BB69B6
:10061C009A407B681A61BB690133BB61BB69072BCC
:10062C00C3D97B687A691A603B681B88FF2B46D953
:10063C007B685B687B610023BB613AE0BB69083374
:10064C00012202FA03F3FB603B681B881A46FB6825
:10065C0013403B613A69FB689A4227D1BB699B0006
:10066C00FB600F22FB6802FA03F3BB60BB68DB4341
:10067C007A6913407B61FA69FB6802FA03F37A69C1
:10068C0013437B613B68DB78282B05D1BB690833AE
:10069C0001229A407B685A613B68DB78482B05D174
:1006AC00BB69083301229A407B681A61BB6901332C
:1006BC00BB61BB69072BC1D97B687A695A6000BFE3
:1006CC002437BD4680BC704780B483B000AF7860DF
:1006DC007B684FF6FF721A807B6802229A707B68E7
:1006EC000422DA7000BF0C37BD4680BC704780B462
:1006FC0085B000AF78600B467B800023FB737B6872
:10070C009A687B881340002B02D00123FB7301E015
:10071C000023FB73FB7B18461437BD4680BC704727
:10072C0080B483B000AF78607B689B689BB218463E
:10073C000C37BD4680BC704780B485B000AF786084
:10074C000B467B800023FB737B68DA687B88134045
:10075C00002B02D00123FB7301E00023FB73FB7B16
:10076C0018461437BD4680BC704780B483B000AFC8
:10077C0078607B68DB689BB218460C37BD4680BC42
:10078C00704780B483B000AF78600B467B807A886A
:10079C007B681A6100BF0C37BD4680BC704780B4C3
:1007AC0083B000AF78600B467B8013467B707B7800
:1007BC00002B03D07A887B681A6102E07A887B6808
:1007CC005A6100BF0C37BD4680BC704780B487B0FF
:1007DC0000AF786000237B6100233B610023FB604A
:1007EC000023BB604F4B5B6803F00C037B617B69A0
:1007FC00082B11D07B69082B3AD87B69002B03D0CE
:10080C007B69042B04D033E07B68474A1A6033E0E1
:10081C007B68454A1A602FE0424B5B6803F4701307
:10082C003B61404B5B6803F48033FB603B699B0C82
:10083C0002333B61FB68002B06D13B693B4A03FB4F
:10084C0002F27B681A6017E0364B5B6803F40033E6
:10085C00002B06D03B69354A03FB02F27B681A6019
:10086C000AE03B69304A03FB02F27B681A6003E042
:10087C007B682D4A1A6000BF2A4B5B6803F0F003BB
:10088C007B617B691B097B61294A7B6913441B785B
:10089C00DBB2BB607B681A68BB68DA407B685A6065
:1008AC00204B5B6803F4E0637B617B691B0A7B6113
:1008BC001F4A7B6913441B78DBB2BB607B685A68A8
:1008CC00BB68DA407B689A60164B5B6803F4605334
:1008DC007B617B69DB0A7B61154A7B6913441B785E
:1008EC00DBB2BB607B685A68BB68DA407B68DA6055
:1008FC000C4B5B6803F440437B617B699B0B7B6116
:10090C000C4A7B6913441B78DBB2BB607B68DA68EA
:10091C00BB68B2FBF3F27B681A6100BF1C37BD46A3
:10092C0080BC70470010024000127A0000093D00A4
:10093C00000000201000002080B483B000AF78606D
:10094C000B46FB70FB78002B06D0094B9A690849C3
:10095C007B6813438B6106E0054B9A697B68DB432C
:10096C00034913408B6100BF0C37BD4680BC7047F8
:10097C000010024080B485B000AF7860396000236D
:10098C00FB817B681B88FB817B682E4A934213D0CA
:10099C007B682D4A93420FD07B68B3F1804F0BD00C
:1009AC007B682A4A934207D07B68294A934203D03A
:1009BC007B68284A934208D1FB8923F07003FB81A2
:1009CC003B685A88FB891343FB817B68224A93421C
:1009DC000CD07B68214A934208D0FB8923F44073E6
:1009EC00FB813B68DA88FB891343FB817B68FA89BE
:1009FC001A803B689A887B689A853B681A887B6862
:100A0C001A857B680F4A93420FD07B680E4A93423B
:100A1C000BD07B68124A934207D07B68114A9342F1
:100A2C0003D07B68104A934204D13B681B7A9AB27C
:100A3C007B681A867B6801229A8200BF1437BD46F8
:100A4C0080BC7047002C0140003401400004004081
:100A5C0000080040000C0040001000400014004052
:100A6C0000400140004401400048014080B483B084
:100A7C0000AF78600B46FB70FB78002B08D07B68CE
:100A8C001B889BB243F001039AB27B681A8007E083
:100A9C007B681B889BB223F001039AB27B681A8097
:100AAC0000BF0C37BD4680BC704780B483B000AF2C
:100ABC0078600B467B807B88DB439AB27B681A821A
:100ACC0000BF0C37BD4680BC7047000080B58CB0B1
:100ADC0000AF786039600023FB620023BB62002307
:100AEC007B6200233B620023FB617B68FB617B68BC
:100AFC001B8A9BB2FB62FA6A4CF6FF731340FB62D3
:100B0C003B68DB881A46FB6A1343FB62FB6A9AB2AA
:100B1C007B681A827B689B899BB2FB62FA6A4EF6F1
:100B2C00F3131340FB623B689A883B681B891343A1
:100B3C009AB23B685B8913439BB21A46FB6A134318
:100B4C00FB62FB6A9AB27B689A817B689B8A9BB238
:100B5C00FB62FA6A4FF6FF431340FB623B689B89CA
:100B6C001A46FB6A1343FB62FB6A9AB27B689A8251
:100B7C0007F108031846FFF729FEFB692E4A93423A
:100B8C0002D17B69BB6201E03B69BB627B689B89DC
:100B9C009BB21BB2002B0CDABA6A13469B001344AF
:100BAC009A001A443B681B685B00B2FBF3F37B6250
:100BBC000BE0BA6A13469B0013449A001A443B6834
:100BCC001B689B00B2FBF3F37B627B6A1B4AA2FBA4
:100BDC0003235B091B01FB62FB6A1B09642202FBFA
:100BEC0003F37A6AD31A3B627B689B899BB21BB274
:100BFC00002B0CDA3B6ADB003233104AA2FB0323D6
:100C0C005B0903F00703FA6A1343FB620BE03B6AD0
:100C1C001B013233094AA2FB03235B0903F00F03C8
:100C2C00FA6A1343FB62FB6A9AB27B681A8100BFB3
:100C3C003037BD4680BD00BF003801401F85EB51E9
:100C4C0080B483B000AF78607B684FF416521A60A2
:100C5C007B6800229A807B680022DA807B68002205
:100C6C001A817B680C225A817B6800229A8100BF12
:100C7C000C37BD4680BC704780B483B000AF786041
:100C8C000B46FB70FB78002B08D07B689B899BB2D2
:100C9C0043F400539AB27B689A8107E07B689B8986
:100CAC009BB223F400539AB27B689A8100BF0C3735
:100CBC00BD4680BC704780B487B000AF78600B46EF
:100CCC007B8013467B7000233B610023FB60002379
:100CDC00BB6000237B617B687B617B88DBB25B093B
:100CEC00DBB23B617B8803F01F03FB600122FB68D6
:100CFC0002FA03F3BB603B69012B03D17B690C3314
:100D0C007B6109E03B69022B03D17B6910337B616A
:100D1C0002E07B6914337B617B78002B06D07B6906
:100D2C0019687B69BA680A431A6006E07B6919681E
:100D3C00BB68DA437B690A401A6000BF1C37BD46AA
:100D4C0080BC704780B485B000AF78600B467B8068
:100D5C000023FB737B681B889AB27B8813409BB281
:100D6C00002B02D00123FB7301E00023FB73FB7B00
:100D7C0018461437BD4680BC704780B487B000AFAE
:100D8C0078600B467B800023FB6000237B61002393
:100D9C00BB600023FB747B88DBB25B09DBB2BB60FE
:100DAC007B8803F01F037B6101227B6902FA03F34A
:100DBC007B61BB68012B07D17B689B899BB21A4670
:100DCC007B6913407B6111E0BB68022B07D17B6808
:100DDC001B8A9BB21A467B6913407B6106E07B68D9
:100DEC009B8A9BB21A467B6913407B617B881B0AEA
:100DFC009BB2FB600122FB6802FA03F3FB607B6889
:100E0C001B889BB21A46FB681340FB607B69002B66
:100E1C0005D0FB68002B02D00123FB7401E00023FA
:100E2C00FB74FB7C18461C37BD4680BC704780B4F5
:100E3C0000AF00BFBD4680BC704780B400AFFEE77A
:100E4C0080B400AFFEE780B400AFFEE780B400AF23
:100E5C00FEE780B400AF00BFBD4680BC704780B4D5
:100E6C0000AF00BFBD4680BC704780B400AF00BF70
:100E7C00BD4680BC7047000080B500AF064B1B68B8
:100E8C00002B04D0044B1B68013B034A136001F098
:100E9C0069F900BF80BD00BF4C01002080B500AFD8
:100EAC00154B1B68144A43F001031360124B5A682C
:100EBC001149124B13404B600F4B1B680E4A23F029
:100ECC00847323F4803313600B4B1B680A4A23F49E
:100EDC0080231360084B5B68074A23F4FE035360BE
:100EEC00054B4FF41F029A6000F00CF8044B4FF0C6
:100EFC0000629A6000BF80BD001002400000FFF845
:100F0C0000ED00E080B500AF00F002F800BF80BD3E
:100F1C0080B483B000AF00237B6000233B603A4B6E
:100F2C001B68394A43F480331360374B1B6803F456
:100F3C0000333B607B6801337B603B68002B03D143
:100F4C007B68B3F5A06FF0D12F4B1B6803F4003313
:100F5C00002B02D001233B6001E000233B603B6887
:100F6C00012B4BD1294B1B68284A43F0100313600B
:100F7C00264B1B68254A23F007031360234B1B6881
:100F8C00224A43F0020313601F4B1F4A5B685360F5
:100F9C001D4B1D4A5B6853601B4B5B681A4A43F43C
:100FAC0080635360184B5B68174A23F47C135360BF
:100FBC00154B5B68144A43F4E8135360124B1B68DF
:100FCC00114A43F08073136000BF0F4B1B6803F092
:100FDC000073002BF9D00C4B5B680B4A23F0030316
:100FEC005360094B5B68084A43F00203536000BF2F
:100FFC00054B5B6803F00C03082BF9D100BF0C37D1
:10100C00BD4680BC704700BF00100240002002406B
:10101C0080B584B000AF7860084611461A46034686
:10102C007B800B467B7013463B7007F10C03184614
:10103C00FFF74AFB7B78FB733B78BB737B88012201
:10104C0002FA03F39BB2BB8107F10C0319467868D3
:10105C00FFF77EFA00BF1037BD4680BD90B587B054
:10106C0000AF07F1080484E8030011461A460B464A
:10107C00FB711346BB7107F114031846FFF724FBF1
:10108C00FB79FB75BB79BB75BB891A460123934071
:10109C009BB2BB82BB6807F1140211461846FFF7DE
:1010AC0057FA00BF1C37BD4690BD80B489B000AF65
:1010BC0007F1080383E803001346FB710023FB616F
:1010CC000023BB610023FB82BB89072B01D8BB89A2
:1010DC0002E0BB89083B9BB2FB82FB8A9B00FB8234
:1010EC00FB7903F00F03FB61BB89072B13D8BB689B
:1010FC001B68FA8A0F2101FA02F2D2431340BB613A
:10110C00FB8AFA6902FA03F3BA691343BB61BB6841
:10111C00BA691A6012E0BB685B68FA8A0F2101FA9F
:10112C0002F2D2431340BB61FB8AFA6902FA03F361
:10113C00BA691343BB61BB68BA695A6000BF2437F4
:10114C00BD4680BC704780B483B000AF3B4683E89B
:10115C0003003B681A69BB88194601238B409BB27C
:10116C0019463B680A431A6100BF0C37BD4680BC68
:10117C00704780B483B000AF3B4683E803003B6804
:10118C005A69BB88194601238B409BB219463B68B0
:10119C000A435A6100BF0C37BD4680BC704780B40F
:1011AC0083B000AF3B4683E803003B68DB68BA883A
:1011BC00D34003F00103002B0AD03B685969BB886C
:1011CC001A46012303FA02F23B680A435A6109E00A
:1011DC003B681969BB881A46012303FA02F23B6883
:1011EC000A431A6100BF0C37BD4680BC704780B5FE
:1011FC0082B000AF3B4683E8030008223B4693E8ED
:10120C000300FFF752FF3B681969BB881A4601239C
:10121C0003FA02F23B680A431A6100BF0837BD4665
:10122C0080BD80B483B000AF3B4683E803003B68CD
:10123C009B68BA88D34003F00103002B01D0012333
:10124C0000E0002318460C37BD4680BC70470000F8
:10125C0080B582B000AF0023FB710BE0FB790C4929
:10126C000222DB000B4493E80300FFF71EFFFB791F
:10127C000133FB71FB79072BF0D9064B022293E863
:10128C000300FFF712FF00BF0837BD4680BD00BF4B
:10129C00280000202000002080B582B000AF002381
:1012AC00FB710BE0FB7909490222DB000B4493E84C
:1012BC000300FFF7FAFEFB790133FB71FB79052B79
:1012CC00F0D900BF00BF0837BD4680BD68000020C4
:1012DC0080B584B000AF0346FB711C4B93E8030050
:1012EC00FFF731FF0023FB731BE0FA79FB7B22FA3B
:1012FC0003F303F00103002B08D0FB7B144ADB0043
:10130C00134493E80300FFF71EFF07E0FB7B104A32
:10131C00DB00134493E80300FFF72BFFFB7B013347
:10132C00FB73FB7B072BE0D9084B93E80300FFF71B
:10133C0020FF00BF00BF00BF00BF044B93E80300B9
:10134C00FFF701FF00BF1037BD4680BD2000002015
:10135C002800002080B584B000AF0346FB71002349
:10136C00FB731BE0FA79FB7B22FA03F303F0010316
:10137C00002B08D0FB7B0D4ADB00134493E80300E1
:10138C00FFF7E1FE07E0FB7B084ADB00134493E820
:10139C000300FFF7EEFEFB7B0133FB73FB7B052B9E
:1013AC00E0D900BF00BF1037BD4680BD68000020EB
:1013BC0080B584B000AF3B1D1846FFF785F90223BA
:1013CC00BB714FF40053BB803B1D19463A48FFF7E5
:1013DC00BFF84FF400513848FFF7D3F90023FB73E3
:1013EC000023BB730023BB8100237B814FF400518E
:1013FC003148FFF77CF90346FB734FF400512E483C
:10140C00FFF79AF90346BB732B48FFF789F903469C
:10141C00BB812948FFF7A9F903467B81274B186844
:10142C00264B998802231022FFF7F2FD234B1B68F1
:10143C00224A9288114601228A4092B211461846DD
:10144C00FFF79FF91D4B1B681C4A9288114601221D
:10145C008A4091B200221846FFF7A1F917490223DE
:10146C00102203C9FFF7FAFD144B1B68134A92882C
:10147C00114601228A4092B211461846FFF781F9B3
:10148C000E4B1B680D4A9288114601228A4091B27C
:10149C0000221846FFF783F9084B022293E8030059
:1014AC00FFF703FE054B93E80300FFF762FE00BF56
:1014BC001037BD4680BD00BF001001401800002051
:1014CC0080B500AF124B022293E80300FFF7EDFD4D
:1014DC000F4B93E80300FFF736FE0E4B022293E806
:1014EC000300FFF7E2FD0B4B93E80300FFF72BFE25
:1014FC00094B022293E80300FFF7D7FD064B93E854
:10150C000300FFF720FE00F0B5FA00BF80BD00BF5E
:10151C0020000020E0000020E800002080B483B010
:10152C0000AF7860064A7B68136000BF044B1B68F1
:10153C00002BFBD100BF00BF0C37BD4680BC7047F1
:10154C004C01002080B483B000AF78607B684FF40E
:10155C007A7202FB03F3064A136000BF044B1B684C
:10156C00002BFBD100BF00BF0C37BD4680BC7047C1
:10157C004C01002080B582B000AF0023FB710BE062
:10158C00FB7909490222DB000B4493E80300FFF7C7
:10159C008CFDFB790133FB71FB79072BF0D900BF74
:1015AC0000BF0837BD4680BD9800002080B584B0D0
:1015BC0000AF0346FB710023FB731BE0FA79FB7B46
:1015CC0022FA03F303F00103002B08D0FB7B0D4A36
:1015DC00DB00134493E80300FFF7B5FD07E0FB7B4A
:1015EC00084ADB00134493E80300FFF7C2FDFB7BC2
:1015FC000133FB73FB7B072BE0D900BF00BF103717
:10160C00BD4680BD9800002080B500AF034B022280
:10161C0093E80300FFF749FD00BF80BDD800002010
:10162C0080B500AF034B93E80300FFF7A2FD00BFAA
:10163C0080BD00BFD800002080B500AF034B93E8FD
:10164C000300FFF780FD00BF80BD00BFD800002065
:10165C0080B500AF034B022293E80300FFF725FD92
:10166C0000BF80BDE000002080B500AF034B93E8C5
:10167C000300FFF77EFD00BF80BD00BFE00000202F
:10168C0080B500AF034B93E80300FFF75CFD00BF90
:10169C0080BD00BFE000002080B582B000AF0346E3
:1016AC00FB71FFF7BDFFFB79184600F02FF86420A3
:1016BC00FFF734FF00BF0837BD4680BD80B582B050
:1016CC0000AF0346FB71FFF7B7FFFB79184600F03C
:1016DC001DF86420FFF722FF0A4B1B780133DAB2A6
:1016EC00084B1A70074B1B78074A1278B3FBF2F1C0
:1016FC0001FB02F29B1ADAB2024B1A7000BF0837D8
:10170C00BD4680BD5C0100205A01002080B582B02E
:10171C0000AF0346FB71FFF72DFFFB791846FFF76F
:10172C0045FFFFF7ADFF0120FFF7F8FE00BF00BF3C
:10173C0000BF00BFFFF798FF00BF0837BD4680BD54
:10174C0080B500AF0120FFF7A7FF0320FFF7FAFEDB
:10175C0000BF80BD80B500AF0A4B00221A70094B48
:10176C0000225A70084B02221A70084B10221A7071
:10177C0000F00EF8FFF7E4FF0021002000F020F845
:10178C0000BF80BD5C010020590100205A010020DF
:10179C0080B500AFFFF738FFFFF75AFF3C20FFF78B
:1017AC007BFF3C20FFF778FF0C20FFF775FF06202E
:1017BC00FFF772FF3C20FFF76FFF00BF80BD0000FA
:1017CC0080B584B000AF03460A46FB711346BB716B
:1017DC000023FB731E4B1A78BB79B3FBF2F101FBB0
:1017EC0002F29B1ADAB21B4B5A701A4B5B78032B22
:1017FC0016D801A252F823F0151800081B1800087F
:10180C0021180008271800088023FB7308E0C02368
:10181C00FB7305E09423FB7302E0D423FB7300BF3E
:10182C000D4B1A78FB79B3FBF2F101FB02F29B1A18
:10183C00DAB2084B1A70074B1A78FB7B1344FB7314
:10184C00FB7B1846FFF728FF00BF1037BD4680BD55
:10185C00590100205C0100205A01002080B582B0A3
:10186C0000AF0346FB71FB790D2B19D00D2B1EDC41
:10187C00092B0AD00A2B1AD1124B5B780133DBB23D
:10188C0019460020FFF79CFF16E00E4B1B78023325
:10189C00DBB20C4A527811461846FFF791FF0BE069
:1018AC00084B5B7819460020FFF78AFF04E0FB79B0
:1018BC001846FFF703FF00BF012318460837BD4643
:1018CC0080BD00BF5C01002080B584B000AF7860A3
:1018DC0039600023FB600CE07B685A1C7A601B7833
:1018EC001846FFF7BBFF0346002B08D0FB680133FB
:1018FC00FB603B685A1E3A60002BEDD100E000BF44
:10190C00FB6818461037BD4680BD80B582B000AF6D
:10191C0078607B68002B01D1002308E07868FEF723
:10192C000FFC034619467868FFF7CEFF03461846AE
:10193C000837BD4680BD2DE9B04396B000AFC7E96E
:10194C0002011346FB7107F1100340337B657B6D7D
:10195C0000221A70FB79012B01D80A23FB71FB7949
:10196C0000221C461546D7E9020122462B46FEF7FB
:10197C00EFFB134687F85330FB79002298469146CB
:10198C0042464B46D7E90201FEF7E2FB02460B4604
:10199C00C7E9022397F85330092B04D897F8533032
:1019AC003033DBB203E097F853303733DBB27A6D68
:1019BC00013A7A657A6D1370D7E902231343CED1BD
:1019CC00786DFFF7A2FF034618465837BD46BDE8B1
:1019DC00B08380B582B000AF78607868FFF795FF70
:1019EC00034618460837BD4680BD80B582B000AFAF
:1019FC0003463A60FB710B46BB71BA79FB79114611
:101A0C001846FFF7DDFE3868FFF7E3FF034618467C
:101A1C000837BD4680BDB0B582B000AF0346396013
:101A2C00FB71FB7900221C4615463A682046294674
:101A3C0000F005F8034618460837BD46B0BD80B522
:101A4C0084B000AFC7E902017A607B68002B05D136
:101A5C003B7A1846FFF702FF034607E07B68DBB2D0
:101A6C001A46D7E90201FFF766FF034618461037FE
:101A7C00BD4680BD80B582B000AF0023FB710AE08B
:101A8C00FB79094ADB00134493E80300FFF7AFFB33
:101A9C00FB790133FB71FB79072BF1D900BF00BF38
:101AAC000837BD4680BD00BFF000002080B582B075
:101ABC0000AFFF23FB710023BB7117E0BB790F4A0A
:101ACC00DB00134493E80300FFF7ABFB0346002B4A
:101ADC0009D1BB79012202FA03F3DBB2DB43DAB2A0
:101AEC00FB791340FB71BB790133BB71BB79072BBD
:101AFC00E4D9FB7918460837BD4680BDF0000020BC
:101B0C0080B582B000AFFF23FB71FFF7B3FF134B1F
:101B1C00022293E80300FFF7C8FA104B93E8030086
:101B2C00FFF711FB0D4B93E80300FFF722FB0A2094
:101B3C00FFF7F4FC00BF00BF00BF00BF00BF00BF39
:101B4C00FFF7B4FF0346FB71044B93E80300FFF768
:101B5C00FAFAFB7918460837BD4680BDE80000202C
:101B6C0080B500AF114B1B78F42B1AD0F42B1BDC77
:101B7C00EC2B13D0EC2B17DCDC2B0CD0DC2B13DC7C
:101B8C007C2B02D0BC2B03D00EE000F05DF80BE0F8
:101B9C0000F07CF808E000F09BF805E000F0BAF8E3
:101BAC0002E000F0D9F800BF00BF80BD600100204A
:101BBC0080B582B000AF0346FB710A4AFB79137003
:101BCC00FFF758FF084B022293E80300FFF76DFA6A
:101BDC00054B93E80300FFF7B6FA00BF0837BD4684
:101BEC0080BD00BF61010020E800002080B500AF7F
:101BFC00FFF766FCFFF784FF03461A46044B1B787D
:101C0C001340DAB2034B1A70024B1B78184680BD96
:101C1C00610100206001002080B500AF074B1A78ED
:101C2C00074B1B789A4207D0064B05221A70054BBE
:101C3C0000225A70FFF794FF00BF80BD60010020A6
:101C4C00610100208C01002080B500AF0D4A0121FC
:101C5C000020FFF7CAFE0C4B1B78C3F3C013DBB29A
:101C6C00DB43DBB203F00103D9B2074A137861F30B
:101C7C00C713137000214FF08040FEF7F7FE00BF32
:101C8C0080BD00BF782500085401002080B500AF4E
:101C9C000D4A01210020FFF7A8FE0C4B1B78C3F363
:101CAC008013DBB2DB43DBB203F00103D9B2074A8A
:101CBC00137861F38613137001214FF08040FEF707
:101CCC00D5FE00BF80BD00BF8C250008540100204C
:101CDC0080B500AF0C4A01210020FFF786FE0B4BAC
:101CEC001B78C3F34013DBB2DB43DBB203F001031D
:101CFC00D9B2064A137861F34513137000210448D6
:101D0C00FEF7B4FE00BF80BDA025000854010020E2
:101D1C000004004080B500AF0C4A01210020FFF701
:101D2C0064FE0B4B1B78C3F30013DBB2DB43DBB25B
:101D3C0003F00103D9B2064A137861F3041313704C
:101D4C0001210448FEF792FE00BF80BDB4250008B7
:101D5C00540100200004004080B500AF0A4A012164
:101D6C000020FFF742FE094B1B78C3F3C003DBB224
:101D7C00DB43DBB203F00103D9B2044A137861F3FD
:101D8C00C303137000BF80BDC82500085401002098
:101D9C0080B582B000AF0023FB71204B1B78042B65
:101DAC0037D801A252F823F0C91D00081F1E0008E5
:101DBC00DD1D0008F71D0008071E0008184B1B68E6
:101DCC0047F22F52934221D9144B02221A701DE074
:101DDC00144B1B6840F6AB52934219D9114B00229D
:101DEC001A600E4B03221A7012E0FFF7FFFE034637
:101DFC00FB710A4B04221A700BE0FFF70DFF084B26
:101E0C0000221A60054B00221A7002E000BF00E0AD
:101E1C0000BF00BF0837BD4680BD00BF6201002077
:101E2C00640100206801002080B582B000AF2E4B09
:101E3C001B78002B54D02D4A00210020FFF7D5FD34
:101E4C002B4A01210020FFF7D0FD2A4B1B780A21D9
:101E5C001846FFF7E0FD2848FFF7BBFD224B002298
:101E6C001A700023BB80234B1B78244AA2FB03234C
:101E7C00DB08DBB27B711F4B1A78204BA3FB0213E0
:101E8C00D9080B469B000B445B00D31ADBB23B71A9
:101E9C00BB8803F5405330339BB2BB8052211848AA
:101EAC0000F01CFB4C21164800F018FB592114487B
:101EBC0000F014FB3A21124800F010FB7B79194614
:101ECC000F4800F00BFB3B7919460D4800F006FB60
:101EDC000D210B4800F002FB0A21094800F0FEFA24
:101EEC0000BF0837BD4680BD500100200826000801
:101EFC00142600085801002020260008CDCCCCCC9C
:101F0C000038014080B500AF144B1B78002B02D079
:101F1C00012B0CD01FE0124B1B68124A934219D9AB
:101F2C000E4B01221A700E4B00221A6012E000F0C8
:101F3C0045F90D4B93E80300FFF731F90B4B1B6888
:101F4C0001330A4A1360064B00221A60034B00222D
:101F5C001A7000E000BF00BF80BD00BF7C010020F4
:101F6C0080010020A08601001800002084010020C0
:101F7C0080B483B000AF03463960FB7197F907302A
:101F8C00002B0BDA3B68DAB20C49FB7903F00F0338
:101F9C00043B1201D2B20B441A7609E03B68DAB268
:101FAC00074997F907301201D2B20B4483F800238A
:101FBC0000BF0C37BD4680BC704700BF00ED00E091
:101FCC0000E100E080B582B000AF78607B68B3F1CF
:101FDC00807F01D3012311E07B6823F07F43094A02
:101FEC00013B53600F214FF0FF30FFF7C1FF054B52
:101FFC0000229A60034B07221A6000231846083708
:10200C00BD4680BD10E000E080B500AF4FF4E0604D
:10201C00FEF72AFA3A4B1B685B093A4AA2FB0323E8
:10202C00DB091846FFF7CEFF0346002B00D0FEE776
:10203C00354B00221A60354B00221A70344B0522A6
:10204C001A70334B00225A7001210420FEF774FCE5
:10205C0001210820FEF770FC01211020FEF76CFC1A
:10206C0001212020FEF768FC2A4B00221A60FFF7A2
:10207C009FF9FFF7EDF8FFF70FF9274BFF221A70C6
:10208C00264B00221A70244B1B781846FFF720F9B8
:10209C00224B1B781846FFF75DF9214B00221A7072
:1020AC00FC20FFF785FDFFF755FBFFF771FB1D4A81
:1020BC0000210020FFF799FC1B4B00221A7000F046
:1020CC0089F800F041F9194B00221A70184B0022C4
:1020DC001A60184B00221A60174B00221A70174B0B
:1020EC0000221A60164B00221A70164B00221A603E
:1020FC00154B00221A70154B00221A6000BF80BDD0
:10210C0014000020C55A7C0A84010020880100209C
:10211C008C0100204C0100205401002058010020AB
:10212C0051010020282600085001002062010020E7
:10213C0064010020680100206C0100207001002067
:10214C0074010020780100207C0100208001002017
:10215C0080B500AFFFF71CFEFFF766FEFFF7D2FE5F
:10216C0000BF80BD80B400AF0F4B1B78002B04D197
:10217C000E4B1B6801330D4A13600B4B1B78022B63
:10218C0004D10B4B1B680133094A1360094B1B78B4
:10219C00002B04D1084B1B680133074A136000BFA6
:1021AC00BD4680BC704700BF620100206401002066
:1021BC00680100207C0100208001002080B500AF68
:1021CC00034B1B781846FFF783F800BF80BD00BF98
:1021DC005401002080B584B000AF1D4BDB691C4A54
:1021EC0043F00203D3611D233B7300237B730B234A
:1021FC00BB730123FB7307F10C031846FEF746F97A
:10220C00144B1B68144AA2FB03235B0B9BB2013BD0
:10221C009BB23B8042F21073BB8000237B803B4619
:10222C0019460E48FEF7A6FB0C4B9B899BB20B4A3A
:10223C0043F001039BB29381084B1B889BB2074A66
:10224C0043F001039BB2138000BF1037BD4680BD25
:10225C0000100240140000205917B7D100040040B0
:10226C0080B500AF01214FF08040FEF71EFC00BF8F
:10227C0080BD000080B582B000AF0023FB8001213F
:10228C000D48FEF712FC0D4B1B783E2B04D80B4B64
:10229C001B780133DBB200E00023084A1370074BB4
:1022AC001B781846FFF756F8054B01221A7000BF31
:1022BC000837BD4680BD00BF000400405801002017
:1022CC005001002080B483B000AF0B4B00221A7079
:1022DC000023FB7106E0FB79084A0021D154FB79FD
:1022EC000133FB71FB793F2BF5D900BF00BF0C37D5
:1022FC00BD4680BC704700BFD0010020900100207B
:10230C0080B483B000AF0346FB710D4B1B78DBB27E
:10231C00402B0FD80A4B1B78DBB20133DAB2084BD7
:10232C001A70074B1B78DBB2013B0649FA79CA5489
:10233C00012300E0002318460C37BD4680BC7047D3
:10234C00D00100209001002080B500AF00F042F8D1
:10235C00FFF7B8FF00BF80BD80B584B000AF7860D8
:10236C000023FB730023BB817B681B889BB2BB8162
:10237C007B689B889BB2DBB2FB73FB7BDBB21946A1
:10238C00114800F0ABF8FB7BDBB23B2B02D10F4BBF
:10239C0000221A700F210C48FEF7D4FC0346002BC8
:1023AC000CD1FB7BDBB21846FFF7AAFF0346002BD0
:1023BC0004D1FFF787FF064B01221A70FB7BDBB2BF
:1023CC0018461037BD4680BD00380140580100202A
:1023DC00D101002080B586B000AF01214FF48040C0
:1023EC00FEF7AAFA01210520FEF7A6FA07F114035D
:1023FC001846FEF769F94FF40073BB820323BB75D3
:10240C001823FB7507F1140319462048FEF7A0F8B2
:10241C004FF48063BB820323BB750423FB7507F168
:10242C00140319461948FEF793F825233B7400232F
:10243C007B740823BB740123FB7407F1100318464B
:10244C00FEF724F83B461846FEF7FAFB4FF4E1334F
:10245C003B600C237B8100233B810023FB8000230A
:10246C00BB800023BB813B4619460948FEF72EFB77
:10247C00012240F225510648FEF71DFC01210448BB
:10248C00FEF7FAFB00BF1837BD4680BD00080140BF
:10249C000038014080B582B000AF0023FB710023EF
:1024AC00BB8040F225510648FEF767FC0346002B23
:1024BC0002D00348FFF750FF00BF0837BD4680BD70
:1024CC000038014080B400AF00BFBD4680BC7047EF
:1024DC0080B400AF00BFBD4680BC704780B582B0F1
:1024EC0000AF78600B46FB7000BF80217868FEF768
:1024FC0029FC0346002BF8D0FB789AB27B689A80B3
:10250C00002318460837BD4680BD0000002103E0BB
:10251C000A4B5B584350043109480A4B42189A4203
:10252C00F6D3094A02E0002342F8043B074B9A42D7
:10253C00F9D3FEF7B3FCFDF78FFF70474426000874
:10254C00000000203001002030010020D4010020C8
:10255C00FEE70000F8B500BFF8BC08BC9E4670470B
:0C256C00F8B500BFF8BC08BC9E467047E4
:102578007570206B657920707265737365642E2E93
:102588002E000000646F776E206B6579207072658D
:10259800737365642E2E2E00736574206B65792025
:1025A800707265737365642E2E2E00006573632048
:1025B8006B657920707265737365642E2E2E00002A
:1025C80073686674206B65792070726573736564CF
:1025D8002E2E2E00696E666F206B657920707265ED
:1025E800737365642E2E2E000A72785F6275662DED
:1025F8006C656E3A0000000072785F6275663A009A
:1026080073746D33326631307820000054494D328E
:102618002E2E2E2020000000202020202020200008
:0C26280073746D3332663130782020006E
:0826340058DBFF7F01000000EC
:04263C003101000860
:042640000D01000880
:102644000000000001020304010203040607080954
:102654000204060800A24A04001001400D00000014
:10266400000C01400A0000000008014007000000BF
:1026740000080140060000000008014005000000B9
:1026840000080140040000000008014003000000AD
:1026940000080140020000000008014001000000A1
:1026A4000008014000000000000C01400900000087
:1026B400000C014008000000000C0140070000006D
:1026C400000C014006000000000C01400500000061
:1026D4000008014008000000000801400700000055
:1026E4000008014006000000000801400500000049
:1026F400000801400400000000080140030000003D
:102704000008014002000000000801400100000030
:102714000008014000000000000C0140010000001E
:10272400000C014000000000000C01400B00000000
:102734000008014000000000000801400100000002
:1027440000080140020000000008014003000000EE
:1027540000080140040000000008014005000000DA
:1027640000080140060000000008014007000000C6
:0400000508002519B1
:00000001FF
