:020000040800F2
:1000000000500020057D0008FD1E0008091F0008A3
:100010000F1F0008151F00081B1F0008000000002C
:10002000000000000000000000000000211F000888
:100030002D1F000800000000391F0008451F0008A0
:10004000497D0008497D0008497D0008497D000878
:10005000497D0008497D0008497D0008497D000868
:10006000497D0008497D0008497D0008497D000858
:10007000497D0008497D0008497D0008497D000848
:10008000497D0008497D0008497D0008497D000838
:10009000497D0008497D0008497D0008497D000828
:1000A000497D0008497D0008497D0008497D000818
:1000B000253F0008393F0008497D0008497D0008B8
:1000C000497D0008497D0008497D0008497D0008F8
:1000D000497D0008315D0008615D00086D5D000824
:1000E000497D0008497D0008497D000800000000A6
:1000F0000000000000000000000000000000000000
:0C01000000000000000000005FF808F1A3
:10010C0010B5054C237833B9044B13B10448AFF345
:10011C0000800123237010BD180200200000000095
:10012C00C47F000808B5034B1BB103490348AFF368
:10013C00008008BD000000001C020020C47F0008E5
:10014C00034613F8012B002AFBD1181A013870470B
:10015C0081F0004102E000BF83F0004330B54FEA6C
:10016C0041044FEA430594EA050F08BF90EA020FD9
:10017C001FBF54EA000C55EA020C7FEA645C7FEA6C
:10018C00655C00F0E2804FEA5454D4EB5555B8BF8F
:10019C006D420CDD2C4480EA020281EA030382EA00
:1001AC00000083EA010180EA020281EA0303362D92
:1001BC0088BF30BD11F0004F4FEA01314FF4801C65
:1001CC004CEA113102D0404261EB410113F0004F77
:1001DC004FEA03334CEA133302D0524263EB43032E
:1001EC0094EA050F00F0A780A4F10104D5F1200ECC
:1001FC000DDB02FA0EFC22FA05F2801841F1000127
:10020C0003FA0EF2801843FA05F359410EE0A5F1FA
:10021C0020050EF1200E012A03FA0EFC28BF4CF02B
:10022C00020C43FA05F3C01851EBE37101F00045E1
:10023C0007D54FF0000EDCF1000C7EEB00006EEBEE
:10024C000101B1F5801F1BD3B1F5001F0CD3490878
:10025C005FEA30004FEA3C0C04F101044FEA4452CF
:10026C0012F5800F80F09A80BCF1004F08BF5FEA56
:10027C00500C50F1000041EB045141EA050130BD36
:10028C005FEA4C0C404141EB0101013C28BFB1F548
:10029C00801FE9D291F0000F04BF01460020B1FA93
:1002AC0081F308BF2033A3F10B03B3F120020CDA66
:1002BC000C3208DD02F1140CC2F10C0201FA0CF044
:1002CC0021FA02F10CE002F11402D8BFC2F1200CA9
:1002DC0001FA02F120FA0CFCDCBF41EA0C0190405F
:1002EC00E41AA2BF01EB0451294330BD6FEA0404A8
:1002FC001F3C1CDA0C340EDC04F11404C4F1200293
:10030C0020FA04F001FA02F340EA030021FA04F3A4
:10031C0045EA030130BDC4F10C04C4F1200220FAFB
:10032C0002F001FA04F340EA0300294630BD21FA39
:10033C0004F0294630BD94F0000F83F4801306BFFF
:10034C0081F480110134013D4EE77FEA645C18BFF3
:10035C007FEA655C29D094EA050F08BF90EA020F8A
:10036C0005D054EA000C04BF1946104630BD91EA82
:10037C00030F1EBF0021002030BD5FEA545C05D185
:10038C004000494128BF41F0004130BD14F58004C4
:10039C003CBF01F5801130BD01F0004545F0FE4138
:1003AC0041F470014FF0000030BD7FEA645C1ABF6D
:1003BC00194610467FEA655C1CBF0B46024650EAA4
:1003CC00013406BF52EA033591EA030F41F40021D0
:1003DC0030BD00BF90F0000F04BF0021704730B556
:1003EC004FF4806404F132044FF000054FF000012B
:1003FC0050E700BF90F0000F04BF0021704730B5EC
:10040C004FF4806404F1320410F0004548BF4042C0
:10041C004FF000013EE700BF42004FEAE2014FEA15
:10042C0031014FEA02701FBF12F07F4393F07F4FF0
:10043C0081F06051704732F07F4208BF704793F0F3
:10044C007F4F04BF41F40021704730B54FF4607406
:10045C0001F0004521F000411CE700BF50EA010209
:10046C0008BF704730B54FF000050AE050EA0102B2
:10047C0008BF704730B511F0004502D5404261EB22
:10048C0041014FF4806404F132045FEA915C3FF463
:10049C00D8AE4FF003025FEADC0C18BF03325FEA00
:1004AC00DC0C18BF033202EBDC02C2F1200300FAB1
:1004BC0003FC20FA02F001FA03FE40EA0E0021FAD6
:1004CC0002F11444BDE600BF70B54FF0FF0C4CF4C4
:1004DC00E06C1CEA11541DBF1CEA135594EA0C0F76
:1004EC0095EA0C0F00F0DEF82C4481EA030621EAB1
:1004FC004C5123EA4C5350EA013518BF52EA0335EC
:10050C0041F4801143F4801338D0A0FB02CE4FF09D
:10051C000005E1FB02E506F00042E0FB03E54FF0CD
:10052C000006E1FB03569CF0000F18BF4EF0010EC5
:10053C00A4F1FF04B6F5007F64F5407404D25FEAC1
:10054C004E0E6D4146EB060642EAC62141EA555174
:10055C004FEAC52040EA5E504FEACE2EB4F1FD0CB6
:10056C0088BFBCF5E06F1ED8BEF1004F08BF5FEA34
:10057C00500E50F1000041EB045170BD06F00046E6
:10058C0046EA010140EA020081EA0301B4EB5C0493
:10059C00C2BFD4EB0C0541EA045170BD41F480118B
:1005AC004FF0000E013C00F3AB8014F1360FDEBFB0
:1005BC00002001F0004170BDC4F10004203C35DA8C
:1005CC000C341BDC04F11404C4F1200500FA05F30F
:1005DC0020FA04F001FA05F240EA020001F00042B0
:1005EC0021F0004110EBD37021FA04F642EB060126
:1005FC005EEA430E08BF20EAD37070BDC4F10C0450
:10060C00C4F1200500FA04F320FA05F001FA04F213
:10061C0040EA020001F0004110EBD37041F10001FF
:10062C005EEA430E08BF20EAD37070BDC4F120050A
:10063C0000FA05F24EEA020E20FA04F301FA05F272
:10064C0043EA020321FA04F001F0004121FA04F21A
:10065C0020EA020000EBD3705EEA430E08BF20EAEA
:10066C00D37070BD94F0000F0FD101F00046400024
:10067C0041EB010111F4801F08BF013CF7D041EAA6
:10068C00060195F0000F18BF704703F000465200AA
:10069C0043EB030313F4801F08BF013DF7D043EA7B
:1006AC000603704794EA0C0F0CEA135518BF95EA31
:1006BC000C0F0CD050EA410618BF52EA4306D1D1B8
:1006CC0081EA030101F000414FF0000070BD50EAD7
:1006DC00410606BF1046194652EA430619D094EA61
:1006EC000C0F02D150EA013613D195EA0C0F05D14B
:1006FC0052EA03361CBF104619460AD181EA03019F
:10070C0001F0004141F0FE4141F470014FF0000056
:10071C0070BD41F0FE4141F4780170BD70B54FF0F1
:10072C00FF0C4CF4E06C1CEA11541DBF1CEA135571
:10073C0094EA0C0F95EA0C0F00F0A7F8A4EB050453
:10074C0081EA030E52EA03354FEA013100F088804A
:10075C004FEA03334FF0805545EA131343EA126313
:10076C004FEA022245EA111545EA10654FEA0026C8
:10077C000EF000419D4208BF964244F1FD0404F581
:10078C00407402D25B084FEA3202B61A65EB0305DD
:10079C005B084FEA32024FF480104FF4002CB6EB9A
:1007AC00020E75EB030E22BFB61A754640EA0C001A
:1007BC005B084FEA3202B6EB020E75EB030E22BF5A
:1007CC00B61A754640EA5C005B084FEA3202B6EB9B
:1007DC00020E75EB030E22BFB61A754640EA9C005A
:1007EC005B084FEA3202B6EB020E75EB030E22BF2A
:1007FC00B61A754640EADC0055EA060E18D04FEAE8
:10080C00051545EA16754FEA06164FEAC30343EA87
:10081C0052734FEAC2025FEA1C1CC0D111F4801F54
:10082C000BD141EA00014FF000004FF0004CB6E74D
:10083C0011F4801F04BF01430020B4F1FD0C88BFEC
:10084C00BCF5E06F3FF6AFAEB5EB030C04BFB6EBF7
:10085C00020C5FEA500C50F1000041EB045170BDEA
:10086C000EF0004E4EEA113114EB5C04C2BFD4EB17
:10087C000C0541EA045170BD41F480114FF0000E9B
:10088C00013C90E645EA060E8DE60CEA135594EA17
:10089C000C0F08BF95EA0C0F3FF43BAF94EA0C0F1A
:1008AC000AD150EA01347FF434AF95EA0C0F7FF48F
:1008BC0025AF104619462CE795EA0C0F06D152EAE3
:1008CC0003353FF4FDAE1046194622E750EA4106C7
:1008DC0018BF52EA43067FF4C5AE50EA41047FF4D8
:1008EC000DAF52EA43057FF4EBAE12E74FF0FF3C3D
:1008FC0006E000BF4FF0010C02E000BF4FF0010C0E
:10090C004DF804CD4FEA410C7FEA6C5C4FEA430C86
:10091C0018BF7FEA6C5C1BD001B050EA410C0CBFD5
:10092C0052EA430C91EA030F02BF90EA020F002037
:10093C00704710F1000F91EA030F58BF994208BF9E
:10094C0090422CBFD8176FEAE37040F0010070475B
:10095C004FEA410C7FEA6C5C02D150EA013C07D1B2
:10096C004FEA430C7FEA6C5CD6D152EA033CD3D0FD
:10097C005DF8040B704700BF8446104662468C46F7
:10098C001946634600E000BF01B5FFF7B7FF00282A
:10099C0048BF10F1000F01BD4DF808EDFFF7F4FF53
:1009AC000CBF012000205DF808FB00BF4DF808EDDE
:1009BC00FFF7EAFF34BF012000205DF808FB00BF01
:1009CC004DF808EDFFF7E0FF94BF012000205DF823
:1009DC0008FB00BF4DF808EDFFF7CEFF94BF0120D8
:1009EC0000205DF808FB00BF4DF808EDFFF7C4FFD1
:1009FC0034BF012000205DF808FB00BF4A0011D273
:100A0C0012F5001211D20DD56FF47873B3EB62525C
:100A1C000ED44FEAC12343F0004343EA505323FA68
:100A2C0002F070474FF00000704750EA013002D1DD
:100A3C004FF0FF3070474FF0000070474FEA410213
:100A4C00B2F1E04324BFB3F5001CDCF1FE5C0DD920
:100A5C0001F0004C4FEAC0024CEA5070B2F1004F6A
:100A6C0040EB830008BF20F00100704711F0804F6D
:100A7C0021D113F13872BCBF01F00040704741F432
:100A8C0080114FEA5252C2F11802C2F1200C10FA36
:100A9C000CF320FA02F018BF40F001004FEAC1231A
:100AAC004FEAD32303FA0CFC40EA0C0023FA02F3BE
:100ABC004FEA4303CCE77FEA625307D150EA013394
:100ACC001EBF4FF0FE4040F44000704701F0004064
:100ADC0040F0FE4040F40000704700BF80F0004042
:100AEC0002E000BF81F0004142001FBF5FEA4103FA
:100AFC0092EA030F7FEA226C7FEA236C6AD04FEAFA
:100B0C001262D2EB1363C1BFD2184140484041403E
:100B1C00B8BF5B42192B88BF704710F0004F40F4F0
:100B2C00000020F07F4018BF404211F0004F41F40C
:100B3C00000121F07F4118BF494292EA030F3FD0D8
:100B4C00A2F1010241FA03FC10EB0C00C3F12003EB
:100B5C0001FA03F100F0004302D5494260EB40007A
:100B6C00B0F5000F13D3B0F1807F06D340084FEAE5
:100B7C00310102F10102FE2A51D2B1F1004F40EBDA
:100B8C00C25008BF20F0010040EA03007047490042
:100B9C0040EB0000013A28BFB0F5000FEDD2B0FADF
:100BAC0080FCACF1080CB2EB0C0200FA0CF0AABF02
:100BBC0000EBC25052421843BCBFD04018437047A0
:100BCC0092F0000F81F4000106BF80F400000132A6
:100BDC00013BB5E74FEA41037FEA226C18BF7FEA7D
:100BEC00236C21D092EA030F04D092F0000F08BFBF
:100BFC000846704790EA010F1CBF0020704712F0A6
:100C0C007F4F04D1400028BF40F00040704712F1E4
:100C1C0000723CBF00F50000704700F0004343F049
:100C2C00FE4040F4000070477FEA226216BF08467F
:100C3C007FEA23630146420206BF5FEA412390EA42
:100C4C00010F40F4800070474FF0000304E000BF38
:100C5C0010F0004348BF40425FEA000C08BF7047E9
:100C6C0043F0964301464FF000001CE050EA0102AD
:100C7C0008BF70474FF000030AE000BF50EA0102C2
:100C8C0008BF704711F0004302D5404261EB4101AF
:100C9C005FEA010C02BF84460146002043F0B643D4
:100CAC0008BFA3F18053A3F50003BCFA8CF2083AF9
:100CBC00A3EBC25310DB01FA02FC634400FA02FC02
:100CCC00C2F12002BCF1004F20FA02F243EB020009
:100CDC0008BF20F00100704702F1200201FA02FC6B
:100CEC00C2F1200250EA4C0021FA02F243EB02005E
:100CFC0008BF20EADC7070474FF0FF0C1CEAD052A2
:100D0C001EBF1CEAD15392EA0C0F93EA0C0F6FD062
:100D1C001A4480EA010C400218BF5FEA41211ED040
:100D2C004FF0006343EA501043EA5111A0FB01312C
:100D3C000CF00040B1F5000F3EBF490041EAD37101
:100D4C005B0040EA010062F17F02FD2A1DD8B3F17D
:100D5C00004F40EBC25008BF20F00100704790F0EC
:100D6C00000F0CF0004C08BF49024CEA502040EA3E
:100D7C0051207F3AC2BFD2F1FF0340EAC250704704
:100D8C0040F400004FF00003013A5DDC12F1190F42
:100D9C00DCBF00F000407047C2F10002410021FAB4
:100DAC0002F1C2F1200200FA02FC5FEA310040F1CC
:100DBC00000053EA4C0308BF20EADC70704792F045
:100DCC00000F00F0004C02BF400010F4000F013A7D
:100DDC00F9D040EA0C0093F0000F01F0004C02BF78
:100DEC00490011F4000F013BF9D041EA0C018FE7E7
:100DFC000CEAD15392EA0C0F18BF93EA0C0F0AD0ED
:100E0C0030F0004C18BF31F0004CD8D180EA010012
:100E1C0000F00040704790F0000F17BF90F0004FAB
:100E2C00084691F0000F91F0004F14D092EA0C0F8D
:100E3C0001D142020FD193EA0C0F03D14B0218BF20
:100E4C00084608D180EA010000F0004040F0FE4066
:100E5C0040F40000704740F0FE4040F44000704702
:100E6C004FF0FF0C1CEAD0521EBF1CEAD15392EA81
:100E7C000C0F93EA0C0F69D0A2EB030280EA010C71
:100E8C0049024FEA402037D04FF0805343EA11110A
:100E9C0043EA10130CF000408B4238BF5B0042F168
:100EAC007D024FF4000C8B4224BF5B1A40EA0C000D
:100EBC00B3EB510F24BFA3EB510340EA5C00B3EB3F
:100ECC00910F24BFA3EB910340EA9C00B3EBD10F2D
:100EDC0024BFA3EBD10340EADC001B0118BF5FEA7F
:100EEC001C1CE0D1FD2A3FF650AF8B4240EBC250A8
:100EFC0008BF20F0010070470CF0004C4CEA502069
:100F0C007F32C2BFD2F1FF0340EAC250704740F4B7
:100F1C0000004FF00003013A37E792F0000F00F0A9
:100F2C00004C02BF400010F4000F013AF9D040EA27
:100F3C000C0093F0000F01F0004C02BF490011F4BB
:100F4C00000F013BF9D041EA0C0195E70CEAD153B3
:100F5C0092EA0C0F08D142027FF47DAF93EA0C0F9A
:100F6C007FF470AF084676E793EA0C0F04D14B027E
:100F7C003FF44CAF08466EE730F0004C18BF31F030
:100F8C00004CCAD130F000427FF45CAF31F000432A
:100F9C007FF43CAF5FE700BF4FF0FF3C06E000BFC3
:100FAC004FF0010C02E000BF4FF0010C4DF804CDE6
:100FBC004FEA40024FEA41037FEA226C18BF7FEAF6
:100FCC00236C11D001B052EA530C18BF90EA010FF8
:100FDC0058BFB2EB030088BFC81738BF6FEAE17087
:100FEC0018BF40F0010070477FEA226C02D15FEA23
:100FFC00402C05D17FEA236CE4D15FEA412CE1D08F
:10100C005DF8040B704700BF844608466146FFE755
:10101C000FB5FFF7C9FF002848BF10F1000F0FBD37
:10102C004DF808EDFFF7F4FF0CBF012000205DF830
:10103C0008FB00BF4DF808EDFFF7EAFF34BF0120B5
:10104C0000205DF808FB00BF4DF808EDFFF7E0FF4E
:10105C0094BF012000205DF808FB00BF4DF808ED9F
:10106C00FFF7D2FF94BF012000205DF808FB00BF02
:10107C004DF808EDFFF7C8FF34BF012000205DF8E4
:10108C0008FB00BF42000ED2B2F1FE4F0BD34FF063
:10109C009E03B3EB126209D44FEA002343F00043E2
:1010AC0023FA02F070474FF00000704712F1610F05
:1010BC0001D1420202D14FF0FF3070474FF00000D7
:1010CC00704700BF53B94AB9002908BF00281CBF9C
:1010DC004FF0FF314FF0FF3000F076B9ADF1080C56
:1010EC006DE904CE00F006F8DDF804E0DDE902233A
:1010FC0004B070472DE9F047089E0D46044688461B
:10110C00002B4DD18A42944668D9B2FA82F252B180
:10111C0001FA02F3C2F1200120FA01F10CFA02FCEF
:10112C0041EA030894404FEA1C41B8FBF1F71FFA5F
:10113C008CFE01FB178807FB0EF0230C43EA0843D7
:10114C0098420AD91CEB030307F1FF3580F01E818E
:10115C00984240F21B81023F63441B1AB3FBF1F02F
:10116C0001FB103300FB0EFEA4B244EA0344A64577
:10117C000AD91CEB040400F1FF3380F00981A64569
:10118C0040F20681644402380021A4EB0E0440EACC
:10119C0007401EB10023D440C6E90043BDE8F087E8
:1011AC008B4208D9002E00F0EE800021C6E9000524
:1011BC000846BDE8F087B3FA83F100294AD1AB4267
:1011CC0002D3824200F2FC80841A65EB03030120F7
:1011DC009846002EE2D0C6E90048DFE702B9FFDEF0
:1011EC00B2FA82F2002A40F09180A1EB0C000121AE
:1011FC004FEA1C471FFA8CFEB0FBF7F307FB1300FA
:10120C00250C45EA00450EFB03F0A84208D91CEB5F
:10121C00050503F1FF3802D2A84200F2CE80434606
:10122C002D1AB5FBF7F007FB10550EFB00FEA4B210
:10123C0044EA0544A64508D91CEB040400F1FF352B
:10124C0002D2A64500F2B6802846A4EB0E0440EA72
:10125C0003409EE7C1F120078B4022FA07FC4CEAC1
:10126C00030C25FA07FA4FEA1C49BAFBF9F820FAE5
:10127C0007F309FB18AA8D401FFA8CFE1D4300FAD8
:10128C0001F308FB0EF02C0C44EA0A44A04202FACB
:10129C0001F20BD91CEB040408F1FF3A80F08880B2
:1012AC00A04240F28580A8F102086444241AB4FBE1
:1012BC00F9F009FB104400FB0EFEADB245EA044404
:1012CC00A64508D91CEB040400F1FF356CD2A645E9
:1012DC006AD90238644440EA0840A0FB0295A4EBAA
:1012EC000E04AC42C846AE4656D353D0002E69D03D
:1012FC00B3EB080264EB0E0422FA01F304FA07F7CD
:10130C001F43CC40C6E90074002147E70CFA02FCED
:10131C00C2F1200125FA01F34FEA1C4720FA01F132
:10132C0095400D43B3FBF7F107FB11331FFA8CFE0D
:10133C00280C40EA034001FB0EF3834204FA02F44A
:10134C0008D91CEB000001F1FF382FD283422DD9B4
:10135C0002396044C01AB0FBF7F307FB1300ADB2BF
:10136C0045EA004503FB0EF0A84208D91CEB050525
:10137C0003F1FF3816D2A84214D9023B6544281A4F
:10138C0043EA014138E73146304607E72F46E4E6A9
:10139C001846F9E64B45A9D2B9EB020865EB0C0EE1
:1013AC000138A3E74346EAE7284694E74146D1E7EC
:1013BC00D0467BE76444023847E7023B65442FE79D
:1013CC00084606E73146E9E6704700BF80B500AF36
:1013DC0002F036FC02F0C4FCFCE7000080B483B0E1
:1013EC0000AF7860054A7B6843F0BF6343F4003379
:1013FC00D36000BF0C37BD4680BC704700ED00E0E9
:10140C0080B487B000AF786000237B6100233B6120
:10141C000F23FB607B68DB78002B3AD0274BDB6813
:10142C00DB431B0A03F007037B617B69C3F10403F5
:10143C003B61FA687B6922FA03F3FB607B685B789B
:10144C001A463B6902FA03F37B617B689B781A4668
:10145C00FB6813407A6913437B617B691B017B61D9
:10146C00174A7B681B787969C9B213440A4683F81A
:10147C0000237B681B7803F01F0311497A681278EC
:10148C005209D2B21046012202FA03F341F820307D
:10149C000FE07B681B7803F01F0309497A68127808
:1014AC005209D2B2104601229A4000F1200341F8B1
:1014BC00232000BF1C37BD4680BC704700ED00E008
:1014CC0000E100E080B489B000AF7860396000239F
:1014DC00FB6100233B610023BB610023FB60002305
:1014EC007B610023BB603B68DB7803F00F03FB617F
:1014FC003B68DB7803F01003002B05D03B689B782E
:10150C001A46FB691343FB613B681B88DBB2002B5B
:10151C0044D07B681B687B610023BB6138E00122EF
:10152C00BB6902FA03F3FB603B681B881A46FB6835
:10153C0013403B613A69FB689A4226D1BB699B0018
:10154C00FB600F22FB6802FA03F3BB60BB68DB4352
:10155C007A6913407B61FA69FB6802FA03F37A69D2
:10156C0013437B613B68DB78282B05D10122BB69D7
:10157C009A407B685A6108E03B68DB78482B04D1C1
:10158C000122BB699A407B681A61BB690133BB615C
:10159C00BB69072BC3D97B687A691A603B681B88C7
:1015AC00FF2B46D97B685B687B610023BB613AE00B
:1015BC00BB690833012202FA03F3FB603B681B880A
:1015CC001A46FB6813403B613A69FB689A4227D183
:1015DC00BB699B00FB600F22FB6802FA03F3BB6044
:1015EC00BB68DB437A6913407B61FA69FB6802FADA
:1015FC0003F37A6913437B613B68DB78282B05D1B5
:10160C00BB69083301229A407B685A613B68DB78DE
:10161C00482B05D1BB69083301229A407B681A61BB
:10162C00BB690133BB61BB69072BC1D97B687A6984
:10163C005A6000BF2437BD4680BC704780B483B06D
:10164C0000AF78607B684FF6FF721A807B680222CD
:10165C009A707B680422DA7000BF0C37BD4680BCE0
:10166C00704780B485B000AF78600B467B80002358
:10167C00FB737B689A687B881340002B02D0012394
:10168C00FB7301E00023FB73FB7B18461437BD464C
:10169C0080BC704780B483B000AF78607B689B6877
:1016AC009BB218460C37BD4680BC704780B485B0E1
:1016BC0000AF78600B467B800023FB737B68DA6895
:1016CC007B881340002B02D00123FB7301E0002325
:1016DC00FB73FB7B18461437BD4680BC704780B447
:1016EC0083B000AF78607B68DB689BB218460C3720
:1016FC00BD4680BC704780B483B000AF78600B46A9
:10170C007B807A887B681A6100BF0C37BD4680BC31
:10171C00704780B483B000AF78600B467B80134673
:10172C007B707B78002B03D07A887B681A6102E08F
:10173C007A887B685A6100BF0C37BD4680BC704705
:10174C0080B58AB000AF786039600023FB84002339
:10175C007B840423BB84574BFB617B689B88FB8495
:10176C00FB8C23F03F03FB8407F10803184600F0C1
:10177C00C7F83B69FB61FB694F4AA2FB03239B0C37
:10178C007B84FA8C7B8C1343FB847B68FA8C9A8069
:10179C007B681B889BB223F001039AB27B681A808A
:1017AC000023FB843B681B68444A934215D83B6872
:1017BC001B685B00FA69B2FBF3F3BB84BB8C032B95
:1017CC0001D80423BB84FA8CBB8C1343FB847B8C25
:1017DC0001339AB27B681A8440E03B68DB884BF695
:1017EC00FF72934209D13B681A6813465B0013449D
:1017FC00FA69B2FBF3F3BB840EE03B681A6813463C
:10180C009B0013449A001344FA69B2FBF3F3BB84B4
:10181C00BB8C43F48043BB84BB8CC3F30B03002B06
:10182C0003D1BB8C43F00103BB84BA8CFB8C1343F8
:10183C009BB26FEA43436FEA5343FB847B8C4FF4B8
:10184C00967202FB03F31E4A82FB03129211DB1702
:10185C00D31A9BB201339AB27B681A847B68FA8CD8
:10186C009A837B681B889BB243F001039AB27B6816
:10187C001A807B681B88FB84FB8C23F4816323F028
:10188C000203FB843B689A883B685B8913439AB2DA
:10189C00FB8C1343FB847B68FA8C1A803B689A8917
:1018AC003B681B8913439AB27B681A8100BF2837A7
:1018BC00BD4680BD00127A0083DE1B43A08601006A
:1018CC00D34D621080B483B000AF78607B6841F276
:1018DC0088321A607B6800229A807B684BF6FF7214
:1018EC00DA807B6800221A817B6800225A817B682F
:1018FC004FF480429A8100BF0C37BD4680BC7047C4
:10190C0080B487B000AF786000237B6100233B611B
:10191C000023FB600023BB604F4B5B6803F00C03A0
:10192C007B617B69082B11D07B69082B3AD87B69CA
:10193C00002B03D07B69042B04D033E07B68474A2F
:10194C001A6033E07B68454A1A602FE0424B5B68B3
:10195C0003F470133B61404B5B6803F48033FB6012
:10196C003B699B0C02333B61FB68002B06D13B6946
:10197C003B4A03FB02F27B681A6017E0364B5B684C
:10198C0003F40033002B06D03B69354A03FB02F20B
:10199C007B681A600AE03B69304A03FB02F27B6801
:1019AC001A6003E07B682D4A1A6000BF2A4B5B6803
:1019BC0003F0F0037B617B691B097B61294A7B691E
:1019CC0013441B78DBB2BB607B681A68BB68DA40D7
:1019DC007B685A60204B5B6803F4E0637B617B6936
:1019EC001B0A7B611F4A7B6913441B78DBB2BB600B
:1019FC007B685A68BB68DA407B689A60164B5B68F8
:101A0C0003F460537B617B69DB0A7B61154A7B695C
:101A1C0013441B78DBB2BB607B685A68BB68DA4046
:101A2C007B68DA600C4B5B6803F440437B617B6939
:101A3C009B0B7B610C4A7B6913441B78DBB2BB604C
:101A4C007B68DA68BB68B2FBF3F27B681A6100BF93
:101A5C001C37BD4680BC70470010024000127A0053
:101A6C0000093D00000000201000002080B483B06D
:101A7C0000AF78600B46FB70FB78002B06D0094B4F
:101A8C009A6908497B6813438B6106E0054B9A6998
:101A9C007B68DB43034913408B6100BF0C37BD46A9
:101AAC0080BC70470010024080B483B000AF7860F7
:101ABC000B46FB70FB78002B06D0094BDA69084902
:101ACC007B681343CB6106E0054BDA697B68DB432B
:101ADC0003491340CB6100BF0C37BD4680BC704737
:101AEC000010024080B483B000AF78600B46FB70EE
:101AFC00FB78002B06D0094B1A6908497B68134305
:101B0C000B6106E0054B1A697B68DB430349134004
:101B1C000B6100BF0C37BD4680BC70470010024003
:101B2C0080B485B000AF786039600023FB817B689E
:101B3C001B88FB817B682E4A934213D07B682D4A0D
:101B4C0093420FD07B68B3F1804F0BD07B682A4A4D
:101B5C00934207D07B68294A934203D07B68284A7A
:101B6C00934208D1FB8923F07003FB813B685A88B0
:101B7C00FB891343FB817B68224A93420CD07B6820
:101B8C00214A934208D0FB8923F44073FB813B68C4
:101B9C00DA88FB891343FB817B68FA891A803B68DE
:101BAC009A887B689A853B681A887B681A857B685B
:101BBC000F4A93420FD07B680E4A93420BD07B683E
:101BCC00124A934207D07B68114A934203D07B6838
:101BDC00104A934204D13B681B7A9AB27B681A86EE
:101BEC007B6801229A8200BF1437BD4680BC7047C7
:101BFC00002C01400034014000040040000800406B
:101C0C00000C004000100040001400400040014057
:101C1C00004401400048014080B483B000AF7860BC
:101C2C000B46FB70FB78002B08D07B681B889BB2A3
:101C3C0043F001039AB27B681A8007E07B681B882B
:101C4C009BB223F001039AB27B681A8000BF0C3759
:101C5C00BD4680BC704780B483B000AF78600B4643
:101C6C007B807B88DB439AB27B681A8200BF0C377F
:101C7C00BD4680BC7047000080B58CB000AF78606A
:101C8C0039600023FB620023BB6200237B620023CC
:101C9C003B620023FB617B68FB617B681B8A9BB208
:101CAC00FB62FA6A4CF6FF731340FB623B68DB88FD
:101CBC001A46FB6A1343FB62FB6A9AB27B681A8270
:101CCC007B689B899BB2FB62FA6A4EF6F313134056
:101CDC00FB623B689A883B681B8913439AB23B684A
:101CEC005B8913439BB21A46FB6A1343FB62FB6A84
:101CFC009AB27B689A817B689B8A9BB2FB62FA6A78
:101D0C004FF6FF431340FB623B689B891A46FB6A04
:101D1C001343FB62FB6A9AB27B689A8207F1080351
:101D2C001846FFF7EDFDFB692E4A934202D17B6901
:101D3C00BB6201E03B69BB627B689B899BB21BB2B7
:101D4C00002B0CDABA6A13469B0013449A001A440F
:101D5C003B681B685B00B2FBF3F37B620BE0BA6A77
:101D6C0013469B0013449A001A443B681B689B0063
:101D7C00B2FBF3F37B627B6A1B4AA2FB03235B0976
:101D8C001B01FB62FB6A1B09642202FB03F37A6AE8
:101D9C00D31A3B627B689B899BB21BB2002B0CDA7B
:101DAC003B6ADB003233104AA2FB03235B0903F0CE
:101DBC000703FA6A1343FB620BE03B6A1B013233E5
:101DCC00094AA2FB03235B0903F00F03FA6A1343CE
:101DDC00FB62FB6A9AB27B681A8100BF3037BD4642
:101DEC0080BD00BF003801401F85EB5180B483B02B
:101DFC0000AF78607B684FF416521A607B68002243
:101E0C009A807B680022DA807B6800221A817B68CA
:101E1C000C225A817B6800229A8100BF0C37BD4688
:101E2C0080BC704780B483B000AF78600B46FB7009
:101E3C00FB78002B08D07B689B899BB243F4005342
:101E4C009AB27B689A8107E07B689B899BB223F4EA
:101E5C0000539AB27B689A8100BF0C37BD4680BC98
:101E6C00704780B487B000AF78600B467B80134618
:101E7C007B7000233B610023FB600023BB600023CD
:101E8C007B617B687B617B88DBB25B09DBB23B618E
:101E9C007B8803F01F03FB600122FB6802FA03F34B
:101EAC00BB603B69012B03D17B690C337B6109E07F
:101EBC003B69022B03D17B6910337B6102E07B69A8
:101ECC0014337B617B78002B06D07B6919687B69A6
:101EDC00BA680A431A6006E07B691968BB68DA4382
:101EEC007B690A401A6000BF1C37BD4680BC704736
:101EFC0080B400AF00BFBD4680BC704780B400AF5B
:101F0C00FEE780B400AFFEE780B400AFFEE780B41C
:101F1C0000AFFEE780B400AF00BFBD4680BC704789
:101F2C0080B400AF00BFBD4680BC704780B400AF2A
:101F3C0000BFBD4680BC704780B500AF114BD3E9E4
:101F4C000023501C43F100010E4BC3E900010E4B62
:101F5C001B68002B04D00C4B1B68013B0A4A136016
:101F6C000A4B1B68002B04D0084B1B68013B074A2B
:101F7C001360074B1B78002B01D001F005FF00BF4D
:101F8C0080BD00BFD002002034020020A801002038
:101F9C00E002002080B500AF154B1B68144A43F0DB
:101FAC0001031360124B5A681149124B13404B60DA
:101FBC000F4B1B680E4A23F0847323F48033136099
:101FCC000B4B1B680A4A23F480231360084B5B6895
:101FDC00074A23F4FE035360054B4FF41F029A602B
:101FEC0000F00CF8044B4FF000629A6000BF80BD0B
:101FFC00001002400000FFF800ED00E080B500AFDB
:10200C0000F002F800BF80BD80B483B000AF0023A5
:10201C007B6000233B603A4B1B68394A43F48033A6
:10202C001360374B1B6803F400333B607B68013350
:10203C007B603B68002B03D17B68B3F5A06FF0D1BC
:10204C002F4B1B6803F40033002B02D001233B60A1
:10205C0001E000233B603B68012B4BD1294B1B68F3
:10206C00284A43F010031360264B1B68254A23F0C3
:10207C0007031360234B1B68224A43F002031360CF
:10208C001F4B1F4A5B6853601D4B1D4A5B685360B6
:10209C001B4B5B681A4A43F480635360184B5B68B4
:1020AC00174A23F47C135360154B5B68144A43F4B2
:1020BC00E8135360124B1B68114A43F08073136092
:1020CC0000BF0F4B1B6803F00073002BF9D00C4BB7
:1020DC005B680B4A23F003035360094B5B68084AA7
:1020EC0043F00203536000BF054B5B6803F00C0325
:1020FC00082BF9D100BF0C37BD4680BC704700BF20
:10210C00001002400020024080B586B000AFF8609D
:10211C00B9607A603B603A68BB689A4202D34FF070
:10212C00FF3311E0FA683B681344BA6879681846C3
:10213C0005F023FE78617B69002B02D14FF0FF3351
:10214C0002E07A69FB68D31A18461837BD4680BD81
:10215C0080B588B000AFF860B9607A603B6000234E
:10216C00FB610023BB610023FB750023BB750023BF
:10217C007B752BE0FB697A68B968F868FFF7C4FFD8
:10218C00F861FB69B3F1FF3F20D0FB7D002B0DD034
:10219C00FB69D9B2BB69DAB2FB7D03F10053013B99
:1021AC00DB00386803448A1AD2B21A71FA69FB7DD3
:1021BC00DB0039680B44F9680A441A60FB69BB619F
:1021CC00FB690133FB61FB7D0133FB75FB69B3F1EB
:1021DC00FF3FCFD1FB7D002B32D0FB7D03F10053B1
:1021EC00013BDB003A68134400221A71FB7D03F1BA
:1021FC000053013BDB003A6813441A68FB68D31A9E
:10220C00BB75BB7D2022B968F868FFF77DFF0346DC
:10221C007B757B7D01332022B968F868FFF774FF6A
:10222C0003467B757A7DBB7DD31ABB60FB7D03F1C6
:10223C000053013BDB003A681344BA68D2B21A71FE
:10224C00FB7D18462037BD4680BD80B586B000AFFB
:10225C00F860B9607A603B6000237B6100233B61CE
:10226C003B6804337A68B968F868FFF771FF034676
:10227C00DAB23B685A703B685B78002B15D03B6830
:10228C005B78013B3A68DB0013445A68FB68D31A4D
:10229C007B613B685B78013B3A68DB0013441B7A3B
:1022AC001A467B69134401337B613B685B781846A3
:1022BC001837BD4680BD80B58AB000AF07F1080362
:1022CC0083E803007A6000233B620023FB61002358
:1022DC00BB61002387F827300023FB757B68002245
:1022EC001A607B6800221A717B6800229A607B68F6
:1022FC0000221A73B8683B7B194600232D22FFF786
:10230C0003FF3862B8683B7B194600232022FFF795
:10231C00FBFEF8613B6AB3F1FF3F28D0FB69B3F1D8
:10232C00FF3F24D0FB69DAB23B6ADBB2D31A87F8E1
:10233C002730BA683B6A1A447B681A607B6897F846
:10234C0027201A713B7B1A46FB6993420FDA3A7BC2
:10235C00FB69DBB2D31ADBB2013BFB75BA68FB69D4
:10236C0001331A447B689A607B68FA7D1A7397F87C
:10237C00273018462837BD4680BD80B584B000AFE5
:10238C007860084611461A4603467B800B467B70E4
:10239C0013463B7007F10C031846FFF74FF97B7897
:1023AC00FB733B78BB737B88012202FA03F39BB26D
:1023BC00BB8107F10C0319467868FFF783F800BF5F
:1023CC001037BD4680BD90B587B000AF07F108044B
:1023DC0084E8030011461A460B46FB711346BB7189
:1023EC0007F114031846FFF729F9FB79FB75BB7944
:1023FC00BB75BB891A46012393409BB2BB82BB6859
:10240C0007F1140211461846FFF75CF800BF1C37A1
:10241C00BD4690BD80B489B000AF07F1080383E8D6
:10242C0003001346FB710023FB610023BB610023F7
:10243C00FB82BB89072B01D8BB8902E0BB89083B17
:10244C009BB2FB82FB8A9B00FB82FB7903F00F03A0
:10245C00FB61BB89072B13D8BB681B68FA8A0F2159
:10246C0001FA02F2D2431340BB61FB8AFA6902FA09
:10247C0003F3BA691343BB61BB68BA691A6012E013
:10248C00BB685B68FA8A0F2101FA02F2D24313404F
:10249C00BB61FB8AFA6902FA03F3BA691343BB61A5
:1024AC00BB68BA695A6000BF2437BD4680BC704710
:1024BC0080B483B000AF3B4683E803003B681A69E5
:1024CC00BB88194601238B409BB219463B680A43D3
:1024DC001A6100BF0C37BD4680BC704780B483B016
:1024EC0000AF3B4683E803003B685A69BB8819463A
:1024FC0001238B409BB219463B680A435A6100BFCB
:10250C000C37BD4680BC704780B483B000AF3B46EF
:10251C0083E803003B68DB68BA88114601228A40D5
:10252C001340002B0AD03B685A69BB88194601231B
:10253C008B4019463B680A435A6109E03B681A69AB
:10254C00BB88194601238B4019463B680A431A6124
:10255C0000BF0C37BD4680BC704780B582B000AF61
:10256C003B4683E8030008223B4693E80300FFF751
:10257C0051FF3B681969BB881A46012303FA02F222
:10258C003B680A431A6100BF0837BD4680BD80B462
:10259C0083B000AF3B4683E803003B689B68BA8876
:1025AC00114601228A401340002B01D0012300E088
:1025BC00002318460C37BD4680BC704780B588B0E8
:1025CC0000AFF860B9607A603B60FB68BB617B6808
:1025DC007B61BB68002B02D03B68002B01D1002330
:1025EC0032E0BA683B689A4201D200232CE03B6887
:1025FC00012B08D17B691B78BA681946F86805F07D
:10260C00BCFB034620E0BA683B68D31ABA69134492
:10261C003B61BB69FB6112E0FB691A787B691B7833
:10262C009A4209D13A687969F86905F0B4FB034616
:10263C00002B01D1FB6907E0FB690133FB61FA69EF
:10264C003B699A42E8D9002318462037BD4680BD25
:10265C00B0B58EB000AFF860C7E9002307F11403E2
:10266C0000221A605A609A6000237B610023BB61D0
:10267C0000233B7700237B774FF000024FF00003E1
:10268C00D7E90001FEF792F90346002B07D001238E
:10269C003B773C687B6883F00045C7E900454FF009
:1026AC000002374BC7E90C23002387F82F300FE0CB
:1026BC004FF00002334BD7E90C01FEF72FF802461E
:1026CC000B46C7E90C2397F82F30013387F82F30CE
:1026DC0097F82F2097F848309A42E9D3D7E90C2382
:1026EC00D7E90001FDF73AFD02460B46C7E9002386
:1026FC00D7E90001FEF782F903463B62386AFDF721
:10270C0069FE02460B46D7E90001FDF725FD02469E
:10271C000B4610461946FEF791F90346BB621A495F
:10272C00B86AFEF787FC0346002B01D001237B77A8
:10273C00002387F827300AE01449B86AFEF7DCFA60
:10274C000346BB6297F82730013387F8273097F898
:10275C00272097F848309A42EED33B6ABB61B86A9F
:10276C00FEF790FC03467B61FB681C4607F11403E3
:10277C0093E8070084E80700F8683837BD46B0BD19
:10278C000000E03F00002440CDCCCC3D00002041B7
:10279C0080B582B000AF0023FB710BE0FB790C49D4
:1027AC000222DB000B4493E80300FFF733FEFB79B6
:1027BC000133FB71FB79072BF0D9064B022293E80E
:1027CC000300FFF727FE00BF0837BD4680BD00BFE2
:1027DC00280000202000002080B582B000AF00232C
:1027EC00FB710BE0FB7909490222DB000B4493E8F7
:1027FC000300FFF70FFEFB790133FB71FB79052B0F
:10280C00F0D900BF00BF0837BD4680BD680000206E
:10281C0080B584B000AF0346FB711C4B93E80300FA
:10282C00FFF746FE0023FB731BE0FA79FB7B42FAB1
:10283C0003F303F00103002B08D0FB7B144ADB00ED
:10284C00134493E80300FFF733FE07E0FB7B104AC9
:10285C00DB00134493E80300FFF740FEFB7B0133DE
:10286C00FB73FB7B072BE0D9084B93E80300FFF7C6
:10287C0035FE00BF00BF00BF00BF044B93E8030050
:10288C00FFF716FE00BF1037BD4680BD20000020AC
:10289C002800002080B584B000AF0346FB710023F4
:1028AC00FB731BE0FA79FB7B42FA03F303F00103A1
:1028BC00002B08D0FB7B0D4ADB00134493E803008C
:1028CC00FFF7F6FD07E0FB7B084ADB00134493E8B7
:1028DC000300FFF703FEFB7B0133FB73FB7B052B34
:1028EC00E0D900BF00BF1037BD4680BD6800002096
:1028FC0080B584B000AF3B1D1846FEF79FFE022347
:10290C00BB714FF40053BB803B1D19463A48FEF790
:10291C00D9FD4FF400513848FEF7EDFE0023FB7350
:10292C000023BB730023BB8100237B814FF4005138
:10293C003148FEF796FE0346FB734FF400512E48C8
:10294C00FEF7B4FE0346BB732B48FEF7A3FE03460B
:10295C00BB812948FEF7C3FE03467B81274B1868D1
:10296C00264B998802231022FFF707FD234B1B6887
:10297C00224A9288114601228A4092B21146184688
:10298C00FEF7B9FE1D4B1B681C4A928811460122AA
:10299C008A4091B200221846FEF7BBFE174902236B
:1029AC00102203C9FFF70FFD144B1B68134A9288C2
:1029BC00114601228A4092B211461846FEF79BFE40
:1029CC000E4B1B680D4A9288114601228A4091B227
:1029DC0000221846FEF79DFE084B022293E80300E6
:1029EC00FFF718FD054B93E80300FFF777FD00BFD9
:1029FC001037BD4680BD00BF0010014018000020FC
:102A0C0080B500AF124B022293E80300FFF702FDE2
:102A1C000F4B93E80300FFF74BFD0E4B022293E89C
:102A2C000300FFF7F7FC0B4B93E80300FFF740FDA7
:102A3C00094B022293E80300FFF7ECFC064B93E8EA
:102A4C000300FFF735FD00F0B5FA00BF80BD00BFF5
:102A5C0020000020E0000020E800002080B483B0BB
:102A6C0000AF7860064A7B68136000BF044B1B689C
:102A7C00002BFBD100BF00BF0C37BD4680BC70479C
:102A8C003402002080B483B000AF78607B684FF4D0
:102A9C007A7202FB03F3064A136000BF044B1B68F7
:102AAC00002BFBD100BF00BF0C37BD4680BC70476C
:102ABC003402002080B582B000AF0023FB710BE024
:102ACC00FB7909490222DB000B4493E80300FFF772
:102ADC00A1FCFB790133FB71FB79072BF0D900BF0B
:102AEC0000BF0837BD4680BD9800002080B584B07B
:102AFC0000AF0346FB710023FB731BE0FA79FB7BF1
:102B0C0042FA03F303F00103002B08D0FB7B0D4AC0
:102B1C00DB00134493E80300FFF7CAFC07E0FB7BE0
:102B2C00084ADB00134493E80300FFF7D7FCFB7B58
:102B3C000133FB73FB7B072BE0D900BF00BF1037C1
:102B4C00BD4680BD9800002080B500AF034B02222B
:102B5C0093E80300FFF75EFC00BF80BDD8000020A7
:102B6C0080B500AF034B93E80300FFF7B7FC00BF41
:102B7C0080BD00BFD800002080B500AF034B93E8A8
:102B8C000300FFF795FC00BF80BD00BFD8000020FC
:102B9C0080B500AF034B022293E80300FFF73AFC29
:102BAC0000BF80BDE000002080B500AF034B93E870
:102BBC000300FFF793FC00BF80BD00BFE0000020C6
:102BCC0080B500AF034B93E80300FFF771FC00BF27
:102BDC0080BD00BFE000002080B582B000AF03468E
:102BEC00FB71FFF7BDFFFB79184600F02FF864204E
:102BFC00FFF734FF00BF0837BD4680BD80B582B0FB
:102C0C0000AF0346FB71FFF7B7FFFB79184600F0E6
:102C1C001DF86420FFF722FF0A4B1B780133DAB250
:102C2C00084B1A70074B1B78074A1278B3FBF2F16A
:102C3C0001FB02F29B1ADAB2024B1A7000BF083782
:102C4C00BD4680BD440200204202002080B582B007
:102C5C0000AF0346FB71FFF72DFFFB791846FFF71A
:102C6C0045FFFFF7ADFF0120FFF7F8FE00BF00BFE7
:102C7C0000BF00BFFFF798FF00BF0837BD4680BDFF
:102C8C0080B500AF0120FFF7A7FF0320FFF7FAFE86
:102C9C0000BF80BD80B500AF0A4B00221A70094BF3
:102CAC0000225A70084B02221A70084B10221A701C
:102CBC0000F00EF8FFF7E4FF0021002000F020F8F0
:102CCC0000BF80BD440200204102002042020020CF
:102CDC0080B500AFFFF738FFFFF75AFF3C20FFF736
:102CEC007BFF3C20FFF778FF0C20FFF775FF0620D9
:102CFC00FFF772FF3C20FFF76FFF00BF80BD0000A5
:102D0C0080B584B000AF03460A46FB711346BB7115
:102D1C000023FB731E4B1A78BB79B3FBF2F101FB5A
:102D2C0002F29B1ADAB21B4B5A701A4B5B78032BCC
:102D3C0016D801A252F823F0552D00085B2D00087F
:102D4C00612D0008672D00088023FB7308E0C02369
:102D5C00FB7305E09423FB7302E0D423FB7300BFE9
:102D6C000D4B1A78FB79B3FBF2F101FB02F29B1AC3
:102D7C00DAB2084B1A70074B1A78FB7B1344FB73BF
:102D8C00FB7B1846FFF728FF00BF1037BD4680BD00
:102D9C0041020020440200204202002080B582B093
:102DAC0000AF0346FB71FB790D2B19D00D2B1EDCEC
:102DBC00092B0AD00A2B1AD1124B5B780133DBB2E8
:102DCC0019460020FFF79CFF16E00E4B1B780233D0
:102DDC00DBB20C4A527811461846FFF791FF0BE014
:102DEC00084B5B7819460020FFF78AFF04E0FB795B
:102DFC001846FFF703FF00BF012318460837BD46EE
:102E0C0080BD00BF4402002080B584B000AF786064
:102E1C0039600023FB600CE07B685A1C7A601B78DD
:102E2C001846FFF7BBFF0346002B08D0FB680133A5
:102E3C00FB603B685A1E3A60002BEDD100E000BFEE
:102E4C00FB6818461037BD4680BD80B582B000AF18
:102E5C0078607B68002B01D1002308E07868FDF7CF
:102E6C006FF9034619467868FFF7CEFF03461846FC
:102E7C000837BD4680BD2DE9B04396B000AFC7E919
:102E8C0002011346FB7107F1100340337B657B6D28
:102E9C0000221A70FB79012B01D80A23FB71FB79F4
:102EAC0000221C461546D7E9020122462B46FEF7A6
:102EBC0009F9134687F85330FB790022984691465E
:102ECC0042464B46D7E90201FEF7FCF802460B4698
:102EDC00C7E9022397F85330092B04D897F85330DD
:102EEC003033DBB203E097F853303733DBB27A6D13
:102EFC00013A7A657A6D1370D7E902231343CED168
:102F0C00786DFFF7A2FF034618465837BD46BDE85B
:102F1C00B08380B582B000AF78607868FFF795FF1A
:102F2C00034618460837BD4680BD80B582B000AF59
:102F3C0003463A60FB710B46BB71BA79FB791146BB
:102F4C001846FFF7DDFE3868FFF7E3FF0346184627
:102F5C000837BD4680BDB0B582B000AF03463960BE
:102F6C00FB71FB7900221C4615463A68204629461F
:102F7C0000F005F8034618460837BD46B0BD80B5CD
:102F8C0084B000AFC7E902017A607B68002B05D1E1
:102F9C003B7A1846FFF702FF034607E07B68DBB27B
:102FAC001A46D7E90201FFF766FF034618461037A9
:102FBC00BD4680BD80B582B000AF0023FB710AE036
:102FCC00FB79094ADB00134493E80300FFF7C5FAC9
:102FDC00FB790133FB71FB79072BF1D900BF00BFE3
:102FEC000837BD4680BD00BFF000002080B582B020
:102FFC0000AFFF23FB710023BB7119E0BB79104AB2
:10300C00DB00134493E80300FFF7C1FA0346002BDF
:10301C000BD1BB79012202FA03F35BB2DB435AB248
:10302C0097F9073013405BB2FB71BB790133BB716D
:10303C00BB79072BE2D9FB7918460837BD4680BD12
:10304C00F000002080B582B000AFFF23FB71FFF7CA
:10305C00B1FF134B022293E80300FFF7DBF9104B8F
:10306C0093E80300FFF724FA0D4B93E80300FFF7F6
:10307C0035FA0A20FFF7F2FC00BF00BF00BF00BF0B
:10308C0000BF00BFFFF7B2FF0346FB71044B93E890
:10309C000300FFF70DFAFB7918460837BD4680BDD3
:1030AC00E800002080B500AF114B1B78F42B1AD030
:1030BC00F42B1BDCEC2B13D0EC2B17DCDC2B0CD007
:1030CC00DC2B13DC7C2B02D0BC2B03D00EE000F0ED
:1030DC005DF80BE000F07CF808E000F09BF805E0F0
:1030EC0000F0BAF802E000F0D9F800BF00BF80BDD4
:1030FC004802002080B582B000AF0346FB710A4A3B
:10310C00FB791370FFF756FF084B022293E803007C
:10311C00FFF780F9054B93E80300FFF7C9F900BFEF
:10312C000837BD4680BD00BF49020020E8000020E2
:10313C0080B500AFFFF764FCFFF784FF03461A4627
:10314C00044B1B781340DAB2034B1A70024B1B78FA
:10315C00184680BD490200204802002080B500AF0F
:10316C00074B1A78074B1B789A4207D0064B05225F
:10317C001A70054B00225A70FFF794FF00BF80BDF8
:10318C004802002049020020E402002080B500AF74
:10319C000D4A01210020FFF7C8FE0C4B1B78C3F32E
:1031AC00C013DBB2DB43DBB203F00103D9B2074A35
:1031BC00137861F3C713137000214FF08040FEF7B2
:1031CC002BFD00BF80BD00BFDC7F00083C0200204F
:1031DC0080B500AF0D4A01210020FFF7A6FE0C4B75
:1031EC001B78C3F38013DBB2DB43DBB203F00103C8
:1031FC00D9B2074A137861F38613137001214FF08B
:10320C008040FEF709FD00BF80BD00BFF07F0008C5
:10321C003C02002080B500AF0C4A01210020FFF7D2
:10322C0084FE0B4B1B78C3F34013DBB2DB43DBB2E6
:10323C0003F00103D9B2064A137861F345131370F6
:10324C0000210448FEF7E8FC00BF80BD04800008A4
:10325C003C0200200004004080B500AF0C4A012164
:10326C000020FFF762FE0B4B1B78C3F30013DBB29D
:10327C00DB43DBB203F00103D9B2064A137861F3E6
:10328C000413137001210448FEF7C6FC00BF80BD77
:10329C00188000083C0200200004004080B500AFFC
:1032AC000A4A01210020FFF740FE094B1B78C3F3AB
:1032BC00C003DBB2DB43DBB203F00103D9B2044A37
:1032CC00137861F3C303137000BF80BD2C8000081A
:1032DC003C02002080B483B000AF786039601F4B93
:1032EC001A687B681A603B68B3F910207B689A8077
:1032FC003B68B3F912207B68DA803B68B3F9142081
:10330C007B681A813B68B3F916207B685A813B684D
:10331C00B3F918207B689A813B68B3F91A207B6853
:10332C00DA813B68DA6B7B681A613B681A6C7B68E4
:10333C005A613B685A6C7B689A613B681A6B7B6874
:10334C00DA613B685A6B7B681A623B689A6B7B68E4
:10335C005A6200BF0C37BD4680BC70474C0200203F
:10336C0080B483B000AF786039607B681A683B68C2
:10337C001A607B68B3F904203B689A807B68B3F9C8
:10338C0006203B68DA807B68B3F908203B681A8119
:10339C007B68B3F90A203B685A817B68B3F90C202F
:1033AC003B689A817B68B3F90E203B68DA817B68B5
:1033BC001A693B681A617B685A693B685A617B6879
:1033CC009A693B689A617B68DA693B68DA617B6869
:1033DC001A6A3B681A627B685A6A3B685A6200BF79
:1033EC000C37BD4680BC7047B0B584B000AF786078
:1033FC00396000233B73584B1B79022B51D0564B31
:10340C001B79062B4DD07B681C693B681D69524BA0
:10341C009B781846FDF71CFC034619462846FDF719
:10342C0063FB034619462046FDF722FE0346002B9C
:10343C0003D03B7B43F001033B737B685C693B68C7
:10344C005D69454B9B781846FDF702FC034619460F
:10345C002846FDF749FB034619462046FDF708FEB2
:10346C000346002B03D03B7B43F002033B737B688A
:10347C009C693B689D69384B9B781846FDF7E8FBC7
:10348C00034619462846FDF72FFB034619462046EE
:10349C00FDF7EEFD0346002B03D03B7B43F004030A
:1034AC003B732D4B1B79012B51D02B4B1B79052BCF
:1034BC004DD07B68DC693B68DD69274BDB781846AF
:1034CC00FDF7C6FB034619462846FDF70DFB0346E0
:1034DC0019462046FDF7CCFD0346002B03D03B7B61
:1034EC0043F008033B737B681C6A3B681D6A1A4BEC
:1034FC00DB781846FDF7ACFB034619462846FDF76A
:10350C00F3FA034619462046FDF7B2FD0346002B9D
:10351C0003D03B7B43F002033B737B685C6A3B68E4
:10352C005D6A0D4BDB781846FDF792FB0346194696
:10353C002846FDF7D9FA034619462046FDF798FDB3
:10354C000346002B03D03B7B43F004033B733B7BD4
:10355C0018461037BD46B0BD9C01002080B400AFAA
:10356C000A4B1A680A4B1B689A420AD3094B1B7800
:10357C00002B03D0084B03221A7002E0064B0122E9
:10358C001A7000BFBD4680BC704700BFCC02002043
:10359C003001002052020020C802002080B582B009
:1035AC0000AF7860396020221649174804F016F9EC
:1035BC00164B1B78154A52781946154802F0D6FB63
:1035CC0003461A46134B1A70134B00221A70134BF6
:1035DC0002221A700F4B1B78002B0ED10E4B0122BE
:1035EC001A700E4B03221A700D4BD3E900230D49B0
:1035FC00C1E900230C4B00221A6000BF0837BD46FE
:10360C0080BD00BF801A0600005400409C010020C1
:10361C00440100205002002052020020C802002069
:10362C00D0020020D80200204C02002080B582B0CD
:10363C0000AF786039600C4B1A890C4B1B889A428E
:10364C000DD93968786800F019F8094B1B78002BF4
:10365C0005D1084B00221A60074B00221A7000BFDC
:10366C000837BD4680BD00BF9C0100204A020020E7
:10367C0050020020CC020020C8020020B0B582B05D
:10368C0000AF78603960334B1B88002B0BD1324B69
:10369C00D3E900233149C1E90023314B00221A60E0
:1036AC00304B01221A702C4BD3E900012B4BD3E980
:1036BC000023841A61EB03054FF064024FF0000302
:1036CC0020462946FDF7FEFC02460B46244B1B68A0
:1036DC001344234A1360204BD3E900231F49C1E94B
:1036EC000023214B1B791946204803F063F903464C
:1036FC001A461F4B1A701F4B02221A701C4B1B7858
:10370C00002B22D1134B1B8801339AB2114B1A8018
:10371C00104B1B880A221946786802F0DDF916490D
:10372C00786802F0ABF90E4B1B680A2219467868D0
:10373C0002F0D2F90C4B1A790B4B5B790B49786878
:10374C0003F05FF90B4B04221A7000BF0837BD461B
:10375C00B0BD00BF4A020020D0020020D8020020D9
:10376C004C020020510200209C010020440100204A
:10377C0050020020C80200205480000880B584B09C
:10378C0000AF7860396000233B7339683F48FFF71E
:10379C00A1FD3F4B1B78002B07D039683D48FFF744
:1037AC0099FD3B4B00221A7066E03A493748FFF707
:1037BC001BFE03463B733B7B002B59D03649786884
:1037CC0002F05CF9354B1B680A221946786802F046
:1037DC0083F93349786802F051F9324B1B880A227D
:1037EC001946786802F078F92F49786802F046F9A2
:1037FC003B7B03F00103DBB2002B03D02B49786831
:10380C0002F03CF93B7B03F00203DBB2002B03D04C
:10381C002749786802F032F93B7B03F00403DBB2F2
:10382C00002B03D02349786802F028F93B7B03F086
:10383C000803DBB2002B03D01F49786802F01EF995
:10384C003B7B03F01003DBB2002B03D01B497868E1
:10385C0002F014F93B7B03F02003DBB2002B03D006
:10386C001749786802F00AF90F49786802F006F9EE
:10387C0008490648FFF774FD124B00221A60124BE0
:10388C0000221A7000BF1037BD4680BD54020020C4
:10389C00510200207C020020588000084C020020BD
:1038AC00848000084A020020988000089C80000850
:1038BC00BC800008DC800008FC8000081C8100082B
:1038CC003C810008CC020020C802002080B582B0E8
:1038DC0000AF786039600F49786802F0CFF80E4B72
:1038EC001B780A221946786802F0F6F80B497868BA
:1038FC0002F0C4F8786804F0E3F8094B00221A705F
:10390C00084B00221A60084B00221A7000BF0837BF
:10391C00BD4680BD5C810008500200206881000813
:10392C0052020020CC020020C802002080B584B0D6
:10393C0000AF00233B603B1D00221A605A609A6066
:10394C001D4B1B78DBB2002B02D0012B09D02FE0D2
:10395C0001F0D0FF0346002B29D0174B01221A701F
:10396C0025E01649164802F089F8164B1B78DBB295
:10397C0018463B460A22194604F016FB3B461946EC
:10398C000F4802F08EF810490D4802F077F80F49F5
:10399C000B4802F086F80A4800F0F0FA01F020FF1C
:1039AC000B4B00221A60044B00221A7000E000BF7F
:1039BC0000BF1037BD4680BDE60200206C810008B8
:1039CC00003801402C0300207C810008EC02002010
:1039DC00E802002080B500AF1B4B1B78042B31D8BC
:1039EC0001A252F823F000BF093A00080F3A000870
:1039FC00473A0008193A00083D3A0008FFF7AEFDB7
:103A0C0020E012491248FFF7C9FD1BE0114B5B790E
:103A1C00002B02D0012B05D014E00C490C48FFF709
:103A2C0005FE04E009490A48FFF728FE00BF09E03B
:103A3C0006490748FFF7A2FE04E004490448FFF7D3
:103A4C0045FF00BF00BF80BDC8020020440100201C
:103A5C00003801409C01002080B500AF1E4B1B7844
:103A6C00042B36D801A252F823F000BF8D3A00087F
:103A7C00DF3A0008A13A0008BB3A0008C73A000830
:103A8C00164B1B6847F22F5293421FD9124B02223E
:103A9C001A701BE0124B1B6840F6AB52934217D9BD
:103AAC000F4B00221A600C4B03221A7010E0FFF728
:103ABC003FFB094B04221A700BE0FFF74FFB074B3F
:103ACC0000221A60044B00221A7002E000BF00E0D2
:103ADC0000BF00BF80BD00BFA4020020A8020020D0
:103AEC00AC02002080B500AF0D4B1B78002B15D01D
:103AFC000B4B00221A700B4A00210020FFF715FA1D
:103B0C00094A01210020FFF710FA084B1B780A2103
:103B1C001846FFF720FA0648FFF7FBF900BF80BDF7
:103B2C0038020020848100089481000840020020A3
:103B3C009C810008B0B500AF164B1B78002B02D04F
:103B4C00012B0CD023E0144B1B68144A93421DD953
:103B5C00104B01221A70104B00221A6016E000F074
:103B6C0089F90F4B93E80300FEF7CEFC0D4BD3E91C
:103B7C000023541C43F100050A4BC3E90045064BD6
:103B8C0000221A60034B00221A7000E000BF00BF35
:103B9C00B0BD00BFC0020020C4020020A0860100FE
:103BAC0018000020D002002080B483B000AF034680
:103BBC003960FB7197F90730002B0BDA3B68DAB2EE
:103BCC000C49FB7903F00F03043B1201D2B20B44F6
:103BDC001A7609E03B68DAB2074997F90730120107
:103BEC00D2B20B4483F8002300BF0C37BD4680BC17
:103BFC00704700BF00ED00E000E100E080B582B04E
:103C0C0000AF78607B68B3F1807F01D3012311E0B2
:103C1C007B6823F07F43094A013B53600F214FF02F
:103C2C00FF30FFF7C1FF054B00229A60034B0722C0
:103C3C001A60002318460837BD4680BD10E000E02E
:103C4C0080B500AF4FF4E060FDF7C8FB364B1B6846
:103C5C005B09364AA2FB0323DB091846FFF7CEFFAC
:103C6C000346002B00D0FEE731494FF000024FF025
:103C7C000003C1E900232F4B00221A702E4B0522A2
:103C8C001A702D4B00225A7001210420FDF7EEFE14
:103C9C0001210820FDF7EAFE01211020FDF7E6FEC8
:103CAC0001212020FDF7E2FE01210120FDF7DEFEBF
:103CBC00224B00221A60FEF71BFEFEF769FDFEF791
:103CCC008BFD1F4BFF221A701E4B00221A701C4BCF
:103CDC001B781846FEF79CFD1A4B1B781846FEF70E
:103CEC00D9FD194B00221A70FC20FFF703FAFEF7DE
:103CFC00D1FFFEF7EDFF154A00210020FFF715F963
:103D0C00134B00221A7000F0C1F8124801F0AAFD02
:103D1C0020221149114803F061FD00F06DF8054BAC
:103D2C0001221A7000BF80BD14000020C55A7C0A05
:103D3C00D0020020E0020020E40200203402002027
:103D4C003C0200204002002039020020A48100081F
:103D5C003802002000380140801A06000054004050
:103D6C0080B500AFFFF778FE064B9B79002B01D096
:103D7C00FFF730FEFFF7DAFDFFF7B4FEFFF7DAFED0
:103D8C0000BF80BD9C01002080B400AF134B1B789A
:103D9C00002B04D1124B1B680133114A1360114BD9
:103DAC001B78002B04D1104B1B6801330E4A136097
:103DBC000A4B1B78022B04D10C4B1B6801330B4AAA
:103DCC0013600B4B1B78002B04D10A4B1B6801337F
:103DDC00084A136000BFBD4680BC7047A402002097
:103DEC00A8020020C8020020CC020020AC02002057
:103DFC00C0020020C402002080B400AF124B00228D
:103E0C001A70124B00221A60114B00221A60114BCF
:103E1C0000221A70104B00221A60104B00221A70EC
:103E2C000F4B00221A600F4B00221A700E4B00220F
:103E3C001A600E4B00221A700D4B00221A6000BF44
:103E4C00BD4680BC704700BFA4020020A802002021
:103E5C00AC020020C8020020CC020020B0020020DE
:103E6C00B4020020B8020020BC020020C0020020D6
:103E7C00C402002080B500AF034B1B781846FEF738
:103E8C00C7FC00BF80BD00BF3C02002080B584B0E1
:103E9C0000AF1D4BDB691C4A43F00203D3611D23A9
:103EAC003B7300237B730B23BB730123FB7307F161
:103EBC000C031846FDF7A4FA144B1B68144AA2FB1A
:103ECC0003235B0B9BB2013B9BB23B8042F2107312
:103EDC00BB8000237B803B4619460E48FDF720FE35
:103EEC000C4B9B899BB20B4A43F001039BB2938111
:103EFC00084B1B889BB2074A43F001039BB213800B
:103F0C0000BF1037BD4680BD0010024014000020D9
:103F1C005917B7D10004004080B500AF01214FF014
:103F2C008040FDF798FE00BF80BD000080B582B0D8
:103F3C0000AF0023FB8001210D48FDF78CFE0D4BDB
:103F4C001B783E2B04D80B4B1B780133DBB200E003
:103F5C000023084A1370074B1B781846FEF79AFC8F
:103F6C00054B01221A7000BF0837BD4680BD00BF4B
:103F7C0000040040400200203802002080B598B0B8
:103F8C0002AF7860002387F85730002387F856304B
:103F9C000023BB6207F12C0300221A605A609A605E
:103FAC00DA601A615A619A610023BB6107F11C0344
:103FBC0000221A605A609A600023BB6007F10C0360
:103FCC0000221A605A609A60554B1B78DBB2194676
:103FDC00002323225348FEF797F83865504B1B7883
:103FEC00DBB21946002320224E48FEF78DF8F86408
:103FFC004B4B1B78DBB2194600233B224948FEF79A
:10400C0083F8B8643B6DB3F1FF3F4DD0FB6CB3F15B
:10401C00FF3F49D0BB6CB3F1FF3F45D0FB6CDAB22C
:10402C003B6DDBB2D31ADBB2013B87F85730BB6C6C
:10403C00DAB2FB6CDBB2D31ADBB2013B87F8563039
:10404C0097F85630002B04D097F85630013BDBB272
:10405C0000E0002387F856303B6D0133314A991844
:10406C0097F8572007F11803184603F0A4FEFB6CD1
:10407C0001332C4A991897F8562007F12803184653
:10408C0003F099FE97F8572097F8563007F128005F
:10409C0007F1180100930346786800F04FF82249A5
:1040AC00786801F0FEFC37E02049786801F0F9FCF3
:1040BC001F49786801F0E2FC3B6D07F108010A2208
:1040CC00184603F071FF07F108031946786801F0F0
:1040DC00E8FC1849786801F0D1FCFB6C07F1080189
:1040EC000A22184603F060FF07F1080319467868A6
:1040FC0001F0D7FC1049786801F0C0FCBB6C07F1EB
:10410C0008010A22184603F04FFF07F1080319466D
:10411C00786801F0C6FC00BF00BF5837BD4680BDB3
:10412C002C030020EC02002000820008048200080E
:10413C0018820008248200083082000880B584B000
:10414C0000AFF860B9607A603B607A49B86803F0F8
:10415C0049FE0346002B03D1F86800F013F9E5E0A3
:10416C007549B86803F03EFE0346002B03D1F8688E
:10417C0000F026F9DAE07149B86803F033FE034623
:10418C00002B05D1BA693968F86800F03BF9CDE02D
:10419C006B49B86803F026FE0346002B03D1F86880
:1041AC0000F048FAC2E06749B86803F01BFE03460A
:1041BC00002B05D1BA693968F86800F017FBB5E037
:1041CC006149B86803F00EFE0346002B05D1BA69AD
:1041DC003968F86800F0DAFBA8E05C49B86803F0CD
:1041EC0001FE0346002B03D1F86800F0BDFA9DE0F8
:1041FC005749B86803F0F6FD0346002B05D1BA69A0
:10420C003968F86800F098FC90E05249B86803F0FF
:10421C00E9FD0346002B05D1BA693968F86800F04E
:10422C00C7FC83E04C49B86803F0DCFD0346002B67
:10423C0005D1BA693968F86800F0C6FC76E04749E0
:10424C00B86803F0CFFD0346002B05D1BA69396875
:10425C00F86800F0F5FC69E04149B86803F0C2FD6C
:10426C000346002B05D1BA693968F86800F024FDC3
:10427C005CE03C49B86803F0B5FD0346002B03D164
:10428C00F86800F095F951E03749B86803F0AAFDD9
:10429C000346002B05D1BA693968F86800F017FDA0
:1042AC0044E03249B86803F09DFD0346002B05D16C
:1042BC00BA693968F86800F015FD37E02C49B86820
:1042CC0003F090FD0346002B05D1BA693968F868F4
:1042DC0000F048FD2AE02749B86803F083FD034647
:1042EC00002B05D1BA693968F86800F0CDFD1DE0E6
:1042FC002149B86803F076FD0346002B05D1BA6955
:10430C003968F86800F006FE10E01C49B86803F044
:10431C0069FD0346002B05D1BA693968F86800F0CD
:10432C003FFE03E01649F86801F0BBFB00BF1037F5
:10433C00BD4680BD3C8200084082000844820008D3
:10434C004C820008548200085C82000864820008D9
:10435C006882000870820008748200087882000865
:10436C007C82000880820008848200088882000811
:10437C008C8200089082000898820008A0820008B5
:10438C00A882000880B582B000AF786008497868D0
:10439C0001F087FB074B00221A60074B01221A70B1
:1043AC00064B01229A7100BF0837BD4680BD00BF85
:1043BC00CC8200084C020020510200209C010020FD
:1043CC0080B582B000AF78600949786801F069FB6C
:1043DC00084B00229A71084B00221A80074B0022CE
:1043EC001A60074B01221A7000BF0837BD4680BD0A
:1043FC00F48200089C0100204A0200204C0200209C
:10440C005102002080B59EB002AFF860B9607A60AE
:10441C000023BB66002387F86730002387F86F30D2
:10442C00002387F86E3007F1200300221A605A60CF
:10443C009A60DA60002387F8303000233B6107F183
:10444C00140300221A605A609A6007F130032D227F
:10445C007968B868FDF7F9FE034687F8673097F876
:10446C006730002B3ED0002387F86F301FE097F8A1
:10447C006F3007F12002DB0070333B443C3B93E888
:10448C000300FDF718FFB866BB6E002B0ADDFB6A54
:10449C00009307F120030ECBF86801F0E7F8034610
:1044AC0087F86E3097F86F30013387F86F3097F8D4
:1044BC00313097F86F209A42D9D397F86E30002B91
:1044CC0010D02E49F86801F0ECFA97F86E301022F3
:1044DC001946F86801F000FB294B00221A70284B92
:1044EC0001225A702749F86801F0DBFA202226498C
:1044FC00264803F073F92649F86801F0BFFA204BFF
:10450C001B780A221946F86801F0E6FA2149F86886
:10451C0001F0B4FA1A4B5B780A221946F86801F0DC
:10452C00DBFA1D49F86801F0A9FA154B1B78144AFF
:10453C0052781946194801F019FC034687F86E3079
:10454C0097F86E30002B0BD01549F86801F096FAED
:10455C0097F86E300A221946F86801F0BDFA03E0AC
:10456C001049F86801F09DFA0F4B00221A800F4B8E
:10457C0001221A7000BF7037BD4680BD1C83000835
:10458C009C01002050830008801A06000054004053
:10459C0074830008808300088C8300084401002089
:1045AC0090830008B88300084A02002052020020C1
:1045BC0080B584B000AF78600023FB731549786830
:1045CC0001F06FFA144801F0B1FC0346FB73FB7B5E
:1045DC00002B04D11149786801F050FA0DE0104914
:1045EC00786801F04BFAFB7B10221946786801F0D1
:1045FC0073FA0C49786801F041FA0B4B00221A70DF
:10460C000A4B00221A800A4B00229A7100BF103705
:10461C00BD4680BDDC83000844010020F483000803
:10462C00108400081C840008520200204A0200205A
:10463C009C01002080B582B000AF78603D4978685D
:10464C0001F02FFA3C49786801F018FA3B4B1B79C2
:10465C000A221946786801F03FFA3949786801F066
:10466C000DFA364B5B790A221946786801F034FA58
:10467C003449786801F002FA304B9B790A221946CA
:10468C00786801F029FA3049786801F0F7F92F4978
:10469C00786801F0F3F9294B1B890A2219467868CE
:1046AC0001F01AFA2A49786801F0E8F9294B1B78CD
:1046BC000A221946786801F00FFA2349786801F04C
:1046CC00DDF92549786801F0D9F91C4B1B780A22D1
:1046DC001946786801F000FA2049786801F0CEF9A3
:1046EC00164B5B780A221946786801F0F5F91649E1
:1046FC00786801F0C3F91A49786801F0BFF90F4BDB
:10470C009B780A221946786801F0E6F91549786811
:10471C0001F0B4F9094BDB780A221946786801F0EC
:10472C00DBF90949786801F0A9F900BF0837BD46E3
:10473C0080BD00BF38840008508400089C01002014
:10474C005C8400086C8400088C8300087884000862
:10475C0088840008520200207483000880830008BB
:10476C0098840008A484000880B584B000AF7860F9
:10477C000023BB730023FB731649786801F07EF9A4
:10478C00154B197807F10E037522144803F00EF936
:10479C000346FB73FB7B002B06D1BB7B1022194617
:1047AC00786801F099F90DE00D49786801F066F927
:1047BC00FB7B10221946786801F08EF9094978685C
:1047CC0001F05CF90849786801F058F900BF10371E
:1047DC00BD4680BDB0840008440100200054004058
:1047EC0010840008C48400088C83000880B59EB037
:1047FC0002AFF860B9607A600023BB66002387F8CB
:10480C006730002387F86F30002387F8663007F194
:10481C00200300221A605A609A60DA60002387F83D
:10482C00303000233B6107F1140300221A605A60F8
:10483C009A604F49F86801F034F907F130032D22E2
:10484C007968B868FDF701FD034687F86730494978
:10485C00F86801F013F997F867300A221946F868DE
:10486C0001F03AF94449F86801F008F997F8673013
:10487C00002B78D0002387F86F306EE097F86F30FC
:10488C0007F12002DB0070333B443C3B93E8030010
:10489C00FDF711FDB86697F82430002B19D007F1FD
:1048AC00100310220021184603F093FA396A97F886
:1048BC0024301A4607F11003184603F07CFA2F49EE
:1048CC00F86801F0DBF807F110031946F86801F0FD
:1048DC00E8F897F82C30002B19D007F110031022B0
:1048EC000021184603F075FAB96A97F82C301A466D
:1048FC0007F11003184603F05EFA2149F86801F03D
:10490C00BDF807F110031946F86801F0CAF8BB6E40
:10491C00002B1DDDFB6A009307F120030ECBF8681A
:10492C0000F036FC034687F8663097F86630002BAB
:10493C000ED01449F86801F0B4F81349F86801F086
:10494C009DF897F8663010221946F86801F0C4F803
:10495C0097F86F30013387F86F3097F8313097F84C
:10496C006F209A428AD300BF7037BD4680BD00BF0E
:10497C00E0840008F48400088C830008108500088B
:10498C0018850008208500084885000880B5A0B06F
:10499C0004AFF860B9607A600023BB66002387F827
:1049AC006730002387F86F30002387F866300023C8
:1049BC0087F86530002387F8643007F12003002264
:1049CC001A605A609A60DA60002387F8303000234E
:1049DC003B6107F1140300221A605A609A6007F1D8
:1049EC0030032D227968B868FDF72FFC034687F851
:1049FC00673097F86730002B00F08F80002387F822
:104A0C006F305EE097F86F3007F12002DB007033F7
:104A1C003B443C3B93E80300FDF74DFCB86697F82C
:104A2C002430002B19D007F1100310220021184656
:104A3C0003F0CFF9396A97F824301A4607F11003BE
:104A4C00184603F0B8F93749F86801F017F807F180
:104A5C0010031946F86801F024F897F82C30002B55
:104A6C0019D007F1100310220021184603F0B1F9F8
:104A7C00B96A97F82C301A4607F11003184603F060
:104A8C009AF92949F86800F0F9FF07F11003194663
:104A9C00F86801F006F8BB6E002B0DDD07F164031E
:104AAC00029307F165030193FB6A009307F120035E
:104ABC000ECBF86800F0BAFA97F86F30013387F82C
:104ACC006F3097F8313097F86F209A429AD397F855
:104ADC0065300C2B21D997F86530752B1DD897F8BC
:104AEC00652097F864301149F86800F017FB03460D
:104AFC0087F8663097F86630002B0ED00C49F868B2
:104B0C0000F0CFFF0B49F86800F0B8FF97F866305B
:104B1C0010221946F86800F0DFFF00BF7037BD4661
:104B2C0080BD00BF108500081885000844010020D6
:104B3C00508500084885000880B58AB000AFF86041
:104B4C00B9607A60002387F8273000237B6107F176
:104B5C00180300221A605A609A60B86803F0EFF8E4
:104B6C00034687F82730002387F8263097F827303C
:104B7C0019460D4801F0CAFA034687F8263097F813
:104B8C002630002B0AD10949F86800F077FF97F816
:104B9C00273010221946F86800F09EFF97F826304F
:104BAC0018462837BD4680BD440100207885000892
:104BBC0080B485B000AFF860B9607A6000BF14377C
:104BCC00BD4680BC7047000080B58AB000AFF8606D
:104BDC00B9607A60002387F8273000237B6107F1E6
:104BEC00180300221A605A609A60B86803F0A7F89C
:104BFC00034687F82730002387F8263097F82730AC
:104C0C0019460D4801F0AAFA034687F8263097F8A2
:104C1C002630002B0AD10949F86800F02FFF97F8CD
:104C2C00273010221946F86800F056FF97F8263006
:104C3C0018462837BD4680BD4401002098850008E1
:104C4C0080B58AB000AFF860B9607A60002387F84D
:104C5C00273000237B6107F1180300221A605A6089
:104C6C009A60B86803F06BF8034687F82730002386
:104C7C0087F8263097F8273019460D4801F06EFA60
:104C8C00034687F8263097F82630002B0AD10949BD
:104C9C00F86800F0F3FE97F8273010221946F868F0
:104CAC0000F01AFF97F8263018462837BD4680BD0D
:104CBC0044010020B085000880B485B000AFF860D6
:104CCC00B9607A6000BF1437BD4680BC704780B4B1
:104CDC0085B000AFF860B9607A6000BF1437BD468C
:104CEC0080BC704780B586B000AFF860B9607A6060
:104CFC0000237B61B86803F022F803467B617B6973
:104D0C00002B0FD07B6941F2883293420AD87B6921
:104D1C00642202FB03F30F4A13600F49F86800F09A
:104D2C00C0FE07E00B4B42F210721A600B49F86898
:104D3C0000F0B7FE0A49F86800F0A0FE054B1B68AE
:104D4C000A221946F86800F0C7FE00BF1837BD46A6
:104D5C0080BD00BF30010020C8850008E085000838
:104D6C004486000880B59EB002AFF860B9607A60E6
:104D7C000023BB66002387F86730002387F86F3069
:104D8C00002387F86E3007F1200300221A605A6066
:104D9C009A60DA60002387F8303000233B6107F11A
:104DAC00140300221A605A609A6007F130032D2216
:104DBC007968B868FDF749FA034687F8673097F8C1
:104DCC006730002B29D0002387F86F301FE097F84D
:104DDC006F3007F12002DB0070333B443C3B93E81F
:104DEC000300FDF768FAB866BB6E002B0ADDFB6AA0
:104DFC00009307F120030ECBF86800F091FB0346FB
:104E0C0087F86E3097F86F30013387F86F3097F86A
:104E1C00313097F86F209A42D9D397F86E30002B27
:104E2C0004D11349F86800F03CFE03E01149F8681E
:104E3C0000F037FE1049F86800F020FE0F4B9B780D
:104E4C000A221946F86800F047FE0D49F86800F090
:104E5C0015FE0A4BDB780A221946F86800F03CFE76
:104E6C000849F86800F00AFE00BF7037BD4680BDE7
:104E7C005C86000878860008A88600089C01002043
:104E8C00BC8600088C83000880B586B000AFF86043
:104E9C00B9607A600023FB75B86802F050FF0346D6
:104EAC00FB75FB7D062B13D8134AFB7D1371124B3C
:104EBC0000229A71114B00221A80114B00221A60A9
:104ECC00104B01221A701049F86800F0EAFD03E05B
:104EDC000E49F86800F0E5FD0D49F86800F0CEFDCC
:104EEC00054B1B790A221946F86800F0F5FD00BF46
:104EFC001837BD4680BD00BF9C0100204A0200202F
:104F0C004C02002051020020D0860008EC860008DC
:104F1C008487000880B586B000AFF860B9607A600D
:104F2C000023FB75B86802F00AFF0346FB75FB7D96
:104F3C00012B13D8134AFB7D5371124B00229A712B
:104F4C00114B00221A80114B00221A60104B0122C7
:104F5C001A701049F86800F0A4FD03E00E49F868D7
:104F6C0000F09FFD0D49F86800F088FD054B5B795A
:104F7C000A221946F86800F0AFFD00BF1837BD468D
:104F8C0080BD00BF9C0100204A0200204C02002082
:104F9C005102002098870008B48700082488000874
:104FAC0080B586B000AFF860B9607A600023FB75FD
:104FBC00B86802F0C4FE0346FB75FB7D002B14D0D1
:104FCC00FB7D9AB2124B1A81114B00229A71114B34
:104FDC0000221A80104B00221A60104B01221A700A
:104FEC000F49F86800F05DFD03E00E49F86800F029
:104FFC0058FD0D49F86800F041FD054B1B890A224C
:10500C001946F86800F068FD00BF1837BD4680BD32
:10501C009C0100204A0200204C020020510200207A
:10502C00388800085C880008B488000884B080B513
:10503C0088B000AF786007F12C0080E80E000023E8
:10504C00FB6007F1100300221A605A609A604FF05F
:10505C00FF33FB6197F83830002B15D007F10C03A8
:10506C0010220021184602F0B4FE796B97F8383004
:10507C001A4607F10C03184602F09DFE07F10C03CB
:10508C00184602F05CFEF86107F10C0310220021B7
:10509C00184602F09EFEF96A97F830301A4607F16E
:1050AC000C03184602F087FE07F10C03184918464A
:1050BC0002F098FE0346002B0AD1FB690C2B1FDD76
:1050CC00FB69752B1CDCFB69DAB2FB6B1A7017E001
:1050DC0007F10C030F49184602F084FE0346002B1F
:1050EC0004D1FB69DAB23B6C1A7009E00A497868A2
:1050FC0000F0C4FC07F10C031946786800F0D1FCF1
:10510C0000BF2037BD46BDE8804004B0704700BFEB
:10511C00D0880008D4880008D888000880B586B0EC
:10512C0000AFF860B96011461A460B46FB71134686
:10513C00BB710023FB750023BB75BB681978BB7969
:10514C00FA79104802F0DCFB0346FB75FB7D002B63
:10515C0013D10D49F86800F091FCFB791022194627
:10516C00F86800F0B9FC0949F86800F087FCBB79D5
:10517C0010221946F86800F0AFFCFB7D1846183772
:10518C00BD4680BD00540040EC880008F48800083F
:10519C0084B080B588B000AF786007F12C0080E84F
:1051AC000E000023BB6007F10C0300221A605A604A
:1051BC009A604FF0FF33FB610023FB7697F8383091
:1051CC00002B15D007F1080310220021184602F01D
:1051DC0000FE796B97F838301A4607F10803184629
:1051EC0002F0E9FD07F10803184602F0A8FDF8618A
:1051FC0097F83030002B0FD007F108031022002154
:10520C00184602F0E6FDF96A97F830301A4607F1B5
:10521C000803184602F0CFFD07F10803344918467D
:10522C0002F0E0FD0346002B0FD1FB690C2B56DD81
:10523C00FB69752B53DCFB69DBB21A462D49786888
:10524C0000F064F80346FB7649E007F108032A49AD
:10525C00184602F0C7FD0346002B06D12549786895
:10526C0000F08CF80346FB7639E007F1080323497C
:10527C00184602F0B7FD0346002B06D11D4978688D
:10528C0000F0B8F80346FB7629E007F108031C4947
:10529C00184602F0A7FD0346002B06D11549786885
:1052AC0000F0DAF80346FB7619E007F1080315491C
:1052BC00184602F097FD0346002B06D10D4978687D
:1052CC0000F0FCF80346FB7609E00F49786800F023
:1052DC00D5FB07F108031946786800F0E2FBFB7E6A
:1052EC0018462037BD46BDE8804004B0704700BF6B
:1052FC00D088000844010020108900081889000893
:10530C001C89000820890008D888000880B586B060
:10531C0000AFF860B9601346FB710023FB750023E6
:10532C00BB75BB68197807F11603FA79104802F0BF
:10533C003DFB0346FB75FB7D002B13D10D49F86833
:10534C0000F09CFBFB7910221946F86800F0C4FBB6
:10535C000949F86800F092FBBB7D10221946F868E9
:10536C0000F0BAFBFB7D18461837BD4680BD00BF68
:10537C0000540040EC8800082489000880B584B0F3
:10538C0000AF786039600023FB73386801F0E8F9EE
:10539C000346FB73FB7B002B1FD11249786800F08E
:1053AC0080FB1149786800F07CFB3968786801F063
:1053BC003DFB0E49786800F074FB3968786801F0A1
:1053CC0035FD0B49786800F06CFB3968786801F0A2
:1053DC0009FE0449786800F064FBFB7B1846103723
:1053EC00BD4680BD2C8900083C89000858890008FE
:1053FC007089000880B584B000AF786039600023F4
:10540C00FB73386801F006F80346FB73FB7B002B3B
:10541C0017D10E49786800F044FB0D49786800F00C
:10542C0040FB3968786801F0D5FB0A49786800F0D0
:10543C0038FB3968786801F00FFD0449786800F092
:10544C0030FBFB7B18461037BD4680BD2C8900080D
:10545C0088890008A889000880B584B000AF7860FE
:10546C0039600023FB73386801F07AF80346FB734C
:10547C00FB7B002B17D10E49786800F012FB0D490D
:10548C00786800F00EFB3968786801F029FC0A494D
:10549C00786800F006FB3968786801F02BFD044948
:1054AC00786800F0FEFAFB7B18461037BD4680BDCD
:1054BC002C890008CC890008E889000880B584B0E4
:1054CC0000AF786039600023FB73386801F0F0F8A6
:1054DC000346FB73FB7B002B17D10E49786800F059
:1054EC00E0FA0D49786800F0DCFA3968786801F068
:1054FC0081FC0A49786800F0D4FA3968786801F0C0
:10550C0047FD0449786800F0CCFAFB7B184610374D
:10551C00BD4680BD2C890008088A0008288A00082E
:10552C0084B080B588B000AF786007F12C0080E8BB
:10553C000E000023BB6007F10C0300221A605A60B6
:10554C009A604FF0FF33FB610123FB7697F83830FC
:10555C00002B15D007F1080310220021184602F089
:10556C0038FC796B97F838301A4607F1080318465F
:10557C0002F021FC07F10803184602F0E0FBF86189
:10558C0097F83030002B0FD007F1080310220021C0
:10559C00184602F01EFCF96A97F830301A4607F1EB
:1055AC000803184602F007FC07F108032A491846BD
:1055BC0002F018FC0346002B10D1FB69002B43DDD5
:1055CC00FB69642B40DCFB69DAB2244B9A70FB69F3
:1055DC00DAB2224BDA700023FB7635E007F10803D0
:1055EC001F49184602F0FEFB0346002B0CD1FB6949
:1055FC00002B29DDFB69642B26DCFB69DAB2174B27
:10560C009A700023FB761FE007F108031549184632
:10561C0002F0E8FB0346002B0CD1FB69002B13DDD9
:10562C00FB69642B10DCFB69DAB20C4BDA700023DB
:10563C00FB7609E00C49786800F020FA07F10803C2
:10564C001946786800F02DFAFB7E18462037BD46C7
:10565C00BDE8804004B07047108900089C01002010
:10566C00188900081C890008D888000884B080B507
:10567C0088B000AF786007F12C0080E80E000023A2
:10568C00BB6007F10C0300221A605A609A604FF05D
:10569C00FF33FB610123FB7697F83830002B15D0D4
:1056AC0007F1080310220021184602F092FB796BD7
:1056BC0097F838301A4607F10803184602F07BFBBE
:1056CC0007F10803184602F03AFBF86197F83030FE
:1056DC00002B0FD007F1080310220021184602F00E
:1056EC0078FBF96A97F830301A4607F10803184628
:1056FC0002F061FB07F108031D49184602F072FB2A
:10570C000346002B0CD1FB69002B29DBFB69032B17
:10571C0026DCFB69DAB2174B1A700023FB761FE00C
:10572C0007F108031449184602F05CFB0346002BF2
:10573C000CD1FB69002B13DBFB69032B10DCFB6921
:10574C00DAB20C4B5A700023FB7609E00B497868EF
:10575C0000F094F907F108031946786800F0A1F9F4
:10576C00FB7E18462037BD46BDE8804004B070472C
:10577C00188900089C0100201C890008D8880008A2
:10578C0080B483B000AF78600B46FB70FB78002BC5
:10579C0010D07B689B899BB243F004039AB27B6860
:1057AC009A817B689B899BB243F020039AB27B68F9
:1057BC009A810FE07B689B899BB223F004039AB219
:1057CC007B689A817B689B899BB223F020039AB2F9
:1057DC007B689A8100BF0C37BD4680BC70470000C7
:1057EC0080B483B000AF0B4B00221A700023FB7106
:1057FC0006E0FB79084A0021D154FB790133FB7197
:10580C00FB793F2BF5D900BF00BF0C37BD4680BCE0
:10581C00704700BF2C030020EC02002080B483B042
:10582C0000AF0346FB710D4B1B78DBB2402B0FD83E
:10583C000A4B1B78DBB20133DAB2084B1A70074BF8
:10584C001B78DBB2013B0649FA79CA54012300E00C
:10585C00002318460C37BD4680BC70472C03002033
:10586C00EC02002080B582B000AF78607B68094AFA
:10587C00934202D100F0A2F905E07B68064A9342FC
:10588C0001D100F0EBF9FFF7ABFF00BF0837BD46C5
:10589C0080BD00BF003801400044004080B584B09A
:1058AC0000AF78600023FB730023BB817B681B88EF
:1058BC009BB2BB817B689B889BB2DBB2FB73BB89C1
:1058CC009BB203F00F03002B0CD1FB7BDBB2184611
:1058DC00FFF7A4FF0346002B04D1FFF781FF044B15
:1058EC0001221A70FB7BDBB218461037BD4680BD17
:1058FC002D03002080B582B000AF0D4B7B600D4BAB
:10590C001B78DBB2002B0ED00A4B1B78DBB219468E
:10591C0004237A680848FCF751FE38603B68002B7A
:10592C0001D0012300E0002318460837BD4680BD96
:10593C004C8A00082C030020EC02002080B483B0B9
:10594C0000AF78600B46FB7000BF7B681B889BB276
:10595C0003F08003002BF8D0FB789AB27B689A8016
:10596C0000BF0C37BD4680BC704780B586B000AF19
:10597C00F860B9601346FB800023FB820023FB8296
:10598C000AE0FB8ABA6813441B781946F868FFF7DB
:10599C00D5FFFB8A0133FB82FA8AFB889A42F0D34B
:1059AC0000BF00BF1837BD4680BD000080B582B077
:1059BC0000AF78600B46FB70144B0B2293E803008E
:1059CC00FCF728FD124B042293E80300FCF722FDA0
:1059DC0000217868FFF7D4FE7B6800221A807B6870
:1059EC009B899BB243F008039AB27B689A81FB783F
:1059FC0019467868FFF7A2FF01217868FFF7C0FE0F
:105A0C00012318460837BD4680BD00BF3401002075
:105A1C003C01002080B584B000AFF860B96013463B
:105A2C00FB80144B0B2293E80300FCF7F3FC124BA6
:105A3C00042293E80300FCF7EDFC0021F868FFF763
:105A4C009FFEFB6800221A80FB689B899BB243F087
:105A5C0008039AB2FB689A81FB881A46B968F86801
:105A6C00FFF783FF0121F868FFF78AFE00BF1037AC
:105A7C00BD4680BD340100203C01002080B582B0C1
:105A8C0000AF786039603868FAF75AFB03469BB26E
:105A9C001A4639687868FFF7BDFF00BF0837BD4666
:105AAC0080BD80B582B000AF786039603868FAF795
:105ABC0047FB03469BB21A4639687868FFF7AAFF82
:105ACC000D217868FFF772FF0A217868FFF76EFFE7
