:020000040800F2
:100000000050002065500008971E0008A31E00083D
:10001000A91E0008AF1E0008B51E00080000000061
:10002000000000000000000000000000BB1E0008EF
:10003000C71E000800000000D31E0008E11E0008D3
:10004000A9500008A9500008A9500008A9500008AC
:10005000A9500008A9500008A9500008A95000089C
:10006000A9500008A9500008A9500008A95000088C
:10007000A9500008A9500008A9500008A95000087C
:10008000A9500008A9500008A9500008A95000086C
:10009000A9500008A9500008A9500008A95000085C
:1000A000A9500008A9500008A9500008A95000084C
:1000B000D1350008E5350008A9500008A95000080E
:1000C000A9500008A9500008A9500008A95000082C
:1000D000A950000899390008C9390008D539000825
:1000E000A9500008A9500008A9500008000000000D
:1000F0000000000000000000000000000000000000
:0C01000000000000000000005FF808F1A3
:10010C0010B5054C237833B9044B13B10448AFF345
:10011C0000800123237010BD74010020000000003A
:10012C006451000808B5034B1BB103490348AFF3F6
:10013C00008008BD00000000780100206451000818
:10014C00034613F8012B002AFBD1181A013870470B
:10015C0081F0004102E000BF83F0004330B54FEA6C
:10016C0041044FEA430594EA050F08BF90EA020FD9
:10017C001FBF54EA000C55EA020C7FEA645C7FEA6C
:10018C00655C00F0E2804FEA5454D4EB5555B8BF8F
:10019C006D420CDD2C4480EA020281EA030382EA00
:1001AC00000083EA010180EA020281EA0303362D92
:1001BC0088BF30BD11F0004F4FEA01314FF4801C65
:1001CC004CEA113102D0404261EB410113F0004F77
:1001DC004FEA03334CEA133302D0524263EB43032E
:1001EC0094EA050F00F0A780A4F10104D5F1200ECC
:1001FC000DDB02FA0EFC22FA05F2801841F1000127
:10020C0003FA0EF2801843FA05F359410EE0A5F1FA
:10021C0020050EF1200E012A03FA0EFC28BF4CF02B
:10022C00020C43FA05F3C01851EBE37101F00045E1
:10023C0007D54FF0000EDCF1000C7EEB00006EEBEE
:10024C000101B1F5801F1BD3B1F5001F0CD3490878
:10025C005FEA30004FEA3C0C04F101044FEA4452CF
:10026C0012F5800F80F09A80BCF1004F08BF5FEA56
:10027C00500C50F1000041EB045141EA050130BD36
:10028C005FEA4C0C404141EB0101013C28BFB1F548
:10029C00801FE9D291F0000F04BF01460020B1FA93
:1002AC0081F308BF2033A3F10B03B3F120020CDA66
:1002BC000C3208DD02F1140CC2F10C0201FA0CF044
:1002CC0021FA02F10CE002F11402D8BFC2F1200CA9
:1002DC0001FA02F120FA0CFCDCBF41EA0C0190405F
:1002EC00E41AA2BF01EB0451294330BD6FEA0404A8
:1002FC001F3C1CDA0C340EDC04F11404C4F1200293
:10030C0020FA04F001FA02F340EA030021FA04F3A4
:10031C0045EA030130BDC4F10C04C4F1200220FAFB
:10032C0002F001FA04F340EA0300294630BD21FA39
:10033C0004F0294630BD94F0000F83F4801306BFFF
:10034C0081F480110134013D4EE77FEA645C18BFF3
:10035C007FEA655C29D094EA050F08BF90EA020F8A
:10036C0005D054EA000C04BF1946104630BD91EA82
:10037C00030F1EBF0021002030BD5FEA545C05D185
:10038C004000494128BF41F0004130BD14F58004C4
:10039C003CBF01F5801130BD01F0004545F0FE4138
:1003AC0041F470014FF0000030BD7FEA645C1ABF6D
:1003BC00194610467FEA655C1CBF0B46024650EAA4
:1003CC00013406BF52EA033591EA030F41F40021D0
:1003DC0030BD00BF90F0000F04BF0021704730B556
:1003EC004FF4806404F132044FF000054FF000012B
:1003FC0050E700BF90F0000F04BF0021704730B5EC
:10040C004FF4806404F1320410F0004548BF4042C0
:10041C004FF000013EE700BF42004FEAE2014FEA15
:10042C0031014FEA02701FBF12F07F4393F07F4FF0
:10043C0081F06051704732F07F4208BF704793F0F3
:10044C007F4F04BF41F40021704730B54FF4607406
:10045C0001F0004521F000411CE700BF50EA010209
:10046C0008BF704730B54FF000050AE050EA0102B2
:10047C0008BF704730B511F0004502D5404261EB22
:10048C0041014FF4806404F132045FEA915C3FF463
:10049C00D8AE4FF003025FEADC0C18BF03325FEA00
:1004AC00DC0C18BF033202EBDC02C2F1200300FAB1
:1004BC0003FC20FA02F001FA03FE40EA0E0021FAD6
:1004CC0002F11444BDE600BF70B54FF0FF0C4CF4C4
:1004DC00E06C1CEA11541DBF1CEA135594EA0C0F76
:1004EC0095EA0C0F00F0DEF82C4481EA030621EAB1
:1004FC004C5123EA4C5350EA013518BF52EA0335EC
:10050C0041F4801143F4801338D0A0FB02CE4FF09D
:10051C000005E1FB02E506F00042E0FB03E54FF0CD
:10052C000006E1FB03569CF0000F18BF4EF0010EC5
:10053C00A4F1FF04B6F5007F64F5407404D25FEAC1
:10054C004E0E6D4146EB060642EAC62141EA555174
:10055C004FEAC52040EA5E504FEACE2EB4F1FD0CB6
:10056C0088BFBCF5E06F1ED8BEF1004F08BF5FEA34
:10057C00500E50F1000041EB045170BD06F00046E6
:10058C0046EA010140EA020081EA0301B4EB5C0493
:10059C00C2BFD4EB0C0541EA045170BD41F480118B
:1005AC004FF0000E013C00F3AB8014F1360FDEBFB0
:1005BC00002001F0004170BDC4F10004203C35DA8C
:1005CC000C341BDC04F11404C4F1200500FA05F30F
:1005DC0020FA04F001FA05F240EA020001F00042B0
:1005EC0021F0004110EBD37021FA04F642EB060126
:1005FC005EEA430E08BF20EAD37070BDC4F10C0450
:10060C00C4F1200500FA04F320FA05F001FA04F213
:10061C0040EA020001F0004110EBD37041F10001FF
:10062C005EEA430E08BF20EAD37070BDC4F120050A
:10063C0000FA05F24EEA020E20FA04F301FA05F272
:10064C0043EA020321FA04F001F0004121FA04F21A
:10065C0020EA020000EBD3705EEA430E08BF20EAEA
:10066C00D37070BD94F0000F0FD101F00046400024
:10067C0041EB010111F4801F08BF013CF7D041EAA6
:10068C00060195F0000F18BF704703F000465200AA
:10069C0043EB030313F4801F08BF013DF7D043EA7B
:1006AC000603704794EA0C0F0CEA135518BF95EA31
:1006BC000C0F0CD050EA410618BF52EA4306D1D1B8
:1006CC0081EA030101F000414FF0000070BD50EAD7
:1006DC00410606BF1046194652EA430619D094EA61
:1006EC000C0F02D150EA013613D195EA0C0F05D14B
:1006FC0052EA03361CBF104619460AD181EA03019F
:10070C0001F0004141F0FE4141F470014FF0000056
:10071C0070BD41F0FE4141F4780170BD70B54FF0F1
:10072C00FF0C4CF4E06C1CEA11541DBF1CEA135571
:10073C0094EA0C0F95EA0C0F00F0A7F8A4EB050453
:10074C0081EA030E52EA03354FEA013100F088804A
:10075C004FEA03334FF0805545EA131343EA126313
:10076C004FEA022245EA111545EA10654FEA0026C8
:10077C000EF000419D4208BF964244F1FD0404F581
:10078C00407402D25B084FEA3202B61A65EB0305DD
:10079C005B084FEA32024FF480104FF4002CB6EB9A
:1007AC00020E75EB030E22BFB61A754640EA0C001A
:1007BC005B084FEA3202B6EB020E75EB030E22BF5A
:1007CC00B61A754640EA5C005B084FEA3202B6EB9B
:1007DC00020E75EB030E22BFB61A754640EA9C005A
:1007EC005B084FEA3202B6EB020E75EB030E22BF2A
:1007FC00B61A754640EADC0055EA060E18D04FEAE8
:10080C00051545EA16754FEA06164FEAC30343EA87
:10081C0052734FEAC2025FEA1C1CC0D111F4801F54
:10082C000BD141EA00014FF000004FF0004CB6E74D
:10083C0011F4801F04BF01430020B4F1FD0C88BFEC
:10084C00BCF5E06F3FF6AFAEB5EB030C04BFB6EBF7
:10085C00020C5FEA500C50F1000041EB045170BDEA
:10086C000EF0004E4EEA113114EB5C04C2BFD4EB17
:10087C000C0541EA045170BD41F480114FF0000E9B
:10088C00013C90E645EA060E8DE60CEA135594EA17
:10089C000C0F08BF95EA0C0F3FF43BAF94EA0C0F1A
:1008AC000AD150EA01347FF434AF95EA0C0F7FF48F
:1008BC0025AF104619462CE795EA0C0F06D152EAE3
:1008CC0003353FF4FDAE1046194622E750EA4106C7
:1008DC0018BF52EA43067FF4C5AE50EA41047FF4D8
:1008EC000DAF52EA43057FF4EBAE12E74FEA41023B
:1008FC00B2F1E04324BFB3F5001CDCF1FE5C0DD972
:10090C0001F0004C4FEAC0024CEA5070B2F1004FBB
:10091C0040EB830008BF20F00100704711F0804FBE
:10092C0021D113F13872BCBF01F00040704741F483
:10093C0080114FEA5252C2F11802C2F1200C10FA87
:10094C000CF320FA02F018BF40F001004FEAC1236B
:10095C004FEAD32303FA0CFC40EA0C0023FA02F30F
:10096C004FEA4303CCE77FEA625307D150EA0133E5
:10097C001EBF4FF0FE4040F44000704701F00040B5
:10098C0040F0FE4040F40000704700BF80F0004093
:10099C0002E000BF81F0004142001FBF5FEA41034B
:1009AC0092EA030F7FEA226C7FEA236C6AD04FEA4B
:1009BC001262D2EB1363C1BFD21841404840414090
:1009CC00B8BF5B42192B88BF704710F0004F40F442
:1009DC00000020F07F4018BF404211F0004F41F45E
:1009EC00000121F07F4118BF494292EA030F3FD02A
:1009FC00A2F1010241FA03FC10EB0C00C3F120033D
:100A0C0001FA03F100F0004302D5494260EB4000CB
:100A1C00B0F5000F13D3B0F1807F06D340084FEA36
:100A2C00310102F10102FE2A51D2B1F1004F40EB2B
:100A3C00C25008BF20F0010040EA03007047490093
:100A4C0040EB0000013A28BFB0F5000FEDD2B0FA30
:100A5C0080FCACF1080CB2EB0C0200FA0CF0AABF53
:100A6C0000EBC25052421843BCBFD04018437047F1
:100A7C0092F0000F81F4000106BF80F400000132F7
:100A8C00013BB5E74FEA41037FEA226C18BF7FEACE
:100A9C00236C21D092EA030F04D092F0000F08BF10
:100AAC000846704790EA010F1CBF0020704712F0F7
:100ABC007F4F04D1400028BF40F00040704712F136
:100ACC0000723CBF00F50000704700F0004343F09B
:100ADC00FE4040F4000070477FEA226216BF0846D1
:100AEC007FEA23630146420206BF5FEA412390EA94
:100AFC00010F40F4800070474FF0000304E000BF8A
:100B0C0010F0004348BF40425FEA000C08BF70473A
:100B1C0043F0964301464FF000001CE050EA0102FE
:100B2C0008BF70474FF000030AE000BF50EA010213
:100B3C0008BF704711F0004302D5404261EB410100
:100B4C005FEA010C02BF84460146002043F0B64325
:100B5C0008BFA3F18053A3F50003BCFA8CF2083A4A
:100B6C00A3EBC25310DB01FA02FC634400FA02FC53
:100B7C00C2F12002BCF1004F20FA02F243EB02005A
:100B8C0008BF20F00100704702F1200201FA02FCBC
:100B9C00C2F1200250EA4C0021FA02F243EB0200AF
:100BAC0008BF20EADC7070474FF0FF0C1CEAD052F3
:100BBC001EBF1CEAD15392EA0C0F93EA0C0F6FD0B4
:100BCC001A4480EA010C400218BF5FEA41211ED092
:100BDC004FF0006343EA501043EA5111A0FB01317E
:100BEC000CF00040B1F5000F3EBF490041EAD37153
:100BFC005B0040EA010062F17F02FD2A1DD8B3F1CF
:100C0C00004F40EBC25008BF20F00100704790F03D
:100C1C00000F0CF0004C08BF49024CEA502040EA8F
:100C2C0051207F3AC2BFD2F1FF0340EAC250704755
:100C3C0040F400004FF00003013A5DDC12F1190F93
:100C4C00DCBF00F000407047C2F10002410021FA05
:100C5C0002F1C2F1200200FA02FC5FEA310040F11D
:100C6C00000053EA4C0308BF20EADC70704792F096
:100C7C00000F00F0004C02BF400010F4000F013ACE
:100C8C00F9D040EA0C0093F0000F01F0004C02BFC9
:100C9C00490011F4000F013BF9D041EA0C018FE738
:100CAC000CEAD15392EA0C0F18BF93EA0C0F0AD03E
:100CBC0030F0004C18BF31F0004CD8D180EA010064
:100CCC0000F00040704790F0000F17BF90F0004FFD
:100CDC00084691F0000F91F0004F14D092EA0C0FDF
:100CEC0001D142020FD193EA0C0F03D14B0218BF72
:100CFC00084608D180EA010000F0004040F0FE40B8
:100D0C0040F40000704740F0FE4040F44000704753
:100D1C004FF0FF0C1CEAD0521EBF1CEAD15392EAD2
:100D2C000C0F93EA0C0F69D0A2EB030280EA010CC2
:100D3C0049024FEA402037D04FF0805343EA11115B
:100D4C0043EA10130CF000408B4238BF5B0042F1B9
:100D5C007D024FF4000C8B4224BF5B1A40EA0C005E
:100D6C00B3EB510F24BFA3EB510340EA5C00B3EB90
:100D7C00910F24BFA3EB910340EA9C00B3EBD10F7E
:100D8C0024BFA3EBD10340EADC001B0118BF5FEAD0
:100D9C001C1CE0D1FD2A3FF650AF8B4240EBC250F9
:100DAC0008BF20F0010070470CF0004C4CEA5020BA
:100DBC007F32C2BFD2F1FF0340EAC250704740F409
:100DCC0000004FF00003013A37E792F0000F00F0FB
:100DDC00004C02BF400010F4000F013AF9D040EA79
:100DEC000C0093F0000F01F0004C02BF490011F40D
:100DFC00000F013BF9D041EA0C0195E70CEAD15305
:100E0C0092EA0C0F08D142027FF47DAF93EA0C0FEB
:100E1C007FF470AF084676E793EA0C0F04D14B02CF
:100E2C003FF44CAF08466EE730F0004C18BF31F081
:100E3C00004CCAD130F000427FF45CAF31F000437B
:100E4C007FF43CAF5FE700BF4FF0FF3C06E000BF14
:100E5C004FF0010C02E000BF4FF0010C4DF804CD37
:100E6C004FEA40024FEA41037FEA226C18BF7FEA47
:100E7C00236C11D001B052EA530C18BF90EA010F49
:100E8C0058BFB2EB030088BFC81738BF6FEAE170D8
:100E9C0018BF40F0010070477FEA226C02D15FEA74
:100EAC00402C05D17FEA236CE4D15FEA412CE1D0E0
:100EBC005DF8040B704700BF844608466146FFE7A7
:100ECC000FB5FFF7C9FF002848BF10F1000F0FBD89
:100EDC004DF808EDFFF7F4FF0CBF012000205DF882
:100EEC0008FB00BF4DF808EDFFF7EAFF34BF012007
:100EFC0000205DF808FB00BF4DF808EDFFF7E0FFA0
:100F0C0094BF012000205DF808FB00BF4DF808EDF0
:100F1C00FFF7D2FF94BF012000205DF808FB00BF53
:100F2C004DF808EDFFF7C8FF34BF012000205DF835
:100F3C0008FB00BF42000ED2B2F1FE4F0BD34FF0B4
:100F4C009E03B3EB126209D44FEA002343F0004333
:100F5C0023FA02F070474FF00000704712F1610F56
:100F6C0001D1420202D14FF0FF3070474FF0000028
:100F7C00704700BF53B94AB9002908BF00281CBFED
:100F8C004FF0FF314FF0FF3000F076B9ADF1080CA7
:100F9C006DE904CE00F006F8DDF804E0DDE902238B
:100FAC0004B070472DE9F047089E0D46044688466C
:100FBC00002B4DD18A42944668D9B2FA82F252B1D2
:100FCC0001FA02F3C2F1200120FA01F10CFA02FC41
:100FDC0041EA030894404FEA1C41B8FBF1F71FFAB1
:100FEC008CFE01FB178807FB0EF0230C43EA084329
:100FFC0098420AD91CEB030307F1FF3580F01E81E0
:10100C00984240F21B81023F63441B1AB3FBF1F080
:10101C0001FB103300FB0EFEA4B244EA0344A645C8
:10102C000AD91CEB040400F1FF3380F00981A645BA
:10103C0040F20681644402380021A4EB0E0440EA1D
:10104C0007401EB10023D440C6E90043BDE8F08739
:10105C008B4208D9002E00F0EE800021C6E9000575
:10106C000846BDE8F087B3FA83F100294AD1AB42B8
:10107C0002D3824200F2FC80841A65EB0303012048
:10108C009846002EE2D0C6E90048DFE702B9FFDE41
:10109C00B2FA82F2002A40F09180A1EB0C000121FF
:1010AC004FEA1C471FFA8CFEB0FBF7F307FB13004B
:1010BC00250C45EA00450EFB03F0A84208D91CEBB1
:1010CC00050503F1FF3802D2A84200F2CE80434658
:1010DC002D1AB5FBF7F007FB10550EFB00FEA4B262
:1010EC0044EA0544A64508D91CEB040400F1FF357D
:1010FC0002D2A64500F2B6802846A4EB0E0440EAC4
:10110C0003409EE7C1F120078B4022FA07FC4CEA12
:10111C00030C25FA07FA4FEA1C49BAFBF9F820FA36
:10112C0007F309FB18AA8D401FFA8CFE1D4300FA29
:10113C0001F308FB0EF02C0C44EA0A44A04202FA1C
:10114C0001F20BD91CEB040408F1FF3A80F0888003
:10115C00A04240F28580A8F102086444241AB4FB32
:10116C00F9F009FB104400FB0EFEADB245EA044455
:10117C00A64508D91CEB040400F1FF356CD2A6453A
:10118C006AD90238644440EA0840A0FB0295A4EBFB
:10119C000E04AC42C846AE4656D353D0002E69D08E
:1011AC00B3EB080264EB0E0422FA01F304FA07F71E
:1011BC001F43CC40C6E90074002147E70CFA02FC3F
:1011CC00C2F1200125FA01F34FEA1C4720FA01F184
:1011DC0095400D43B3FBF7F107FB11331FFA8CFE5F
:1011EC00280C40EA034001FB0EF3834204FA02F49C
:1011FC0008D91CEB000001F1FF382FD283422DD906
:10120C0002396044C01AB0FBF7F307FB1300ADB210
:10121C0045EA004503FB0EF0A84208D91CEB050576
:10122C0003F1FF3816D2A84214D9023B6544281AA0
:10123C0043EA014138E73146304607E72F46E4E6FA
:10124C001846F9E64B45A9D2B9EB020865EB0C0E32
:10125C000138A3E74346EAE7284694E74146D1E73D
:10126C00D0467BE76444023847E7023B65442FE7EE
:10127C00084606E73146E9E6704700BF80B500AF87
:10128C0002F03EF802F0C6F8FCE7000080B483B030
:10129C0000AF7860054A7B6843F0BF6343F40033CA
:1012AC00D36000BF0C37BD4680BC704700ED00E03A
:1012BC0080B487B000AF786000237B6100233B6172
:1012CC000F23FB607B68DB78002B3AD0274BDB6865
:1012DC00DB431B0A03F007037B617B69C3F1040347
:1012EC003B61FA687B6922FA03F3FB607B685B78ED
:1012FC001A463B6902FA03F37B617B689B781A46BA
:10130C00FB6813407A6913437B617B691B017B612A
:10131C00174A7B681B787969C9B213440A4683F86B
:10132C0000237B681B7803F01F0311497A6812783D
:10133C005209D2B21046012202FA03F341F82030CE
:10134C000FE07B681B7803F01F0309497A68127859
:10135C005209D2B2104601229A4000F1200341F802
:10136C00232000BF1C37BD4680BC704700ED00E059
:10137C0000E100E080B489B000AF786039600023F0
:10138C00FB6100233B610023BB610023FB60002356
:10139C007B610023BB603B68DB7803F00F03FB61D0
:1013AC003B68DB7803F01003002B05D03B689B787F
:1013BC001A46FB691343FB613B681B88DBB2002BAD
:1013CC0044D07B681B687B610023BB6138E0012241
:1013DC00BB6902FA03F3FB603B681B881A46FB6887
:1013EC0013403B613A69FB689A4226D1BB699B006A
:1013FC00FB600F22FB6802FA03F3BB60BB68DB43A4
:10140C007A6913407B61FA69FB6802FA03F37A6923
:10141C0013437B613B68DB78282B05D10122BB6928
:10142C009A407B685A6108E03B68DB78482B04D112
:10143C000122BB699A407B681A61BB690133BB61AD
:10144C00BB69072BC3D97B687A691A603B681B8818
:10145C00FF2B46D97B685B687B610023BB613AE05C
:10146C00BB690833012202FA03F3FB603B681B885B
:10147C001A46FB6813403B613A69FB689A4227D1D4
:10148C00BB699B00FB600F22FB6802FA03F3BB6095
:10149C00BB68DB437A6913407B61FA69FB6802FA2B
:1014AC0003F37A6913437B613B68DB78282B05D106
:1014BC00BB69083301229A407B685A613B68DB7830
:1014CC00482B05D1BB69083301229A407B681A610D
:1014DC00BB690133BB61BB69072BC1D97B687A69D6
:1014EC005A6000BF2437BD4680BC704780B483B0BF
:1014FC0000AF78607B684FF6FF721A807B6802221F
:10150C009A707B680422DA7000BF0C37BD4680BC31
:10151C00704780B485B000AF78600B467B800023A9
:10152C00FB737B689A687B881340002B02D00123E5
:10153C00FB7301E00023FB73FB7B18461437BD469D
:10154C0080BC704780B483B000AF78607B689B68C8
:10155C009BB218460C37BD4680BC704780B485B032
:10156C0000AF78600B467B800023FB737B68DA68E6
:10157C007B881340002B02D00123FB7301E0002376
:10158C00FB73FB7B18461437BD4680BC704780B498
:10159C0083B000AF78607B68DB689BB218460C3771
:1015AC00BD4680BC704780B483B000AF78600B46FA
:1015BC007B807A887B681A6100BF0C37BD4680BC83
:1015CC00704780B483B000AF78600B467B801346C5
:1015DC007B707B78002B03D07A887B681A6102E0E1
:1015EC007A887B685A6100BF0C37BD4680BC704757
:1015FC0080B58AB000AF786039600023FB8400238B
:10160C007B840423BB84574BFB617B689B88FB84E6
:10161C00FB8C23F03F03FB8407F10803184600F012
:10162C00C7F83B69FB61FB694F4AA2FB03239B0C88
:10163C007B84FA8C7B8C1343FB847B68FA8C9A80BA
:10164C007B681B889BB223F001039AB27B681A80DB
:10165C000023FB843B681B68444A934215D83B68C3
:10166C001B685B00FA69B2FBF3F3BB84BB8C032BE6
:10167C0001D80423BB84FA8CBB8C1343FB847B8C76
:10168C0001339AB27B681A8440E03B68DB884BF6E6
:10169C00FF72934209D13B681A6813465B001344EE
:1016AC00FA69B2FBF3F3BB840EE03B681A6813468D
:1016BC009B0013449A001344FA69B2FBF3F3BB8406
:1016CC00BB8C43F48043BB84BB8CC3F30B03002B58
:1016DC0003D1BB8C43F00103BB84BA8CFB8C13434A
:1016EC009BB26FEA43436FEA5343FB847B8C4FF40A
:1016FC00967202FB03F31E4A82FB03129211DB1754
:10170C00D31A9BB201339AB27B681A847B68FA8C29
:10171C009A837B681B889BB243F001039AB27B6867
:10172C001A807B681B88FB84FB8C23F4816323F079
:10173C000203FB843B689A883B685B8913439AB22B
:10174C00FB8C1343FB847B68FA8C1A803B689A8968
:10175C003B681B8913439AB27B681A8100BF2837F8
:10176C00BD4680BD00127A0083DE1B43A0860100BB
:10177C00D34D621080B483B000AF78607B6841F2C7
:10178C0088321A607B6800229A807B684BF6FF7265
:10179C00DA807B6800221A817B6800225A817B6880
:1017AC004FF480429A8100BF0C37BD4680BC704715
:1017BC0080B487B000AF786000237B6100233B616D
:1017CC000023FB600023BB604F4B5B6803F00C03F2
:1017DC007B617B69082B11D07B69082B3AD87B691C
:1017EC00002B03D07B69042B04D033E07B68474A81
:1017FC001A6033E07B68454A1A602FE0424B5B6805
:10180C0003F470133B61404B5B6803F48033FB6063
:10181C003B699B0C02333B61FB68002B06D13B6997
:10182C003B4A03FB02F27B681A6017E0364B5B689D
:10183C0003F40033002B06D03B69354A03FB02F25C
:10184C007B681A600AE03B69304A03FB02F27B6852
:10185C001A6003E07B682D4A1A6000BF2A4B5B6854
:10186C0003F0F0037B617B691B097B61294A7B696F
:10187C0013441B78DBB2BB607B681A68BB68DA4028
:10188C007B685A60204B5B6803F4E0637B617B6987
:10189C001B0A7B611F4A7B6913441B78DBB2BB605C
:1018AC007B685A68BB68DA407B689A60164B5B6849
:1018BC0003F460537B617B69DB0A7B61154A7B69AE
:1018CC0013441B78DBB2BB607B685A68BB68DA4098
:1018DC007B68DA600C4B5B6803F440437B617B698B
:1018EC009B0B7B610C4A7B6913441B78DBB2BB609E
:1018FC007B68DA68BB68B2FBF3F27B681A6100BFE5
:10190C001C37BD4680BC70470010024000127A00A4
:10191C0000093D00000000201000002080B483B0BE
:10192C0000AF78600B46FB70FB78002B06D0094BA0
:10193C009A6908497B6813438B6106E0054B9A69E9
:10194C007B68DB43034913408B6100BF0C37BD46FA
:10195C0080BC70470010024080B483B000AF786048
:10196C000B46FB70FB78002B06D0094BDA69084953
:10197C007B681343CB6106E0054BDA697B68DB437C
:10198C0003491340CB6100BF0C37BD4680BC704788
:10199C000010024080B483B000AF78600B46FB703F
:1019AC00FB78002B06D0094B1A6908497B68134356
:1019BC000B6106E0054B1A697B68DB430349134056
:1019CC000B6100BF0C37BD4680BC70470010024055
:1019DC0080B485B000AF786039600023FB817B68F0
:1019EC001B88FB817B682E4A934213D07B682D4A5F
:1019FC0093420FD07B68B3F1804F0BD07B682A4A9F
:101A0C00934207D07B68294A934203D07B68284ACB
:101A1C00934208D1FB8923F07003FB813B685A8801
:101A2C00FB891343FB817B68224A93420CD07B6871
:101A3C00214A934208D0FB8923F44073FB813B6815
:101A4C00DA88FB891343FB817B68FA891A803B682F
:101A5C009A887B689A853B681A887B681A857B68AC
:101A6C000F4A93420FD07B680E4A93420BD07B688F
:101A7C00124A934207D07B68114A934203D07B6889
:101A8C00104A934204D13B681B7A9AB27B681A863F
:101A9C007B6801229A8200BF1437BD4680BC704718
:101AAC00002C0140003401400004004000080040BC
:101ABC00000C0040001000400014004000400140A9
:101ACC00004401400048014080B483B000AF78600E
:101ADC000B46FB70FB78002B08D07B681B889BB2F5
:101AEC0043F001039AB27B681A8007E07B681B887D
:101AFC009BB223F001039AB27B681A8000BF0C37AB
:101B0C00BD4680BC704780B483B000AF78600B4694
:101B1C007B807B88DB439AB27B681A8200BF0C37D0
:101B2C00BD4680BC7047000080B58CB000AF7860BB
:101B3C0039600023FB620023BB6200237B6200231D
:101B4C003B620023FB617B68FB617B681B8A9BB259
:101B5C00FB62FA6A4CF6FF731340FB623B68DB884E
:101B6C001A46FB6A1343FB62FB6A9AB27B681A82C1
:101B7C007B689B899BB2FB62FA6A4EF6F3131340A7
:101B8C00FB623B689A883B681B8913439AB23B689B
:101B9C005B8913439BB21A46FB6A1343FB62FB6AD5
:101BAC009AB27B689A817B689B8A9BB2FB62FA6AC9
:101BBC004FF6FF431340FB623B689B891A46FB6A56
:101BCC001343FB62FB6A9AB27B689A8207F10803A3
:101BDC001846FFF7EDFDFB692E4A934202D17B6953
:101BEC00BB6201E03B69BB627B689B899BB21BB209
:101BFC00002B0CDABA6A13469B0013449A001A4461
:101C0C003B681B685B00B2FBF3F37B620BE0BA6AC8
:101C1C0013469B0013449A001A443B681B689B00B4
:101C2C00B2FBF3F37B627B6A1B4AA2FB03235B09C7
:101C3C001B01FB62FB6A1B09642202FB03F37A6A39
:101C4C00D31A3B627B689B899BB21BB2002B0CDACC
:101C5C003B6ADB003233104AA2FB03235B0903F01F
:101C6C000703FA6A1343FB620BE03B6A1B01323336
:101C7C00094AA2FB03235B0903F00F03FA6A13431F
:101C8C00FB62FB6A9AB27B681A8100BF3037BD4693
:101C9C0080BD00BF003801401F85EB5180B483B07C
:101CAC0000AF78607B684FF416521A607B68002294
:101CBC009A807B680022DA807B6800221A817B681C
:101CCC000C225A817B6800229A8100BF0C37BD46DA
:101CDC0080BC704780B483B000AF78600B46FB705B
:101CEC00FB78002B08D07B689B899BB243F4005394
:101CFC009AB27B689A8107E07B689B899BB223F43C
:101D0C0000539AB27B689A8100BF0C37BD4680BCE9
:101D1C00704780B487B000AF78600B467B80134669
:101D2C007B7000233B610023FB600023BB6000231E
:101D3C007B617B687B617B88DBB25B09DBB23B61DF
:101D4C007B8803F01F03FB600122FB6802FA03F39C
:101D5C00BB603B69012B03D17B690C337B6109E0D0
:101D6C003B69022B03D17B6910337B6102E07B69F9
:101D7C0014337B617B78002B06D07B6919687B69F7
:101D8C00BA680A431A6006E07B691968BB68DA43D3
:101D9C007B690A401A6000BF1C37BD4680BC704787
:101DAC0080B485B000AF78600B467B800023FB735A
:101DBC007B681B889AB27B8813409BB2002B02D0A5
:101DCC000123FB7301E00023FB73FB7B18461437E4
:101DDC00BD4680BC704780B487B000AF78600B46BE
:101DEC007B800023FB6000237B610023BB6000230E
:101DFC00FB747B88DBB25B09DBB2BB607B8803F0D6
:101E0C001F037B6101227B6902FA03F37B61BB68D0
:101E1C00012B07D17B689B899BB21A467B691340C7
:101E2C007B6111E0BB68022B07D17B681B8A9BB2DC
:101E3C001A467B6913407B6106E07B689B8A9BB2E8
:101E4C001A467B6913407B617B881B0A9BB2FB6043
:101E5C000122FB6802FA03F3FB607B681B889BB2D0
:101E6C001A46FB681340FB607B69002B05D0FB68AE
:101E7C00002B02D00123FB7401E00023FB74FB7CDC
:101E8C0018461C37BD4680BC704780B400AF00BFFD
:101E9C00BD4680BC704780B400AFFEE780B400AF95
:101EAC00FEE780B400AFFEE780B400AFFEE780B47D
:101EBC0000AF00BFBD4680BC704780B400AF00BF10
:101ECC00BD4680BC704780B400AF00BFBD4680BC2F
:101EDC007047000080B500AF0C4B1B68002B04D082
:101EEC000A4B1B68013B094A1360094B1B68002B0A
:101EFC0004D0074B1B68013B054A1360054B1B784C
:101F0C00002B01D001F092FA00BF80BD900100209F
:101F1C006C010020D801002080B500AF154B1B6868
:101F2C00144A43F001031360124B5A681149124BC7
:101F3C0013404B600F4B1B680E4A23F0847323F441
:101F4C00803313600B4B1B680A4A23F48023136005
:101F5C00084B5B68074A23F4FE035360054B4FF4B0
:101F6C001F029A6000F00CF8044B4FF000629A606C
:101F7C0000BF80BD001002400000FFF800ED00E043
:101F8C0080B500AF00F002F800BF80BD80B483B014
:101F9C0000AF00237B6000233B603A4B1B68394A3F
:101FAC0043F480331360374B1B6803F400333B60FE
:101FBC007B6801337B603B68002B03D17B68B3F5F6
:101FCC00A06FF0D12F4B1B6803F40033002B02D011
:101FDC0001233B6001E000233B603B68012B4BD1AC
:101FEC00294B1B68284A43F010031360264B1B68CF
:101FFC00254A23F007031360234B1B68224A43F046
:10200C00020313601F4B1F4A5B6853601D4B1D4A34
:10201C005B6853601B4B5B681A4A43F480635360E4
:10202C00184B5B68174A23F47C135360154B5B68A1
:10203C00144A43F4E8135360124B1B68114A43F0E3
:10204C008073136000BF0F4B1B6803F00073002BF1
:10205C00F9D00C4B5B680B4A23F003035360094B1C
:10206C005B68084A43F00203536000BF054B5B6892
:10207C0003F00C03082BF9D100BF0C37BD4680BC14
:10208C00704700BF001002400020024080B584B0B1
:10209C0000AF7860084611461A4603467B800B4613
:1020AC007B7013463B7007F10C031846FFF71EFAC2
:1020BC007B78FB733B78BB737B88012202FA03F3BA
:1020CC009BB2BB8107F10C0319467868FFF752F9F4
:1020DC0000BF1037BD4680BD90B587B000AF07F18B
:1020EC00080484E8030011461A460B46FB7113469C
:1020FC00BB7107F114031846FFF7F8F9FB79FB7570
:10210C00BB79BB75BB891A46012393409BB2BB823A
:10211C00BB6807F1140211461846FFF72BF900BFF4
:10212C001C37BD4690BD80B489B000AF07F10803E1
:10213C0083E803001346FB710023FB610023BB61A2
:10214C000023FB82BB89072B01D8BB8902E0BB892A
:10215C00083B9BB2FB82FB8A9B00FB82FB7903F062
:10216C000F03FB61BB89072B13D8BB681B68FA8A6A
:10217C000F2101FA02F2D2431340BB61FB8AFA69C8
:10218C0002FA03F3BA691343BB61BB68BA691A60FC
:10219C0012E0BB685B68FA8A0F2101FA02F2D243A3
:1021AC001340BB61FB8AFA6902FA03F3BA69134361
:1021BC00BB61BB68BA695A6000BF2437BD4680BC9E
:1021CC00704780B483B000AF3B4683E803003B68A4
:1021DC001A69BB88194601238B409BB219463B6890
:1021EC000A431A6100BF0C37BD4680BC704780B4EF
:1021FC0083B000AF3B4683E803003B685A69BB8859
:10220C00194601238B409BB219463B680A435A611D
:10221C0000BF0C37BD4680BC704780B483B000AFA4
:10222C003B4683E803003B68DB68BA881146012211
:10223C008A401340002B0AD03B685A69BB88194668
:10224C0001238B4019463B680A435A6109E03B68FD
:10225C001A69BB88194601238B4019463B680A430F
:10226C001A6100BF0C37BD4680BC704780B582B088
:10227C0000AF3B4683E8030008223B4693E803008B
:10228C00FFF751FF3B681969BB881A46012303FA13
:10229C0002F23B680A431A6100BF0837BD4680BD95
:1022AC0080B483B000AF3B4683E803003B689B6877
:1022BC00BA88114601228A401340002B01D0012319
:1022CC0000E0002318460C37BD4680BC7047000068
:1022DC00B0B58CB000AFF860B9601346FB71002349
:1022EC007B614FF00001B868FEF7FCFD0346002B44
:1022FC0005D001233B76BB6883F00043BB604FF0F5
:10230C000002334BC7E90A23002387F827300FE07C
:10231C004FF000022F4BD7E90A01FEF7FFF90246F6
:10232C000B46C7E90A2397F82730013387F8273083
:10233C0097F82720FB799A42EAD3B868FEF76CF835
:10234C00D7E90A23FDF70AFF02460B461046194649
:10235C00FEF7CCFA0346BB60B868FEF7EBFD03460C
:10236C00FB61B868FEF758F804460D46F869FEF7AD
:10237C0031F802460B4620462946FDF7EDFE024693
:10238C000B4610461946FEF7B1FA03463B6205E0D0
:10239C001149386AFEF708FC03463B62FB795A1E6A
:1023AC00FA71002BF4D1FB699BB2FB82386AFEF701
:1023BC00C1FD0346DBB23B75FB681A4607F11403FB
:1023CC0093E8030082E80300F8683037BD46B0BDDF
:1023DC000000E03F000024400000204180B582B0A6
:1023EC0000AF0023FB710BE0FB790C490222DB00F0
:1023FC000B4493E80300FFF796FEFB790133FB7166
:10240C00FB79072BF0D9064B022293E80300FFF768
:10241C008AFE00BF0837BD4680BD00BF28000020E3
:10242C002000002080B582B000AF0023FB710BE0D0
:10243C00FB7909490222DB000B4493E80300FFF708
:10244C0072FEFB790133FB71FB79052BF0D900BFD0
:10245C0000BF0837BD4680BD6800002080B584B041
:10246C0000AF0346FB711C4B93E80300FFF7A9FE7A
:10247C000023FB731BE0FA79FB7B42FA03F303F0B6
:10248C000103002B08D0FB7B144ADB00134493E8B8
:10249C000300FFF796FE07E0FB7B104ADB001344BA
:1024AC0093E80300FFF7A3FEFB7B0133FB73FB7B7D
:1024BC00072BE0D9084B93E80300FFF798FE00BF09
:1024CC0000BF00BF00BF044B93E80300FFF779FE89
:1024DC0000BF1037BD4680BD200000202800002022
:1024EC0080B584B000AF0346FB710023FB731BE087
:1024FC00FA79FB7B42FA03F303F00103002B08D0BB
:10250C00FB7B0D4ADB00134493E80300FFF759FEF5
:10251C0007E0FB7B084ADB00134493E80300FFF75A
:10252C0066FEFB7B0133FB73FB7B052BE0D900BF05
:10253C0000BF1037BD4680BD6800002080B584B058
:10254C0000AF3B1D1846FEF7D1FF0223BB714FF4C1
:10255C000053BB803B1D19463A48FEF70BFF4FF466
:10256C0000513848FFF71FF80023FB730023BB739F
:10257C000023BB8100237B814FF400513148FEF7CF
:10258C00C8FF0346FB734FF400512E48FEF7E6FFDD
:10259C000346BB732B48FEF7D5FF0346BB81294886
:1025AC00FEF7F5FF03467B81274B1868264B99886D
:1025BC0002231022FFF76AFD234B1B68224A9288E4
:1025CC00114601228A4092B211461846FEF7EBFFE3
:1025DC001D4B1B681C4A9288114601228A4091B2FD
:1025EC0000221846FEF7EDFF17490223102203C9FB
:1025FC00FFF772FD144B1B68134A92881146012297
:10260C008A4092B211461846FEF7CDFF0E4B1B685E
:10261C000D4A9288114601228A4091B20022184636
:10262C00FEF7CFFF084B022293E80300FFF77BFD78
:10263C00054B93E80300FFF7DAFD00BF1037BD46EA
:10264C0080BD00BF001001401800002080B500AF15
:10265C00124B022293E80300FFF765FD0F4B93E842
:10266C000300FFF7AEFD0E4B022293E80300FFF7C9
:10267C005AFD0B4B93E80300FFF7A3FD094B022215
:10268C0093E80300FFF74FFD064B93E80300FFF7B9
:10269C0098FD00F0B5FA00BF80BD00BF20000020FF
:1026AC00E0000020E800002080B483B000AF786028
:1026BC00064A7B68136000BF044B1B68002BFBD1E0
:1026CC0000BF00BF0C37BD4680BC70479001002096
:1026DC0080B483B000AF78607B684FF47A7202FBF1
:1026EC0003F3064A136000BF044B1B68002BFBD19D
:1026FC0000BF00BF0C37BD4680BC70479001002066
:10270C0080B582B000AF0023FB710BE0FB79094967
:10271C000222DB000B4493E80300FFF704FDFB7976
:10272C000133FB71FB79072BF0D900BF00BF0837D1
:10273C00BD4680BD9800002080B584B000AF034634
:10274C00FB710023FB731BE0FA79FB7B42FA03F36A
:10275C0003F00103002B08D0FB7B0D4ADB00134474
:10276C0093E80300FFF72DFD07E0FB7B084ADB0035
:10277C00134493E80300FFF73AFDFB7B0133FB7333
:10278C00FB7B072BE0D900BF00BF1037BD4680BDD7
:10279C009800002080B500AF034B022293E80300A1
:1027AC00FFF7C1FC00BF80BDD800002080B500AF92
:1027BC00034B93E80300FFF71AFD00BF80BD00BF79
:1027CC00D800002080B500AF034B93E80300FFF75F
:1027DC00F8FC00BF80BD00BFD800002080B500AF62
:1027EC00034B022293E80300FFF79DFC00BF80BD62
:1027FC00E000002080B500AF034B93E80300FFF727
:10280C00F6FC00BF80BD00BFE000002080B500AF2B
:10281C00034B93E80300FFF7D4FC00BF80BD00BF5F
:10282C00E000002080B582B000AF0346FB71FFF7DB
:10283C00BDFFFB79184600F02FF86420FFF734FF3A
:10284C0000BF0837BD4680BD80B582B000AF0346DF
:10285C00FB71FFF7B7FFFB79184600F01DF86420F9
:10286C00FFF722FF0A4B1B780133DAB2084B1A70C0
:10287C00074B1B78074A1278B3FBF2F101FB02F20B
:10288C009B1ADAB2024B1A7000BF0837BD4680BDE6
:10289C00A00100209E01002080B582B000AF03464D
:1028AC00FB71FFF72DFFFB791846FFF745FFFFF78C
:1028BC00ADFF0120FFF7F8FE00BF00BF00BF00BF57
:1028CC00FFF798FF00BF0837BD4680BD80B500AF4D
:1028DC000120FFF7A7FF0320FFF7FAFE00BF80BD22
:1028EC0080B500AF0A4B00221A70094B00225A70B7
:1028FC00084B02221A70084B10221A7000F00EF8C6
:10290C00FFF7E4FF0021002000F020F800BF80BD9D
:10291C00A00100209D0100209E01002080B500AF89
:10292C00FFF738FFFFF75AFF3C20FFF77BFF3C20F7
:10293C00FFF778FF0C20FFF775FF0620FFF772FFFB
:10294C003C20FFF76FFF00BF80BD000080B584B056
:10295C0000AF03460A46FB711346BB710023FB73A1
:10296C001E4B1A78BB79B3FBF2F101FB02F29B1AF6
:10297C00DAB21B4B5A701A4B5B78032B16D801A298
:10298C0052F823F0A1290008A7290008AD29000856
:10299C00B32900088023FB7308E0C023FB7305E018
:1029AC009423FB7302E0D423FB7300BF0D4B1A7806
:1029BC00FB79B3FBF2F101FB02F29B1ADAB2084B82
:1029CC001A70074B1A78FB7B1344FB73FB7B18467E
:1029DC00FFF728FF00BF1037BD4680BD9D010020CA
:1029EC00A00100209E01002080B582B000AF0346FC
:1029FC00FB71FB790D2B19D00D2B1EDC092B0AD08A
:102A0C000A2B1AD1124B5B780133DBB2194600202A
:102A1C00FFF79CFF16E00E4B1B780233DBB20C4A1F
:102A2C00527811461846FFF791FF0BE0084B5B7884
:102A3C0019460020FFF78AFF04E0FB791846FFF7E0
:102A4C0003FF00BF012318460837BD4680BD00BFF9
:102A5C00A001002080B584B000AF786039600023FD
:102A6C00FB600CE07B685A1C7A601B781846FFF7F9
:102A7C00BBFF0346002B08D0FB680133FB603B68AF
:102A8C005A1E3A60002BEDD100E000BFFB681846DF
:102A9C001037BD4680BD80B582B000AF78607B68D2
:102AAC00002B01D1002308E07868FDF749FB0346B1
:102ABC0019467868FFF7CEFF034618460837BD461F
:102ACC0080BD2DE9B04396B000AFC7E902011346B3
:102ADC00FB7107F1100340337B657B6D00221A708C
:102AEC00FB79012B01D80A23FB71FB7900221C46D0
:102AFC001546D7E9020122462B46FEF73BFA134650
:102B0C0087F85330FB7900229846914642464B4653
:102B1C00D7E90201FEF72EFA02460B46C7E902235B
:102B2C0097F85330092B04D897F853303033DBB275
:102B3C0003E097F853303733DBB27A6D013A7A659C
:102B4C007A6D1370D7E902231343CED1786DFFF75A
:102B5C00A2FF034618465837BD46BDE8B08380B582
:102B6C0082B000AF78607868FFF795FF034618468F
:102B7C000837BD4680BD80B582B000AF03463A60D1
:102B8C00FB710B46BB71BA79FB7911461846FFF7FE
:102B9C00DDFE3868FFF7E3FF034618460837BD46ED
:102BAC0080BDB0B582B000AF03463960FB71FB79D4
:102BBC0000221C4615463A682046294600F005F8C6
:102BCC00034618460837BD46B0BD80B584B000AF8B
:102BDC00C7E902017A607B68002B05D13B7A184665
:102BEC00FFF702FF034607E07B68DBB21A46D7E922
:102BFC000201FFF766FF034618461037BD4680BD3D
:102C0C0080B582B000AF0023FB710AE0FB79094A62
:102C1C00DB00134493E80300FFF728FBFB79013337
:102C2C00FB71FB79072BF1D900BF00BF0837BD46FC
:102C3C0080BD00BFF000002080B582B000AFFF2344
:102C4C00FB710023BB7119E0BB79104ADB00134404
:102C5C0093E80300FFF724FB0346002B0BD1BB7951
:102C6C00012202FA03F35BB2DB435AB297F9073045
:102C7C0013405BB2FB71BB790133BB71BB79072B82
:102C8C00E2D9FB7918460837BD4680BDF00000201C
:102C9C0080B582B000AFFF23FB71FFF7B1FF134B80
:102CAC00022293E80300FFF73EFA104B93E803006F
:102CBC00FFF787FA0D4B93E80300FFF798FA0A2009
:102CCC00FFF7F2FC00BF00BF00BF00BF00BF00BF9A
:102CDC00FFF7B2FF0346FB71044B93E80300FFF7C9
:102CEC0070FAFB7918460837BD4680BDE800002015
:102CFC0080B500AF114B1B78F42B1AD0F42B1BDCD6
:102D0C00EC2B13D0EC2B17DCDC2B0CD0DC2B13DCDA
:102D1C007C2B02D0BC2B03D00EE000F05DF80BE056
:102D2C0000F07CF808E000F09BF805E000F0BAF841
:102D3C0002E000F0D9F800BF00BF80BDA401002064
:102D4C0080B582B000AF0346FB710A4AFB79137061
:102D5C00FFF756FF084B022293E80300FFF7E3F955
:102D6C00054B93E80300FFF72CFA00BF0837BD466C
:102D7C0080BD00BFA5010020E800002080B500AF99
:102D8C00FFF764FCFFF784FF03461A46044B1B78DD
:102D9C001340DAB2034B1A70024B1B78184680BDF5
:102DAC00A5010020A401002080B500AF074B1A78C4
:102DBC00074B1B789A4207D0064B05221A70054B1D
:102DCC0000225A70FFF794FF00BF80BDA4010020C1
:102DDC00A5010020DC01002080B500AF0D4A0121C7
:102DEC000020FFF7C8FE0C4B1B78C3F3C013DBB2FB
:102DFC00DB43DBB203F00103D9B2074A137861F36A
:102E0C00C713137000214FF08040FEF75DFE00BF2A
:102E1C0080BD00BF7C5100089801002080B500AF38
:102E2C000D4A01210020FFF7A6FE0C4B1B78C3F3C3
:102E3C008013DBB2DB43DBB203F00103D9B2074AE8
:102E4C00137861F38613137001214FF08040FEF765
:102E5C003BFE00BF80BD00BF9051000898010020D0
:102E6C0080B500AF0C4A01210020FFF784FE0B4B0C
:102E7C001B78C3F34013DBB2DB43DBB203F001037B
:102E8C00D9B2064A137861F3451313700021044834
:102E9C00FEF71AFE00BF80BDA45100089801002067
:102EAC000004004080B500AF0C4A01210020FFF760
:102EBC0062FE0B4B1B78C3F30013DBB2DB43DBB2BC
:102ECC0003F00103D9B2064A137861F304131370AB
:102EDC0001210448FEF7F8FD00BF80BDB851000881
:102EEC00980100200004004080B500AF0A4A01217F
:102EFC000020FFF740FE094B1B78C3F3C003DBB285
:102F0C00DB43DBB203F00103D9B2044A137861F35B
:102F1C00C303137000BF80BDCC5100089801002082
:102F2C0080B586B000AF00237B6007F10803002258
:102F3C001A605A609A600023FB750023FB70654B86
:102F4C001B78032B00F2C28001A252F823F000BFC1
:102F5C006D2F0008912F000897300008DD2F000816
:102F6C005D4B1B685D4A934240F2AB805C4B1B7817
:102F7C00002B03D0574B03221A70A2E0554B0122B1
:102F8C001A709EE0574B00221A702022564957485F
:102F9C0001F0E0FD01220021554800F033FD03460D
:102FAC001A46504B1A70534801F03AFF4C4B002212
:102FBC001A70484B02221A704A4B1B78002B40F0B7
:102FCC008280474B01221A70424B03221A707AE01E
:102FDC00444B00221A70464800F0EAFD03461A469C
:102FEC00404B1A703B4B02221A703E4B1B78002B45
:102FFC006BD141493F4800F0A0FB40493D4800F0EF
:10300C009CFB3B493B4801F029F83D49394800F00D
:10301C0094FB3749374801F0C7F83A49354800F076
:10302C008CFB3349334801F093F93349314800F0B4
:10303C0084FB35492F4800F080FB2D4B1978FB1C85
:10304C0075222A4801F063FE0346FB752F49294877
:10305C0000F073FBFB7D10221946264800F080FB24
:10306C002B49244800F069FBFB78102219462148B3
:10307C0000F076FB27491F4800F05FFB164B00223F
:10308C001A60144B00221A701FE02349194800F0F3
:10309C0054FB144B1B780A221946164800F060FBAF
:1030AC001E49144800F049FB124801F0B9FE0C4BC4
:1030BC0000221A70084B00221A60064B00221A706C
:1030CC0004E000BF02E000BF00E000BF00BF183703
:1030DC00BD4680BDB8010020BC0100201FA1070027
:1030EC00C0010020D0010020801A060000540040CE
:1030FC0040010020003801400C520008205200080A
:10310C003C520008545200086C52000888520008C7
:10311C00A8520008B0520008B4520008C852000867
:10312C0080B500AF1E4B1B78042B36D801A252F889
:10313C0023F000BF55310008A731000869310008A1
:10314C00833100088F310008164B1B6847F22F5251
:10315C0093421FD9124B02221A701BE0124B1B68B0
:10316C0040F6AB52934217D90F4B00221A600C4B0E
:10317C0003221A7010E0FFF701FE094B04221A70AB
:10318C000BE0FFF711FE074B00221A60044B0022E4
:10319C001A7002E000BF00E000BF00BF80BD00BF9E
:1031AC00A6010020A8010020AC01002080B500AFD2
:1031BC000D4B1B78002B15D00B4B00221A700B4AB1
:1031CC0000210020FFF7D7FC094A01210020FFF75E
:1031DC00D2FC084B1B780A211846FFF7E2FC064884
:1031EC00FFF7BDFC00BF80BD94010020CC5200084D
:1031FC00D85200089C010020E452000880B500AFB2
:10320C00144B1B78002B02D0012B0CD01FE0124B5F
:10321C001B68124A934219D90E4B01221A700E4B9D
:10322C0000221A6012E000F07BF90D4B93E80300CA
:10323C00FEF7F3FF0B4B1B6801330A4A1360064B76
:10324C0000221A60034B00221A7000E000BF00BF7E
:10325C0080BD00BFC8010020CC010020A086010069
:10326C0018000020D401002080B483B000AF0346C6
:10327C003960FB7197F90730002B0BDA3B68DAB237
:10328C000C49FB7903F00F03043B1201D2B20B443F
:10329C001A7609E03B68DAB2074997F90730120150
:1032AC00D2B20B4483F8002300BF0C37BD4680BC60
:1032BC00704700BF00ED00E000E100E080B582B097
:1032CC0000AF78607B68B3F1807F01D3012311E0FC
:1032DC007B6823F07F43094A013B53600F214FF079
:1032EC00FF30FFF7C1FF054B00229A60034B07220A
:1032FC001A60002318460837BD4680BD10E000E078
:10330C0080B500AF4FF4E060FDF7C0FF344B1B6895
:10331C005B09344AA2FB0323DB091846FFF7CEFFF7
:10332C000346002B00D0FEE72F4B00221A602F4BD8
:10333C0000221A702E4B05221A702D4B00225A7047
:10334C0001210420FEF7EAFA01210820FEF7E6FA33
:10335C0001211020FEF7E2FA01212020FEF7DEFA0F
:10336C0001210120FEF7DAFA224B00221A60FFF746
:10337C00E5F8FFF733F8FFF755F81F4BFF221A70EB
:10338C001E4B00221A701C4B1B781846FFF766F870
:10339C001A4B1B781846FFF7A3F8194B00221A702A
:1033AC00FC20FFF7CDFCFFF79BFAFFF7B7FA154AA5
:1033BC0000210020FFF7DFFB134B00221A7000F0F6
:1033CC00BBF800F04DFA20221049114801F0C2FB65
:1033DC0000F064F8054B01221A7000BF80BD00BFDD
:1033EC0014000020C55A7C0AD4010020D80100200A
:1033FC00DC01002090010020980100209C0100209D
:10340C0095010020EC52000894010020801A06005F
:10341C000054004080B500AFFFF782FEFFF780FD3F
:10342C00FFF7C4FEFFF7EAFE00BF80BD80B400AF1B
:10343C00134B1B78002B04D1124B1B680133114A20
:10344C001360114B1B78002B04D1104B1B680133FC
:10345C000E4A13600A4B1B78022B04D10C4B1B68D1
:10346C0001330B4A13600B4B1B78002B04D10A4B16
:10347C001B680133084A136000BFBD4680BC70470F
:10348C00A6010020A8010020B8010020BC010020EA
:10349C00AC010020C8010020CC01002080B400AF9A
:1034AC00134B00221A70134B00221A60124B00228D
:1034BC001A60124B00221A70114B00221A60114B29
:1034CC0000221A70104B00221A70104B00221A6046
:1034DC000F4B00221A700F4B00221A600E4B002269
:1034EC001A700E4B00221A6000BFBD4680BC70479C
:1034FC00A6010020A8010020AC010020B80100208A
:10350C00BC010020C0010020B0010020B40100204B
:10351C00C1010020C4010020C8010020CC01002002
:10352C0080B500AF034B1B781846FEF797FF00BF22
:10353C0080BD00BF9801002080B584B000AF1D4B4A
:10354C00DB691C4A43F00203D3611D233B73002348
:10355C007B730B23BB730123FB7307F10C0318461E
:10356C00FDF7A6FE144B1B68144AA2FB03235B0B4E
:10357C009BB2013B9BB23B8042F21073BB80002399
:10358C007B803B4619460E48FEF722FA0C4B9B8972
:10359C009BB20B4A43F001039BB29381084B1B88EF
:1035AC009BB2074A43F001039BB2138000BF103754
:1035BC00BD4680BD00100240140000205917B7D141
:1035CC000004004080B500AF01214FF08040FEF7B1
:1035DC009AFA00BF80BD000080B582B000AF002316
:1035EC00FB8001210D48FEF78EFA0D4B1B783E2B0C
:1035FC0004D80B4B1B780133DBB200E00023084AE4
:10360C001370074B1B781846FEF76AFF054B012217
:10361C001A7000BF0837BD4680BD00BF00040040D3
:10362C009C0100209401002080B582B000AF78602E
:10363C000B46FB7000BF80217868FEF7B1FB034698
:10364C00002BF8D0FB789AB27B689A8000BF0837C1
:10365C00BD4680BD80B586B000AFF860B96013463A
:10366C00FB800023FB820023FB820AE0FB8ABA6802
:10367C0013441B781946F868FFF7D6FFFB8A013311
:10368C00FB82FA8AFB889A42F0D300BF00BF18373E
:10369C00BD4680BD80B483B000AF0B4B00221A70C6
:1036AC000023FB7106E0FB79084A0021D154FB7919
:1036BC000133FB71FB793F2BF5D900BF00BF0C37F1
:1036CC00BD4680BC704700BF20020020E0010020F6
:1036DC0080B483B000AF0346FB710D4B1B78DBB29B
:1036EC00402B0FD80A4B1B78DBB20133DAB2084BF4
:1036FC001A70074B1B78DBB2013B0649FA79CA54A6
:10370C00012300E0002318460C37BD4680BC7047EF
:10371C0020020020E001002080B584B000AFF860EA
:10372C00B9601346FB80FB881A46B968F868FFF746
:10373C0091FF00BF1037BD4680BD80B582B000AF91
:10374C00786039603868FCF7FBFC03469BB21A467C
:10375C0039687868FFF7E0FF00BF0837BD4680BDC9
:10376C0080B588B000AFF860B9601346FB710023D8
:10377C003B6107F1140300221A605A609A60FB79CE
:10378C00022B06D0102B09D10F49F868FFF7D5FF93
:10379C0009E00E49F868FFF7D0FF04E00C49F8681F
:1037AC00FFF7CBFF00BFBB68FA7907F11001184691
:1037BC0001F08DFC07F110031946F868FFF7BDFF07
:1037CC0000BF2037BD4680BDF8520008FC520008EF
:1037DC000053000880B58AB000AFF860B96013469A
:1037EC00FB710023BB6107F11C0300221A605A60B5
:1037FC009A6007F11003FA79B9681846FEF768FD6C
:10380C003B7D012B03D11449F868FFF796FF7B8AA7
:10381C00184607F118030A22194601F058FC07F163
:10382C0018031946F868FFF788FF0C49F868FFF78A
:10383C0084FF3B7C184607F118030A22194601F055
:10384C0046FC07F118031946F868FFF776FF00BF2E
:10385C002837BD4680BD00BF04530008085300083C
:10386C0080B500AF00F042F8FFF714FF00BF80BD39
:10387C0080B584B000AF78600023FB730023BB815C
:10388C007B681B889BB2BB817B689B889BB2DBB23D
:10389C00FB73FB7BDBB21946114800F09BF8FB7BFA
:1038AC00DBB23B2B02D10F4B00221A700F210C48BC
:1038BC00FEF776FA0346002B0CD1FB7BDBB21846E5
:1038CC00FFF706FF0346002B04D1FFF7E3FE064B80
:1038DC0001221A70FB7BDBB218461037BD4680BD47
:1038EC00003801409C0100202102002080B586B0E8
:1038FC0000AF224B9B69214A43F4804343F00503FC
:10390C0093611F4B0B2293E80300FEF70CFC1D4B3D
:10391C00042293E80300FEF706FC25233B750023E5
:10392C007B750823BB750123FB7507F1140318463F
:10393C00FDF7BEFC3B1D1846FEF7B0F94FF4E13322
:10394C007B600C23FB810023BB8100237B81002344
:10395C003B8100233B823B1D19460B48FEF7E4F8E4
:10396C00012240F225510848FEF7D3F901210648FF
:10397C00FEF7B0F900BF1837BD4680BD00100240FD
:10398C0030010020380100200038014080B582B0A1
:10399C0000AF0023FB710023BB8040F22551064889
:1039AC00FEF719FA0346002B02D00348FFF760FF1D
:1039BC0000BF0837BD4680BD0038014080B400AF61
:1039CC0000BFBD4680BC704780B400AF00BFBD4691
:1039DC0080BC704780B582B000AF78600B46FB703E
:1039EC0000BF80217868FEF7DBF90346002BF8D086
:1039FC00FB789AB27B689A80002318460837BD463C
:103A0C0080BD000080B584B000AF78600B46FB70C1
:103A1C001346BB700023FB730023BB73424943481E
:103A2C00FFF78BFE786800F093F80346BB734049B0
:103A3C003E48FFF782FEBB7B0A2219463B48FFF744
:103A4C008FFE3C493948FFF778FE3B493748FFF772
:103A5C0074FE0721786800F0EDF90346BB73374913
:103A6C003248FFF76AFEBB7B0A2219462F48FFF744
:103A7C0077FE30492D48FFF760FE31492B48FFF7A0
:103A8C005CFE0021786800F0E9F90346BB73BB7B50
:103A9C000A2219462548FFF763FE26492348FFF7FB
:103AAC004CFE28492148FFF748FE0221786800F0B7
:103ABC0055FA0346BB73BB7B0A2219461B48FFF71A
:103ACC004FFE1C491948FFF738FE1F491748FFF7EE
:103ADC0034FEFB781946786800F04EF90346BB7348
:103AEC00BB7B0A2219461148FFF73AFE11490F48D1
:103AFC00FFF723FE15490D48FFF71FFEBB7819464B
:103B0C00786800F0D7F80346BB73BB7B0A221946D2
:103B1C000648FFF725FE07490448FFF70EFE002371
:103B2C0018461037BD4680BD1453000800380140BC
:103B3C0020530008285300082C5300083853000861
:103B4C00405300084C5300085853000868530008B1
:103B5C0080B584B000AF78600023FB737B68197864
:103B6C0000236B22114801F087F80346FB73C82031
:103B7C00FEF7AEFDFB7B002B01D0FB7B11E07B68DD
:103B8C00197807236822094801F076F80346FB737D
:103B9C00C820FEF79DFDFB7B002B01D0FB7B00E0DA
:103BAC00002318461037BD4680BD00BF00540040AE
:103BBC0080B586B002AF78607B6819787B681C335F
:103BCC000E2200923B22384801F0C0F87B681B7F24
:103BDC001B021AB27B685B7F1BB213431AB27B6861
:103BEC009A817B689B7F1B021AB27B68DB7F1BB2BE
:103BFC0013431AB27B68DA817B6893F820301B027E
:103C0C001AB27B6893F821301BB213431AB27B684B
:103C1C001A827B6893F822301B021AB27B6893F8E5
:103C2C0023301BB21343FB81B7F90E301846FCF757
:103C3C0067FF03461D491846FDF76AF803461C4901
:103C4C001846FCF7A9FE03461A467B689A617B6806
:103C5C0093F824301B021AB27B6893F825301BB200
:103C6C0013431AB27B685A827B6893F826301B0286
:103C7C001AB27B6893F827301BB213431AB27B68D5
:103C8C009A827B6893F828301B021AB27B6893F8EF
:103C9C0029301BB213431AB27B68DA820023184610
:103CAC001037BD4680BD00BF005400400000AA4341
:103CBC00B81E124280B584B000AF78600B46FB7022
:103CCC000023BB730023FB737B68197807F10E0389
:103CDC001B22244801F01BF80346FB73FB7B002BD3
:103CEC0001D0FB7B3AE0BB7B5BB223F018035AB2EA
:103CFC00FB78DB005BB213435BB2DBB2BB737B685C
:103D0C001978BB7B1B22174800F0B6FF0346FB73E8
:103D1C00FB7B002B01D0FB7B20E0FB78032B1BD81B
:103D2C0001A252F823F000BF453D00084D3D0008AC
:103D3C00553D00085D3D00087B680B4A5A600CE05D
:103D4C007B680A4A5A6008E07B68094A5A6004E0BA
:103D5C007B68084A5A6000E000BF00231846103701
:103D6C00BD4680BD005400402D23FA3B2D237A3CE8
:103D7C0090C1F93C90C1793D80B584B000AF7860BA
:103D8C000B46FB700023BB730023FB737B68197815
:103D9C0007F10E031C22264800F0B9FF0346FB7303
:103DAC00FB7B002B01D0FB7B3EE0BB7B5BB223F0AB
:103DBC0018035AB2FB78DB005BB213435BB2DBB285
:103DCC00BB737B681978BB7B1C22194800F054FF2D
:103DDC000346FB73FB7B002B01D0FB7B24E0FB78C1
:103DEC00032B1FD801A252F823F000BF093E000894
:103DFC00133E00081D3E0008273E00087B684FF06C
:103E0C0062529A600FE07B684FF064529A600AE04D
:103E1C007B684FF066529A6005E07B684FF0685201
:103E2C009A6000E000BF002318461037BD4680BDE5
:103E3C000054004080B582B000AF78600B46FB7038
:103E4C007B681978FB781922034800F015FF0346AC
:103E5C0018460837BD4680BD0054004080B584B07C
:103E6C0000AF78600B46FB700023FB730023BB7321
:103E7C007B68197807F10E031A22314800F047FFCE
:103E8C000346FB732F493048FFF757FCFB7B0A2294
:103E9C0019462D48FFF764FC2C492B48FFF74DFCC5
:103EAC00BB7B0A2219462848FFF75AFC28492648AA
:103EBC00FFF743FC244800F0B3FFBB7B5BB223F05D
:103ECC0007035AB297F9033013435BB2DBB2BB73EF
:103EDC0020491D48FFF731FCBB7B0A2219461A48C2
:103EEC00FFF73EFC1A491848FFF727FC7B68197846
:103EFC00BB7B1A22124800F0BFFE0346FB73164927
:103F0C001148FFF71AFCFB7B0A2219460E48FFF7F3
:103F1C0027FC0E490C48FFF710FCBB7B0A22194604
:103F2C000948FFF71DFC0A490748FFF706FC06483D
:103F3C0000F076FF002318461037BD4680BD00BF49
:103F4C0000540040785300080038014088530008A2
:103F5C00285300088C5300089853000880B584B08F
:103F6C0000AF78600B46FB700023FB730023BB7320
:103F7C007B68197807F10E031C22314800F0C7FE4C
:103F8C000346FB732F493048FFF7D7FBFB7B0A2214
:103F9C0019462D48FFF7E4FB2C492B48FFF7CDFBC6
:103FAC00BB7B0A2219462848FFF7DAFB284926482A
:103FBC00FFF7C3FB244800F033FFBB7B5BB223F05D
:103FCC0007035AB297F9033013435BB2DBB2BB73EE
:103FDC0020491D48FFF7B1FBBB7B0A2219461A4842
:103FEC00FFF7BEFB1A491848FFF7A7FB7B68197847
:103FFC00BB7B1C22124800F03FFE0346FB731649A4
:10400C001148FFF79AFBFB7B0A2219460E48FFF773
:10401C00A7FB0E490C48FFF790FBBB7B0A22194605
:10402C000948FFF79DFB0A490748FFF786FB06483E
:10403C0000F0F6FE002318461037BD4680BD00BFC9
:10404C0000540040A8530008003801408853000871
:10405C00285300088C5300089853000880B582B090
:10406C0000AF786039603968786800F00DF839680D
:10407C00786800F043F83968786800F079F800BF88
:10408C000837BD4680BD000080B582B000AF7860B7
:10409C00396016497868FFF750FB3B68B3F90C3070
:1040AC000A2219467868FFF75BFB11497868FFF71D
:1040BC0044FB3B68B3F90E300A2219467868FFF7C7
:1040CC004FFB0C497868FFF738FB3B68B3F91030AD
:1040DC000A2219467868FFF743FB07497868FFF70F
:1040EC002CFB00BF0837BD4680BD00BFB85300088D
:1040FC00C4530008D05300082853000880B582B080
:10410C0000AF7860396016497868FFF716FB3B689A
:10411C00B3F912300A2219467868FFF721FB1149CE
:10412C007868FFF70AFB3B68B3F914300A2219468A
:10413C007868FFF715FB0C497868FFF7FEFA3B68C7
:10414C00B3F916300A2219467868FFF709FB0749BC
:10415C007868FFF7F2FA00BF0837BD4680BD00BF94
:10416C00DC530008E8530008F453000828530008F7
:10417C0080B582B000AF7860396009497868FFF784
:10418C00DCFA3B689B69022219467868FFF722FB30
:10419C0004497868FFF7D1FA00BF0837BD4680BDE7
:1041AC00005400082853000880B582B000AF786036
:1041BC0039603968786800F00DF83968786800F073
:1041CC0053F83968786800F09DF800BF0837BD4691
:1041DC0080BD000080B584B000AF786039600023EA
:1041EC00BB813B681B7F7B733B685B7F3B731A49CE
:1041FC007868FFF7A2FABB89102219467868FFF796
:10420C00AFFA3B689B7F7B733B68DB7F3B73134947
:10421C007868FFF792FABB89102219467868FFF785
:10422C009FFA3B6893F820307B733B6893F82130FE
:10423C003B730B497868FFF780FABB89102219464B
:10424C007868FFF78DFA07497868FFF776FA00BFB0
:10425C001037BD4680BD00BF085400081854000834
:10426C00285400083854000880B584B000AF78603A
:10427C0039600023BB813B6893F824307B733B6827
:10428C0093F825303B731B497868FFF756FABB89C6
:10429C00102219467868FFF763FA3B6893F82630CA
:1042AC007B733B6893F827303B7313497868FFF7AF
:1042BC0044FABB89102219467868FFF751FA3B681B
:1042CC0093F828307B733B6893F829303B730B4988
:1042DC007868FFF732FABB89102219467868FFF725
:1042EC003FFA07497868FFF728FA00BF1037BD4638
:1042FC0080BD00BF3C5400084C5400085C540008BE
:10430C003854000880B584B000AF78603960002361
:10431C00BB813B6893F822307B733B6893F8233066
:10432C003B7309497868FFF708FABB8910221946D4
:10433C007868FFF715FA05497868FFF7FEF900BFB2
:10434C001037BD4680BD00BF6C54000838540008BF
:10435C0080B584B000AF786039600023FB733B23D9
:10436C00BB730023FB7320E015497868FFF7E5F970
:10437C00BB7B102219467868FFF7F2F9114978686F
:10438C00FFF7DBF9FB7B3A6813441B7F10221946BD
:10439C007868FFF7E5F90C497868FFF7CEF9BB7B35
:1043AC000133BB73FB7B0133FB73FB7B0D2BDBD925
:1043BC0006497868FFF7C1F900BF1037BD4680BDCC
:1043CC0078540008845400082853000888540008C6
:1043DC0080B400AF62B600BFBD4680BC704780B4ED
:1043EC0000AF72B600BFBD4680BC704780B483B0CE
:1043FC0000AF78600B4B40F6AC521A6005E0094BED
:10440C001B68002B01D1012307E07B681B8B9BB23F
:10441C0003F00203002BF2D1002318460C37BD46E3
:10442C0080BC70476C01002080B483B000AF786012
:10443C00144B40F6AC521A600FE0124B1B68002B69
:10444C000BD17B681B889BB203F48073B3F5807F20
:10445C0001D1022310E00A230EE07B689B8A9BB2F9
:10446C0003F00103002BE8D07B681B8B9BB203F09D
:10447C000303002BE1D0002318460C37BD4680BC4B
:10448C00704700BF6C01002080B485B000AF78602D
:10449C00174B40F6AC521A601DE07B689B8A9BB2AE
:1044AC0003F01003002B10D00023FB607B689B8A69
:1044BC009BB2FB607B681B889BB243F001039AB2F2
:1044CC007B681A80FB6840230DE0094B1B68002BAE
:1044DC0001D1032307E07B681B8B9BB203F0010324
:1044EC00002BDAD1002318461437BD4680BC704728
:1044FC006C01002080B483B000AF7860184B40F69C
:10450C00AC521A601EE07B689B8A9BB203F48063FA
:10451C00002B11D07B681B889BB243F400739AB2BA
:10452C007B681A807B689B8A9BB223F480639AB267
:10453C007B689A8204230DE0094B1B68002B01D188
:10454C000A2307E07B689B8A9BB203F00203002BD3
:10455C00D9D0002318460C37BD4680BC704700BF2D
:10456C006C01002080B483B000AF78601B4B40F628
:10457C00AC521A601EE07B689B8A9BB203F480638A
:10458C00002B11D07B681B889BB243F400739AB24A
:10459C007B681A807B689B8A9BB223F480639AB2F7
:1045AC007B689A82042314E00C4B1B68002B01D10E
:1045BC000A230EE07B689B8A9BB203F00203002B5C
:1045CC00D9D07B681B8B9BB203F00303002BD2D09A
:1045DC00002318460C37BD4680BC70476C01002088
:1045EC0080B483B000AF7860184B40F6AC521A60C0
:1045FC001EE07B689B8A9BB203F48063002B11D076
:10460C007B681B889BB243F400739AB27B681A8058
:10461C007B689B8A9BB223F480639AB27B689A82F4
:10462C0004230DE0094B1B68002B01D1062307E086
:10463C007B689B8A9BB203F08003002BD9D00023AC
:10464C0018460C37BD4680BC704700BF6C0100207B
:10465C0080B485B000AF7860174B40F6AC521A604E
:10466C001DE07B689B8A9BB203F01003002B10D0DB
:10467C000023FB607B689B8A9BB2FB607B681B887A
:10468C009BB243F001039AB27B681A80FB68092342
:10469C000DE0094B1B68002B01D1072307E07B6859
:1046AC009B8A9BB203F04003002BDAD00023184600
:1046BC001437BD4680BC70476C01002080B483B0B9
:1046CC0000AF78600B4B40F6AC521A6005E0094B1A
:1046DC001B68002B01D1082307E07B689B8A9BB2E7
:1046EC0003F00403002BF2D0002318460C37BD4610
:1046FC0080BC70476C01002080B582B000AF786040
:10470C007B681B889BB243F001039AB27B681A80CA
:10471C007B689B8A9BB223F470639AB27B689A8203
:10472C007B681B889BB223F400639AB27B681A8067
:10473C007B681B889BB243F480639AB27B681A80B7
:10474C007B681B889BB243F480739AB27B681A8097
:10475C007868FFF769FE034618460837BD4680BDEA
:10476C0080B582B000AF78607B681B889BB243F445
:10477C0000739AB27B681A807868FFF785FE03464F
:10478C0018460837BD4680BD80B584B000AF786050
:10479C000B46FB700023FB73FB789BB203F0FE030C
:1047AC009AB27B681A827868FFF7A4FE0346FB7303
:1047BC00FB7B002B0FD10023BB607B689B8A9BB2D9
:1047CC00BB607B681B8B9BB2BB60BB687868FFF7D8
:1047DC0007FF0346FB73FB7B18461037BD4680BDB5
:1047EC0080B584B000AF78600B46FB700023FB7380
:1047FC00FB7843F00103DBB29AB27B681A827868CB
:10480C00FFF7B0FE0346FB73FB7B18461037BD4623
:10481C0080BD80B584B000AF78600B46FB70002380
:10482C00FB73FB789AB27B681A827868FFF7D8FE24
:10483C000346FB73FB7B18461037BD4680BD80B525
:10484C0084B000AF786039600023FB737B681B88F1
:10485C009BB223F400639AB27B681A807B681B8836
:10486C009BB223F480639AB27B681A80FFF7B7FD82
:10487C000023BB607B689B8A9BB2BB607B681B8BF5
:10488C009BB2BB60BB687B681B889BB243F4007314
:10489C009AB27B681A80FFF79BFD7868FFF7D8FE09
:1048AC000346FB73FB7B002B01D0FB7B06E07B6894
:1048BC001B8A9BB2DAB23B681A7000231846103779
:1048CC00BD4680BD80B584B000AF786039600023F0
:1048DC00FB737B681B889BB243F400639AB27B68C2
:1048EC001A80FFF77CFD0023BB607B689B8A9BB220
:1048FC00BB607B681B8B9BB2BB60BB687B681B88F7
:10490C009BB223F480639AB27B681A80FFF760FD38
:10491C007868FFF7D3FE0346FB73FB7B002B01D0BB
:10492C00FB7B1BE0FFF75BFD7B681B889BB243F4B2
:10493C0000739AB27B681A807B681B8A9BB2DAB2CE
:10494C003B681A703B6801333B60FFF741FD7B68A5
:10495C001B8A9BB2DAB23B681A70002318461037D8
:10496C00BD4680BD80B584B000AF7860396000234F
:10497C00FB732E4BBB607868FFF7A0FE0346FB73FE
:10498C00FB7B002B01D0FB7B4CE07B681B889BB234
:10499C0023F480639AB27B681A80FFF720FD7B6852
:1049AC001B8A9BB2DAB23B681A703B6801333B60DE
:1049BC001F4B1B68DB081F4AA2FB03231B0A40F694
:1049CC00AC5202FB03F3BB6008E0BB685A1EBA6032
:1049DC00002B03D1FFF7FCFC082323E07B689B8AA8
:1049EC009BB203F00403002BEFD07B681B889BB2B7
:1049FC0043F400739AB27B681A807B681B8A9BB263
:104A0C00DAB23B681A703B6801333B60FFF7E0FC9D
:104A1C007B681B8A9BB2DAB23B681A703B68013325
:104A2C003B60002318461037BD4680BDFFFF0F00CA
:104A3C001400002089B5F81480B588B000AFF86078
:104A4C00B9601346FB8000237B77FB88002B14D1C5
:104A5C000023BB61FB689B8A9BB2BB61FB681B8B11
:104A6C009BB2BB61BB69FB681B889BB243F40073B0
:104A7C009AB2FB681A80002367E0FB88012B05D1F2
:104A8C00B968F868FFF7DBFE03465EE0FB88022B93
:104A9C0005D1B968F868FFF715FF034655E0FB68C8
:104AAC001B889BB223F400639AB2FB681A80FB68E4
:104ABC001B889BB243F480639AB2FB681A80002374
:104ACC007B61FB689B8A9BB27B61FB681B8B9BB2F7
:104ADC007B617B69FB88032B2ED90023FB8326E0AB
:104AEC00F868FFF7B5FD03467B777B7F002B01D081
:104AFC007B7F2AE0FB681B8A99B2FB8BBA68134454
:104B0C00CAB21A70FB689B8A9BB203F00403002B99
:104B1C000AD0FB8B0133FB83FB681B8A99B2FB8B9E
:104B2C00BA681344CAB21A70FB8B0133FB83FA8B3D
:104B3C00FB88033B9A42D3DBFB88033BBA681344E4
:104B4C001946F868FFF70EFF034618462037BD4696
:104B5C0080BD000080B58AB000AFF860B960134624
:104B6C00FB8001210920FCF7D9FEFB68404A9342E7
:104B7C0022D101214FF40010FCF7EEFE07F12403C3
:104B8C001846FCF7B3FCC023BB84032387F82630FC
:104B9C001C2387F8273007F1240319463548FCF706
:104BAC00E9FB01214FF40010FCF7F4FE00214FF457
:104BBC000010FCF7EFFE22E001214FF48000FCF71F
:104BCC00CBFE07F124031846FCF790FC4FF440632E
:104BDC00BB84032387F826301C2387F8273007F182
:104BEC00240319462348FCF7C5FB01214FF4800030
:104BFC00FCF7D0FE00214FF48000FCF7CBFE07F150
:104C0C0014031846FCF7B6FD00233B834BF6FF73E9
:104C1C007B834FF48063FB834FF480433B84FB889E
:104C2C00BB83BB687B61FB681B889BB26FEA434309
:104C3C006FEA53439AB2FB681A80FB681B889BB2DD
:104C4C00C3F30E039AB2FB681A8007F114031946DA
:104C5C00F868FCF7CDFCFB681B889BB243F00103A2
:104C6C009AB2FB681A8000BF2837BD4680BD00BFD2
:104C7C0000540040000C014080B584B000AF786057
:104C8C00084611461A460346FB700B46BB7013468A
:104C9C007B700023FB737868FFF7A8FB0346FB735C
:104CAC00FB7B002B01D0FB7B2DE07868FFF724FD0C
:104CBC000346FB73FB7B002B01D0FB7B23E0FB78D3
:104CCC0019467868FFF760FD0346FB73FB7B002BEE
:104CDC0001D0FB7B17E0BB7819467868FFF799FD8C
:104CEC007B7819467868FFF794FD7868FFF738FDF4
:104CFC007868FFF735FD0346FB73FB7B002B01D077
:104D0C00FB7B00E0002318461037BD4680BD80B504
:104D1C0088B002AFF8607B600B46FB721346BB7227
:104D2C000023FB75BA7AF97A012300937B68F86843
:104D3C0000F00CF80346FB75FB7D002B01D0FB7DCE
:104D4C0000E0002318461837BD4680BD80B586B0FC
:104D5C0000AFF8607B600B46FB721346BB720023FE
:104D6C00FB75F868FFF742FB0346FB75FB7D002BD8
:104D7C0001D0FB7D50E0F868FFF7BEFC0346FB75E5
:104D8C00FB7D002B01D0FB7D46E0FB7A1946F868D1
:104D9C00FFF7FAFC0346FB75FB7D002B01D0FB7D76
:104DAC003AE0BB7A1946F868FFF733FD0346FB750A
:104DBC00FB7D002B01D0FB7D2EE0F868FFF79CFCFF
:104DCC000346FB75FB7D002B01D0FB7D24E0FB7AB9
:104DDC001946F868FFF704FD0346FB75FB7D002BB5
:104DEC0001D0FB7D18E03B6A9BB21A467968F868E3
:104DFC00FFF722FE0346FB75FB7D002B01D0FB7DEC
:104E0C000AE0F868FFF740FB0346FB75FB7D002BBF
:104E1C0001D0FB7D00E0002318461837BD4680BD4D
:104E2C0080B58AB000AF786000237B6207F10C0379
:104E3C001846FCF7BDFC7B697B6275497868FEF708
:104E4C007CFC0A22796A7868FEF78AFC714B1B6835
:104E5C001B79C3F30503DBB29BB23B846E497868C4
:104E6C00FEF76BFC3B8C0A2219467868FEF778FC3F
:104E7C006A4B9B8B9BB2C3F30B039BB23B8468497D
:104E8C007868FEF75AFC3B8C0A2219467868FEF7C4
:104E9C0067FC64497868FEF750FC604B1B8C9BB236
:104EAC0003F03F039BB23B845F497868FEF745FCF7
:104EBC003B8C0A2219467868FEF752FC5B497868ED
:104ECC00FEF73BFC554B1B889BB23B8458497868DA
:104EDC00FEF733FC3B8C102219467868FEF740FC39
:104EEC0050497868FEF729FC4C4B9B889BB23B845D
:104EFC0050497868FEF721FC3B8C102219467868E3
:104F0C00FEF72EFC47497868FEF717FC434B1B89CC
:104F1C009BB23B8448497868FEF70FFC3B8C10220F
:104F2C0019467868FEF71CFC3E497868FEF705FCCC
:104F3C003A4B9B899BB23B8440497868FEF7FDFB5A
:104F4C003B8C102219467868FEF70AFC3C497868BD
:104F5C00FEF7F3FB314B9B8A9BB23B843949786853
:104F6C00FEF7EBFB3B8C102219467868FEF7F8FB3A
:104F7C002C497868FEF7E1FB284B1B8B9BB23B84DA
:104F8C0031497868FEF7D9FB3B8C102219467868BA
:104F9C00FEF7E6FB23497868FEF7CFFB1F4B9B8B94
:104FAC009BB23B8429497868FEF7C7FB3B8C1022E7
:104FBC0019467868FEF7D4FB1A497868FEF7BDFBF2
:104FCC00164B1B8C9BB23B8421497868FEF7B5FBD2
:104FDC003B8C102219467868FEF7C2FB11497868A1
:104FEC00FEF7ABFB0D4B1B8A9BB23B8419497868CF
:104FFC00FEF7A3FB3B8C102219467868FEF7B0FB3A
:10500C000F497868FEF799FB00BF2837BD4680BD75
:10501C008C54000870010020985400080054004083
:10502C00A0540008A8540008AC540008B45400085C
:10503C00B8540008C4540008D0540008E0540008C8
:10504C00F0540008F4540008005500080C550008F2
:10505C001855000828550008002103E00A4B5B583E
:10506C004350043109480A4B42189A42F6D3094A74
:10507C0002E0002342F8043B074B9A42F9D3FCF7B9
:10508C004BFFFCF7FBF87047685500080000002048
:10509C00740100207401002024020020FEE7931EFE
:1050AC00222B10B50C4604D900231C460B7020464D
:1050BC0010BD0A2A09D1002807DA2D230B70012113
:1050CC004042214400F006F8F1E70021F9E7FFF730
:1050DC00E6BF0000F0B58BB005460B466E461D4C86
:1050EC0004F1200C374620686168083403C7644516
:1050FC003E46F7D1217920683971911E22293860FA
:10510C004FF0000104D919700B4618460BB0F0BDD6
:10511C00581E8446B5FBF2F702FB175628366E4430
:10512C0016F8286C0C460CF8016F2E46B2423D4620
:10513C0001F10101EED900225A541919A51AAA42FB
:10514C00E3DA10F8015F0E780132067001F80159AC
:10515C00F4E700BF33550008F8B500BFF8BC08BC35
:10516C009E467047F8B500BFF8BC08BC9E46704719
:10517C007570206B657920707265737365642E2E63
:10518C002E000000646F776E206B6579207072655D
:10519C00737365642E2E2E00736574206B657920F5
:1051AC00707265737365642E2E2E00006573632018
:1051BC006B657920707265737365642E2E2E0000FA
:1051CC0073686674206B657920707265737365649F
:1051DC002E2E2E00696E666F206B657920707265BD
:1051EC00737365642E2E2E000A72785F6275662DBD
:1051FC006C656E3A0000000072785F6275663A006A
:10520C002E2E2E2E2E2E2E2E2E2E2E2E2E2E2E0DD3
:10521C000A0000004D50553630353020696E7465EB
:10522C006765722044617461202E2E2E0D0A0000D9
:10523C004D505536303530204865782044617461C6
:10524C00202E2E2E0D0A00004D50553630353020B4
:10525C005261772044617461202E2E2E0D0A0000BD
:10526C0052656164204D5055363035305F57484F8C
:10527C005F414D5F4920203A000000000A526573DF
:10528C00706F6E7365204D5055363035305F574812
:10529C004F5F414D5F49202065723A0009207264CE
:1052AC003A0000000D0A000009204D50555F455290
:1052BC00524F525F7273743A000000000A000000F3
:1052CC0073746D33326631307820000054494D329E
:1052DC002E2E2E2020000000202020202020200018
:1052EC0073746D33326631307820200030780000D2
:1052FC0030620000200000002D0000002E00000095
:10530C0020307800203B00006D70755F7273743A2A
:10531C000000000009207273743A00000A000000BB
:10532C006D70755F736D706C3A0000000920736DC1
:10533C00706C3A006D70755F6C70663A000000001E
:10534C006D70755F6870663A000000006D70755F77
:10535C00616363656C5F726E673A00006D70755FB8
:10536C006779726F5F726E673A0000000920726491
:10537C005F434F4E4649473A0000000009200000A9
:10538C000920746F207772697465000009207772A8
:10539C005F434F4E4649473A0000000009207264B3
:1053AC005F416363434F4E4649473A0009204163CE
:1053BC0063656C5F583A00000920416363656C5F5C
:1053CC00593A00000920416363656C5F5A3A00004A
:1053DC0009204779726F5F583A000000092047791D
:1053EC00726F5F593A00000009204779726F5F5A5B
:1053FC003A000000092054656D703A0009204143C1
:10540C0043454C5F584F55543A0000000920414326
:10541C0043454C5F594F55543A0000000920414315
:10542C0043454C5F5A4F55543A0000000D0A00009A
:10543C0009204759524F5F584F55543A000000000D
:10544C0009204759524F5F594F55543A00000000FC
:10545C0009204759524F5F5A4F55543A00000000EB
:10546C00092054454D505F4F55543A000920726540
:10547C006720402028000000293A00000D0A0A008D
:10548C00092070636C6B313A0000000009206672D1
:10549C00713A000009204343523A00000900000011
:1054AC000920747269733A00090D0A000920493207
:1054BC0043315F4352313A000920493243315F4353
:1054CC0052323A000920493243315F4F4152313A4E
:1054DC00000000000920493243315F4F4152323AFB
:1054EC00000000000D0A00000920493243315F53CF
:1054FC0052313A000920493243315F5352323A005B
:10550C000920493243315F4343523A000920493262
:10551C0043315F54524953453A0000000920493247
:10552C0043315F44523A00303132333435363738F8
:10553C00396162636465666768696A6B6C6D6E6F0E
:0C554C00707172737475767778797A004C
:0855580058BAFF7F01000000BA
:04556000310100080D
:045564000D0100082D
:105568000000000001020304010203040607080901
:105578000204060800A24A04001001400D000000C1
:10558800001001400F000000000801400700000063
:105598000008014006000000000801400500000066
:1055A800000801400400000000080140030000005A
:1055B800000801400200000000080140010000004E
:1055C8000008014000000000000C01400C00000031
:1055D800000C01400D000000000C01400E0000000E
:1055E800000C01400F000000000801400800000006
:1055F800000801400B000000000801400000000006
:1056080000080140010000000008014002000000FD
:1056180000080140030000000008014004000000E9
:1056280000080140050000000008014006000000D5
:105638000008014007000000000C014009000000BC
:10564800000C014008000000001001400E0000009E
:1056580000080140070000000008014006000000A3
:105668000008014005000000000801400400000097
:10567800000801400300000000080140020000008B
:10568800000801400100000000080140000000007F
:105698000008014009000000000801400A0000005D
:1056A800D00000000000803F0000803F00000000A4
:1056B80000000000000000000000000000000000E2
:1056C800000000000000000000000000AC0D000019
:0456D800005400403A
:04000005080050653A
:00000001FF
